:1000000003C1000029C1000027C1000025C1000074
:1000100023C1000021C100001FC100001DC100005C
:100020001BC1000019C1000017C1000015C100006C
:1000300013C100000C944A1C0FC100000DC1000048
:100040000C94842C09C100000C942B2F0C945D2F70
:1000500003C1000001C10000FFC00000FDC000009E
:10006000FBC00000F9C00000084AD73B3BCE016E40
:1000700084BCBFFDC12F3D6C74319ABD56833DDAFF
:100080003D00C77F11BED9E4BB4C3E916BAAAABE0E
:10009000000000803F05A84CCDB2D44EB93836A937
:1000A000020C50B9918688083CA6AAAA2ABE000074
:1000B00000803F00001D3A2774694E53E8F5D2CF07
:1000C0009C81A6BBCDD0F7EAB9A4839E25381F0238
:1000D000514C6B76879ABDA0F3EEC9D46F72554828
:1000E0001B06213C4A57706D3E230419A2BF988518
:1000F000D6CBECF1130E2934677A5D40FBE6C1DC08
:100100008F92B5A8DEC3E4F9AAB7908D362B0C11F7
:10011000425F78659489AEB3E0FDDAC77C61465BE7
:100120000815322F5944637E2D30170AB1AC8B96D7
:10013000C5D8FFE2263B1C01524F6875CED3F4E9C7
:10014000BAA7809DEBF6D1CC9F82A5B8031E3924B7
:10015000776A4D50A1BC9B86D5C8EFF24954736EA7
:100160003D20071A6C71564B1805223F8499BEA397
:10017000F0EDCAD735280F12415C7B66DDC0E7FA87
:10018000A9B4938EF8E5C2DF8C91B6AB100D2A3777
:1001900064795E43B2AF8895C6DBFCE15A47607D67
:1001A0002E3314097F6245580B16312C978AADB057
:1001B000E3FED9C4000000080002010000030407A8
:1001C0000000000000000000010204081020408030
:1001D0000102040810200102040810200404040491
:1001E00004040404020202020202030303030303E1
:1001F00000000000250028002B0000000000240063
:1002000027002A002C1C822F11241FBECFEFD8E01C
:10021000DEBFCDBF12E0A0E0B1E0E0E0F6E602C054
:1002200005900D92A83CB107D9F724E0A8ECB2E004
:1002300001C01D92AE3DB207E1F711E0C4E0D1E08C
:1002400004C02197FE010E945C31C230D107C9F77A
:100250000E946A280C94FE32D3CE4F925F926F9226
:100260007F928F929F92AF92BF92CF92DF92EF9246
:10027000FF920F931F93CF93DF93CDB7DEB76897AD
:100280000FB6F894DEBF0FBECDBF69837A838B8330
:100290009C8329013A01E986FA860B871C87AD8A7F
:1002A000BE8ACF8AD88E0BA91CA92DEC3CEC4CE45D
:1002B0005EE36FA578A989A99AA90E94932987FF6F
:1002C00016C02DEC3CEC4CE45FE36FA578A989A93E
:1002D0009AA90E94B32B181654F480E090E0A8E489
:1002E000B3E4F80180839183A283B3838AC0298514
:1002F0003A854B855C8569817A818B819C810E94DE
:10030000F4284B015C0120E030E0A9010E94932910
:10031000882309F4E1C029813A814B815C81CA01BB
:10032000B9010E94BE2B6D837E838F839887A301C2
:100330009201C301B2010E94BE2B6D877E878F8719
:10034000988B9B01AC016D817E818F8198850E9485
:10035000F4286B017C0129853A854B855C85CA01AF
:10036000B9010E94BE2B9B01AC01C701B6010E94DE
:10037000F3280E942B2C6B017C0129853A854B8543
:100380005C8569817A818B819C810E94BE2B698BFF
:100390007A8B8B8B9C8BA7019601C301B20190587D
:1003A0000E94BE2B2D813E814F8158850E94F428EA
:1003B00029893A894B895C890E94F4282D853E85DC
:1003C0004F8558890E94F42820E030E0A9010E945E
:1003D0009329A7019601882309F45AC0C301B201E9
:1003E0000E94F328A50194010E949A290E9458298D
:1003F0009B01AC010E94F428F80160837183828321
:1004000093832BED3FE049E450E46BA57CA58DA5DB
:100410009EA50E94BE2B20E030E044E353E40E94FE
:100420009A299B01AC01F8016081718182819381DD
:100430000E94F3282D893E894F89588D0E949A2960
:1004400020E030E044E353E40E94BE2B2BED3FE07C
:1004500049E450E40E949A29F80160837183828301
:10046000938368960FB6F894DEBF0FBECDBFDF91C1
:10047000CF911F910F91FF90EF90DF90CF90BF90A1
:10048000AF909F908F907F906F905F904F90089566
:10049000C301B2010E94BE2B2D813E814F81588540
:1004A0000E94F42829893A894B895C890E94F428A2
:1004B0002D853E854F8558890E94F42820E030E044
:1004C000A9010E949329882339F0A7019601C3014D
:1004D000B2010E94F42886CF20E030E0A901C301D8
:1004E000B2010E9493298823D9F129813A814B8155
:1004F0005C81CA01B9010E94BE2B6B017C01A30182
:100500009201C301B2010E94BE2B9B01AC01C70145
:10051000B6010E94F42820E030E0A9010E9493294E
:100520008823F1F029853A854B855C8569817A813C
:100530008B819C8190580E949329811111C0A30145
:10054000920169817A818B819C810E949A290E9403
:10055000582920E030E040E050EC0E94BE2B4CCF08
:1005600069857A858B859C85905829813A814B8154
:100570005C810E949329811105C08BED9FE0A9E465
:10058000B0E4AFCE80E090E0AAE7B4E4AACE4F9208
:100590005F926F927F928F929F92AF92BF92CF9213
:1005A000DF92EF92FF92CF93DF9300D000D0CDB7D0
:1005B000DEB74B015C0169017A010E94190D8823A5
:1005C000E9F08090CC049090CD04A090CE04B0903F
:1005D000CF04C501B4010F900F900F900F90DF91E1
:1005E000CF91FF90EF90DF90CF90BF90AF909F9012
:1005F0008F907F906F905F904F900895C701B601E4
:100600000E94190D8111DDCFC501B4010E94D40CE7
:100610008111D7CFC701B6010E94D40C8111D9CF67
:1006200020E030E0A901C701B6010E94932987FFAD
:100630004CC0C701B6010E9480292B013C01A301D7
:100640009201C701B6010E949329882309F44CC086
:10065000A7019601C501B4010E949A292B013C0112
:10066000E89477F820E030E040E05FE3C301B201B6
:100670000E94F4280E943F2A9B01AC01C301B201F1
:100680000E94F3289B01AC015F7729833A834B8357
:100690005C8320E030E040E054E3C301B2010E94FB
:1006A000BE2B9B01AC0169817A818B819C810E9468
:1006B000B32B1816CCF020E030E0A901C501B4013D
:1006C0000E94BE2B4B015C0184CFC701B6010E9482
:1006D0003F2A2B013C0120E030E0A901C701B6010F
:1006E0000E9493298111ABCFA7019601C501B401E6
:1006F0000F900F900F900F90DF91CF91FF90EF90A0
:10070000DF90CF90BF90AF909F908F907F906F9031
:100710005F904F900C94592A8F929F92AF92BF9204
:10072000CF92DF92EF92FF92CF93DF93EC0168E4D8
:1007300071E68CE391E40E94D40C8823B9F0809197
:10074000CC049091CD04A091CE04B091CF048883C5
:100750009983AA83BB83DF91CF91FF90EF90DF90C5
:10076000CF90BF90AF909F908F90089568817981CE
:100770008A819B810E94190D8111E1CF6881798165
:100780008A819B8120E030E044EB53E400DF6B0181
:100790007C014B015C01E894B7F820E030E044E3D1
:1007A00053E4C501B4010E94B32B1816BCF420E039
:1007B00030E0A901C701B6010E94B32B20E030E070
:1007C00044EB53E418161CF5C701B6010E94F32848
:1007D0006B017C014B015C01E894B7F820E030E04C
:1007E00044E352E4C501B4010E9493291816A4F011
:1007F00025E33AEF4EE85CE3C701B6010E94BE2B49
:100800000E949729688379838A839B83A4CFC70139
:10081000B6010E94F428DCCF20E030E047E053E44A
:10082000C501B4010E94932920E030E0A901181607
:100830002CF1C701B6010E94B32B20E030E044EB5D
:1008400052E4181674F4C701B6010E94F32825E398
:100850003AEF4EE85CE30E94BE2B0E94212C905898
:10086000D1CFC701B6010E94F42825E33AEF4EE844
:100870005CE30E94BE2B0E94212CC4CFC701B601AD
:100880000E94B32B20E030E044E353E418166CF4EC
:10089000C701B6010E94F32825E33AEF4EE85CE376
:1008A0000E94BE2B0E949729DACFC701B6010E9491
:1008B000F428F2CF2F923F924F925F926F927F92E5
:1008C0008F929F92AF92BF92CF92DF92EF92FF9260
:1008D0000F931F93CF93DF93CDB7DEB72F970FB64C
:1008E000F894DEBF0FBECDBF80906201909063018F
:1008F000A0906401B09065012DEB37E346E855E325
:10090000C501B4010E94F42869837A838B839C8398
:10091000C0907601D0907701E0907801F090790155
:100920002DEB37E346E855E3C701B6010E94F428F2
:100930002B013C01AC019B0169817A818B819C81F7
:100940000E949A2920E030E040EC5FE30E94932966
:1009500087FF86C029813A814B815C81C301B20146
:100960000E949A2920E030E040EC5FE30E94932946
:1009700087FF76C020E030E040E751E460916601F7
:100980007091670180916801909169010E94B32B79
:1009900018160CF065C020E030E040E751E46091AB
:1009A00072017091730180917401909175010E94A0
:1009B000B32B18160CF054C08DEC9CECA4EEBFE3E6
:1009C00080939C0490939D04A0939E04B0939F04F5
:1009D00088E491E6ACE3B1E48093A0049093A10491
:1009E000A093A204B093A3044FE852EC69EC7FE318
:1009F0004093A4045093A5046093A6047093A704A5
:100A00008093A8049093A904A093AA04B093AB0484
:100A100088EA94E081DE2FE832EC49EC5FE36091F4
:100A2000A8047091A9048091AA049091AB040E943B
:100A3000F42827E830EF48E450E40E949A296093B4
:100A40009404709395048093960490939704109265
:100A500098041092990410929A0410929B04ABC0CF
:100A6000A7019601C501B4010E94B32B18160CF022
:100A700089C1409066015090670160906801709054
:100A80006901A3019201C501B4010E94B32B18169C
:100A90000CF03BC18091720190917301A09174019F
:100AA000B091750189839A83AB83BC83A3019201C2
:100AB000C701B6010E94B32B18165CF429813A8154
:100AC0004B815C81C701B6010E94B32B18160CF450
:100AD00046C02DEB37E346E855E369817A818B8187
:100AE0009C810E94F4289B01AC01C301B2010E94C9
:100AF0009A2920E030E040E250E40E94932987FFE9
:100B000004C12DEB37E346E855E3C301B2010E946F
:100B1000F4289B01AC0169817A818B819C810E94C0
:100B20009A2920E030E040E250E40E94932987FFB8
:100B3000ECC020E030E040E251E4C301B2010E9489
:100B4000932987FD0CC020E030E040E251E4698148
:100B50007A818B819C810E94932987FFD6C080E097
:100B600090E0A0E8BFE380939C0490939D04A09341
:100B70009E04B0939F041092A0041092A1041092BE
:100B8000A2041092A3041092A4041092A50410923F
:100B9000A6041092A7041092940410929504109247
:100BA0009604109297048093980490939904A093CC
:100BB0009A04B0939B04C0906A01D0906B01E090BE
:100BC0006C01F0906D0180906E0190906F01A0908B
:100BD0007001B09071012DEB37E346E855E3C70192
:100BE000B6010E94F4282B013C012DEB37E346E8C7
:100BF00055E3C501B4010E94F4289B01AC01C30177
:100C0000B2010E949A2920E030E040E050E40E94C6
:100C1000932987FF15C22DEB37E346E855E3609132
:100C200066017091670180916801909169010E944D
:100C3000F4282B013C012DEB37E346E855E36091A6
:100C400072017091730180917401909175010E94FD
:100C5000F4289B01AC01C301B2010E949A2920E053
:100C600030E040E050E40E94932987FFE9C18DEC19
:100C70009CECA4EEBFE38093A8049093A904A093F6
:100C8000AA04B093AB0488E491E6ACE3B1E48093AA
:100C9000AC049093AD04A093AE04B093AF044FE8BE
:100CA00052EC69EC7FE34093B0045093B10460933D
:100CB000B2047093B3048093B4049093B504A093EA
:100CC000B604B093B70484EB94E026DD2FE832EC51
:100CD00049EC5FE36091B4047091B5048091B6046F
:100CE0009091B7040E94F42827E830EF48E450E4DC
:100CF0000E949A296093B4047093B5048093B6045B
:100D00009093B7041F861E8639C28FE892ECA7E144
:100D1000B0E480939C0490939D04A0939E04B093B0
:100D20009F048BE296EFA4E3B0E48093A004909339
:100D3000A104A093A204B093A3048FEE99ECA3E6C0
:100D4000BFE38093A4049093A504A093A604B0935A
:100D5000A704A3019201C501B4010E94F4289B01DC
:100D6000AC01C301B2010E949A296093940470936C
:100D70009504809396049093970480E090E0A0E817
:100D8000BFE311CFA7019601C501B4010E949329C9
:100D900087FFD6C04090720150907301609074013B
:100DA00070907501A3019201C701B6010E94B32B97
:100DB00018160CF08CC08091660190916701A0918B
:100DC0006801B091690189839A83AB83BC839C01DC
:100DD000AD01C501B4010E94B32B18164CF4A30158
:100DE0009201C501B4010E94B32B18160CF446C041
:100DF0002DEB37E346E855E3C301B2010E94F42826
:100E00009B01AC0169817A818B819C810E949A2926
:100E100020E030E040E250E40E94932987FF57C071
:100E20002DEB37E346E855E369817A818B819C811C
:100E30000E94F4289B01AC01C301B2010E949A29CF
:100E400020E030E040E250E40E94932987FF3FC059
:100E500020E030E040E751E469817A818B819C8118
:100E60000E94932987FD0AC020E030E040E751E46A
:100E7000C301B2010E94932987FF29C080E090E05E
:100E8000A0E8BFE380939C0490939D04A0939E04EC
:100E9000B0939F041092A0041092A1041092A20497
:100EA0001092A3041092A4041092A5041092A60418
:100EB0001092A70410929404109295041092960434
:100EC0001092970480E090E0A0E8BFEB6CCE88E53C
:100ED00099E3A4E1B0E480939C0490939D04A093D3
:100EE0009E04B0939F048FE892E4ABEAB1EC809348
:100EF000A0049093A104A093A204B093A30485E658
:100F00009AEAACE5BFE38093A4049093A504A09370
:100F1000A604B093A704A3019201C701B6010E94E1
:100F2000F4289B01AC01C301B2010E949A2960938D
:100F30009404709395048093960490939704C2CF81
:100F400020E030E040E751E4C501B4010E9493295C
:100F500018160CF450C020E030E040EA50E46091F4
:100F600066017091670180916801909169010E940A
:100F7000932918160CF43FC020E030E040EA50E41A
:100F8000609172017091730180917401909175016B
:100F90000E94932918167CF120E030E040E751E4EC
:100FA000C701B6010E94932918162CF180E090E049
:100FB000A0E8BFE380939C0490939D04A0939E04BB
:100FC000B0939F041092A0041092A1041092A20466
:100FD0001092A3041092A4041092A5041092A604E7
:100FE0001092A7048093940490939504A093960480
:100FF000B0939704D8CD80E090E0A0E8BFE3809361
:101000009C0490939D04A0939E04B0939F0410921F
:10101000A0041092A1041092A2041092A3041092B2
:10102000A4041092A5041092A6041092A704809321
:10103000940490939504A0939604B093970407CDDD
:1010400020E030E040EA50E4C701B6010E94F428F5
:101050009B01AC01C501B4010E94B32B18160CF022
:1010600021C34090720150907301609074017090A0
:101070007501A3019201C701B6010E94B32B181696
:10108000C4F0A7019601C301B2010E949A2920E091
:1010900030E040E250E40E94932987FF33C020E013
:1010A00030E040E251E4C701B6010E94932987FF76
:1010B00029C080E090E0A0E8BFE38093A80490936B
:1010C000A904A093AA04B093AB041092AC041092AC
:1010D000AD041092AE041092AF041092B0041092BE
:1010E000B1041092B2041092B3041092B40410929E
:1010F000B5041092B6041092B704A1E0B0E0BF8727
:10110000AE873CC08DEC9CECA4EEBFE38093A804BA
:101110009093A904A093AA04B093AB0488E491E649
:10112000ACE3B1E48093AC049093AD04A093AE041F
:10113000B093AF048FE892ECA9ECBFE38093B004C6
:101140009093B104A093B204B093B304A3019201AD
:10115000C501B4010E94F4289B01AC01C301B20196
:101160000E949A296093B4047093B5048093B604E6
:101170009093B70421E030E03F872E8700919404DC
:10118000109195048090960490909704A0909C04F0
:10119000B0909D04C0909E04D0909F0440907A012E
:1011A00050907B0160907C0170907D0120918E01B8
:1011B00030918F01409190015091910160918A018D
:1011C00070918B0180918C0190918D010E949A29E0
:1011D000A30192010E94BE2BA60195010E94BE2B85
:1011E0000E94212C69837A838B839C8320918201C6
:1011F00030918301409184015091850160917E017D
:1012000070917F0180918001909181010E949A29C3
:10121000A30192010E94BE2BA60195010E94BE2B44
:101220000E94972969877A878B879C8720919601EE
:101230003091970140919801509199011401602FCC
:10124000712FC1010E94BE2B9B01AC0160919201E4
:101250007091930180919401909195010E94F328DF
:101260002091A4043091A5044091A6045091A704B4
:101270000E94BE2B6D837E838F8398872091860189
:10128000309187014091880150918901602F712F21
:10129000822D932D0E94BE2B29813A814B815C8146
:1012A0000E94BE2B2B013C0120915E0130915F0119
:1012B0004091600150916101602F712F822D932D1B
:1012C0000E94F32869837A838B839C8329853A85DE
:1012D0004B855C85602F712F822D932D0E94BE2B34
:1012E0009B01AC0169817A818B819C810E94F428E9
:1012F00028EB822E24E0922E9F928F923F922F9283
:101300001F930F932091A3042F932091A2042F9356
:101310002091A1042F932091A0042F93ED80FE80B3
:101320000F811885A30192010E942D01209198043C
:101330003091990440919A0450919B046091B804B3
:101340007091B9048091BA049091BB040E94BE2BA5
:1013500060938C0470938D0480938E0490938F041B
:101360000091B4041091B504B091B604BD832091EE
:10137000B7042D87A090A804B090A904C090AA0437
:10138000D090AB0440909E0150909F016090A001CE
:101390007090A1012091B2013091B3014091B4014C
:1013A0005091B5016091AE017091AF018091B00193
:1013B0009091B1010E949A29A30192010E94BE2B33
:1013C000A60195010E94BE2B0E94212C69837A837D
:1013D0008B839C832091A6013091A7014091A801A5
:1013E0005091A9016091A2017091A3018091A40183
:1013F0009091A5010E949A29A30192010E94BE2BFF
:10140000A60195010E94BE2B0E94972969877A87C1
:101410008B879C872091BA013091BB014091BC0120
:101420005091BD01F02EE12E2D803D84602F712F53
:10143000C1010E94BE2B9B01AC016091B60170916D
:10144000B7018091B8019091B9010E94F3282091D1
:10145000B0043091B1044091B2045091B3040E94A1
:10146000BE2B6D837E838F8398872091AA01309154
:10147000AB014091AC015091AD01D7016B2F7A2F98
:10148000822D932D0E94BE2B29813A814B815C8154
:101490000E94BE2B2B013C0120919A0130919B01AF
:1014A00040919C0150919D01D7016B2F7A2F822D85
:1014B000932D0E94F32869837A838B839C832985EB
:1014C0003A854B855C85D7016B2F7A2F822D932D22
:1014D0000E94BE2B9B01AC0169817A818B819C812A
:1014E0000E94F4289F928F923F922F921F930F9306
:1014F0002091AF042F932091AE042F932091AD043F
:101500002F932091AC042F93ED80FE800F811885DE
:10151000A30192010E942D01AE85BF85BD01BB0FC5
:10152000880B990B0E94042A9B01AC016091B804BE
:101530007091B9048091BA049091BB040E94BE2BB3
:101540006093900470939104809392049093930419
:101550004CEB54E060E974E08CE894E00E94B61B28
:101560004CEB54E060E974E08CE894E00E94061CC7
:1015700081E090E00E94F219409106035091070328
:10158000609108037091090390E080E00E94EE19D9
:101590008090120390901303A0901403B090150351
:1015A0000FB6F894DEBF0FBECDBF20E030E040E8BC
:1015B0005FEBC501B4010E949329882331F1C090EB
:1015C0000603D0900703E0900803F0900903A701F9
:1015D0009601C501B4010E94F3284B015C0120E093
:1015E00030E040E054E3C701B6010E94BE2B9B01EE
:1015F000AC01C501B4010E94B32B181634F082EC83
:1016000091E09093F1028093F00280911603882379
:1016100031F082EC91E09093F1028093F0026091BE
:101620000A0370910B0380910C0390910D036F5F7F
:101630007F4F8F4F9F4F60930A0370930B038093EC
:101640000C0390930D030E94022A9B01AC01609150
:101650000E0370910F0380911003909111030E946B
:10166000BE2B609306037093070380930803909347
:1016700009032F960FB6F894DEBF0FBECDBFDF91E2
:10168000CF911F910F91FF90EF90DF90CF90BF907F
:10169000AF909F908F907F906F905F904F903F9012
:1016A0002F90089520E030E040EA50E4C501B401F5
:1016B0000E94F4289B01AC01C701B6010E94B32B24
:1016C00018160CF0D4CA40906601509067016090E3
:1016D000680170906901A3019201C501B4010E94E3
:1016E000B32B1816C4F0A5019401C301B2010E94E6
:1016F0009A2920E030E040E250E40E94932987FFDD
:1017000033C020E030E040E251E4C501B4010E9462
:10171000932987FF29C080E090E0A0E8BFE3809391
:10172000A8049093A904A093AA04B093AB041092C8
:10173000AC041092AD041092AE041092AF0410925B
:10174000B0041092B1041092B2041092B30410923B
:10175000B4041092B5041092B6041092B7048FEF3F
:101760009FEF9F878E870ACD8DEC9CECA4EEBFE3A4
:101770008093A8049093A904A093AA04B093AB0407
:1017800088E491E6ACE3B1E48093AC049093AD04BB
:10179000A093AE04B093AF048FE892ECA9ECBFE342
:1017A0008093B0049093B104A093B204B093B304B7
:1017B000A3019201C701B6010E94F4289B01AC016C
:1017C000C301B2010E949A296093B4047093B504D6
:1017D0008093B6049093B704AFEFBFEF90CCCF9354
:1017E000DF9384E090E0A9D0E0EFF2E080E090E0C9
:1017F000A0E2B1E482A393A3A4A3B5A38DEC9CECD7
:10180000ACE4BEE3868F978FA0A3B1A388E09EE7E8
:10181000A9E4B9EC84839583A683B78386E993EE24
:10182000A2E7B2EC80879187A287B38782EE92EE1F
:10183000A1E4BCEE84879587A687B78780E995EBFE
:10184000A7E2B1EF808B918BA28BB38BA4EEB2E0B9
:10185000B383A283CCEDD2E01196DC93CE9386EDD8
:1018600091E0998388839B838A839D838C839F8364
:101870008E8384E093E015969C938E93149784EF67
:1018800092E013969C938E93129786E093E01796BE
:101890009C938E931697A2EDB2E08AE0ED01199227
:1018A0008A95E9F7A8ECB2E0B58BA48B8EE090E0C6
:1018B00011969C938E9382E491E013969C938E9361
:1018C000129786E291E015969C938E93149782E18D
:1018D00091E017969C938E93169786E091E0199667
:1018E0009C938E9318971092BC041092BD04109292
:1018F000BE041092BF04DF91CF910895089560E077
:1019000070E080E89FE7089560E070E080E89FE77E
:10191000089560E070E080E89FEF089560E070E077
:1019200080E89FEF089560E070E080EC9FEF0895FD
:1019300060E070E080EC9FEF0895F5DF6093CC04E9
:101940007093CD048093CE049093CF04F1DF609325
:10195000C0047093C1048093C2049093C304CFDF8A
:101960006093C8047093C9048093CA049093CB0415
:10197000CBDF6093C4047093C5048093C604909336
:10198000C704C7DF6093D0047093D1048093D2045E
:101990009093D304C3DF6093D4047093D5048093F1
:1019A000D6049093D7040895CF92DF92EF92FF92DE
:1019B000CF936B017C01AC019B016091C8047091D5
:1019C000C9048091CA049091CB040E949329C1E07C
:1019D000882371F0A70196016091D0047091D10421
:1019E0008091D2049091D3040E9493298111C0E088
:1019F0008C2FCF91FF90EF90DF90CF9008950F93B1
:101A00001F938B019C010027112720783F77011538
:101A1000110520483F4749F4AB01BC016F77772798
:101A200081E0452B462B472B09F480E01F910F9155
:101A30000895E5CFEF92FF920F931F93CF93DF931B
:101A4000EA01F901DC011496ED90FC9015971296CD
:101A50004D915C9113974E0D5F1D28813981189629
:101A60000D911C9119970217130730F00D911C91DD
:101A70001197012B09F441C08A01021B130BDC01F1
:101A800018968D919C918E199F09800F911F861732
:101A90009707DCF1C901860F971F8417950778F423
:101AA00071836083338322831582148217821682A6
:101AB00088819981680F791F7983688316C01183A3
:101AC000008333832283601B710B7583648390E0F2
:101AD00080E01616170614F49E2D8F2D96838783AB
:101AE000D701A60FB71FB983A88380E0DF91CF91FC
:101AF0001F910F91FF90EF90089518968D919C91F2
:101B0000821B930B861797075CF681E0EFCFCF928D
:101B1000DF92EF92FF92CF93DF936B0184E4869F75
:101B2000E001879FD00D1124C95EDC4F8AA99BA9D3
:101B3000009721F00E945C321BAA1AAA84E48C9DB3
:101B4000F0018D9DF00D1124E95EFC4F86A997A947
:101B5000009711F00E945C3284E48C9DF0018D9D11
:101B6000F00D1124E95EFC4F138A128A168A178A37
:101B7000108E118E128E138E148E158E168E178E59
:101B800010A211A281E090E093A382A315A214A257
:101B900016A217A210A611A613A612A615A614A681
:101BA00016A617A610AA11AA13AA12AA15AA14AA51
:101BB00017AA16AA11AE10AE12AE13AE14AE15AE21
:101BC000DF01DE961D921D921D921C921397EE5B13
:101BD000FF4F11821082DF91CF91FF90EF90DF9045
:101BE000CF900895CF93DF93FB01DC016D917C9141
:101BF000DB011696CD91DC918081918123E0880FE5
:101C0000991F2A95E1F7AA81BB81A80FB91F8D9171
:101C10009C91119724853585220F331FEB016A8132
:101C20007B81EB01C20FD31F0990D881C02D149680
:101C30002D913C9161E070E0232B11F062E070E0A7
:101C4000C69F9001C79F300DD69F300D1124A085EF
:101C5000B1852A9FB0012B9F700D3A9F700D112402
:101C6000A481B5812A9FF0012B9FF00D3A9FF00DC2
:101C700011248E0F9F1FFA019183808373836283E7
:101C8000DF91CF9108952F923F924F925F926F9282
:101C90007F928F929F92AF92BF92CF92DF92EF92FC
:101CA000FF920F931F93CF93DF9300D000D000D00B
:101CB000CDB7DEB7DC011496ED91FC910190F08177
:101CC000E02D808591859A838983A281B381BC832D
:101CD000AB83FB0181909190A190B190C12CD12C4C
:101CE0007601C814D904EA04FB04CCF026960FB69A
:101CF000F894DEBF0FBECDBFDF91CF911F910F9142
:101D0000FF90EF90DF90CF90BF90AF909F908F901B
:101D10007F906F905F904F903F902F9008954480F8
:101D20005580668077804085518562857385CF01B7
:101D300040969E838D83A081B1819D0183E0220F17
:101D4000331F8A95E1F7A981BA8112968D919C91F2
:101D5000D901A80FB91F2D903C9011970484F585E7
:101D6000E02DEE0FFF1F8B819C81E80FF91F019082
:101D7000F081E02D14968D919C91892B41F581E0A5
:101D800090E0E89F9001E99F300DF89F300D1124FD
:101D9000249F8001259F100D349F100D1124249D38
:101DA000C001259D900D349D900D1124A8016D81D9
:101DB0007E81820D931D0E94E532ED81FE81E00F50
:101DC000F11F9FEFC91AD90AE90AF90A8ACF82E0FE
:101DD00090E0D7CFCF93DF93DB01A254BE4F2C917D
:101DE000222369F024E4269FF001279FF00D11249F
:101DF000E95EFC4FEF0119922A95E9F71C9224E461
:101E0000269FF001279FF00D1124E95EFC4F1482FC
:101E10001582168217821186108613861286118A01
:101E2000108A17861686DF91CF9171CE2F923F923E
:101E30004F925F926F927F928F929F92AF92BF92DA
:101E4000CF92DF92EF92FF920F931F93CF93DF9386
:101E5000CDB7DEB728970FB6F894DEBF0FBECDBF63
:101E600024E4269FF001279FF00D1124E95EFC4F2A
:101E70000481158126813781012B022B032B09F464
:101E8000B7C02A016B017C0110E000E0812C912C8D
:101E900054013F019F01285F3F4F3C832B83CF01BB
:101EA00004969E838D83AB81BC818D919C91ED8145
:101EB000FE81408151816281738184169506A60658
:101EC000B706E4F10E945C32D3011A968D919C9181
:101ED000892B09F07EC084E48C9DD0018D9DB00DCE
:101EE0001124A95EBC4FBC83AB8350968D919C910D
:101EF0000E945C32EB81FC81868597850E945C3272
:101F0000C701B60104DEC701B60128960FB6F894E2
:101F1000DEBF0FBECDBFDF91CF911F910F91FF901C
:101F2000EF90DF90CF90BF90AF909F908F907F9079
:101F30006F905F904F903F902F904CCFFC01E00F3F
:101F4000F11F92819983A381AA839F83A887312C53
:101F5000212C2414350464F089819A810E945C321A
:101F6000EFEF8E1A9E0AAE0ABE0A0C5F1F4F9BCF80
:101F7000AF81B885ED91FD91B887AF83309759F067
:101F8000848195810E945C32EF81F885329780814F
:101F900091810E945C32BFEF2B1A3B0ADACF800F8F
:101FA000911FFC01848195810E945C322B813C81D0
:101FB0002F5F3F4F3C832B83025F1F4FF5018081D2
:101FC00091812B813C81241535054CF30E945C32B4
:101FD00082CF10E000E01C821B8224E42C9DC00113
:101FE0002D9D900D1124DC01AF5DBC4F5D01E6CF4E
:101FF00028960FB6F894DEBF0FBECDBFDF91CF910C
:102000001F910F91FF90EF90DF90CF90BF90AF9016
:102010009F908F907F906F905F904F903F902F9008
:10202000089524E4269FF001279FF00D1124E95E16
:10203000FC4F828993890497029758F485E090E0D9
:10204000938B828B8FEF9FEFDC01828F938FA48F16
:10205000B58F08952F923F924F925F926F927F9229
:102060008F929F92AF92BF92CF92DF92EF92FF92A8
:102070000F931F93CF93DF93CDB7DEB7AA970FB619
:10208000F894DEBF0FBECDBF9AA389A37E8B6D8B64
:102090001A01098B1A8B2B8B3C8B84E429893A8992
:1020A000829F6001839FD00C11248601095E1C4F22
:1020B00089899A89AB89BC89F80180839183A2833D
:1020C000B383AB01BC01CD01B1DED601A55EBC4F2F
:1020D00084E0F10101900D928A95E1F7F4E02F0E72
:1020E000311C64E070E0D80114968D919C910E949F
:1020F000A631F80191878087892B09F0F5C04D89B9
:102100005E8969897A898B899C8990DE81E0AA96AB
:102110000FB6F894DEBF0FBECDBFDF91CF911F91F8
:102120000F91FF90EF90DF90CF90BF90AF909F9076
:102130008F907F906F905F904F903F902F90089579
:10214000A9A5BAA58D919C91E98DFA8DE80FF91F8B
:10215000F88FEF8BD1018D919C91880F991FA9A1C8
:10216000BAA1ED91FC91E80FF91F80819181EF896F
:10217000F88D91838083D10114962D913D914D91DD
:102180005C9117972BA33CA34DA35EA362E070E084
:102190008D899E890E94A631EF89F88D9383828371
:1021A000892B09F4ACCFF8E02F0E311C412C512CB7
:1021B00032012BA13CA14DA15EA14216530664063B
:1021C00075069CF02B8D3C8D4D8D5E8D2F5F3F4FA6
:1021D0004F4F5F4F2B8F3C8F4D8F5E8F498D5A8DA8
:1021E0004C5F5F4F5A8F498F90C0610124E0C20E4F
:1021F000D11CD101ED90FC90EE0CFF1CEF89F88D05
:1022000082819381E80EF91E68E070E081E090E041
:102210000E94A6318C01D7018D939C93892B09F4E0
:102220006ECF84E0F601D80101900D928A95E1F716
:10223000B8E02B0E311CF80180819181A281B3811D
:10224000181619061A061B06DCF464E070E00E94FA
:10225000A631D80115969C938E931497892B09F477
:102260004ECFD12CC12C812C912C5401F8018081AE
:102270009181A281B38188169906AA06BB0634F023
:10228000FFEF4F1A5F0A6F0A7F0A93CFF801E480CD
:10229000F580EC0CFD1C80E1F101DE01119601904E
:1022A0000D928A95E1F7F0E12F0E311CA701BE01D6
:1022B0006F5F7F4FA9A1BAA114968D919C9192DC7A
:1022C000F80186819781D70112962D913C91820F5A
:1022D000931F97838683BFEF8B1A9B0AAB0ABB0AB7
:1022E000E4E0CE0ED11CC2CF1A8E198E1B8E1C8E2E
:1022F0001D8E1E8E18A30F8FA8014C5F5F4F58A72D
:102300004FA3C80108969AA789A7EFA1F8A58081D5
:102310009181A281B3812B8D3C8D4D8D5E8D2817CF
:1023200039074A075B070CF40BCF6EE070E08D892C
:102330009E890E94A631AF8DB8A11B969C938E9367
:102340001A97B12CA12CD12CC12CF12CE12C24E416
:10235000E989FA892E9FC0012F9F900D11249C01BD
:102360002F5D3C4F388F2F8B88248394912C4D897F
:102370005E89C416D50654F184E4A989BA898A9F76
:1023800080018B9F100D1124095E1C4FF8011586EA
:102390001486C70133E0880F991F3A95E1F70E9430
:1023A000C031D80151969C938E935097892B09F494
:1023B000A6CEC701880F991F0E94C031F8019787E8
:1023C0008687892B09F49BCE80E0A1CED1014D9068
:1023D0005D906D907D901D0177FC91CEEF89F88D19
:1023E000008111810A0D1B1DD80111969C928E92BD
:1023F000411451046104710429F1C2010E94C031E9
:10240000F80195838483892B09F479CEF8015382EE
:102410004282848195819783868391878087138602
:10242000128681E090E045284628472811F490E084
:1024300080E0E80EF91EFFEFCF1ADF0A2EE0A20EB1
:10244000B11C95CF15961C921E921497DFCF2F9238
:102450003F924F925F926F927F928F929F92AF9234
:10246000BF92CF92DF92EF92FF920F931F93CF9381
:10247000DF93CDB7DEB76A970FB6F894DEBF0FBE15
:10248000CDBF9E8B8D8B49015A0184E4829F7001E0
:10249000839FF00C11249701295E3C4F6901FB01D9
:1024A00080819181F901958B848BD701A35DBC4F0D
:1024B000FB01349684E001900D928A95E1F7D701F3
:1024C000AF5CBC4FFB01389684E001900D928A9579
:1024D000E1F7D701AB5CBC4FFB013C9684E0019077
:1024E0000D928A95E1F7D701AB5BBC4FFB0170966B
:1024F00084E001900D928A95E1F78B010C5E1F4FED
:10250000F90186A597A5A0A9B1A918161906DCF5A9
:10251000880F991F880F991F0E94C031F60193AB55
:1025200082AB892B09F4D3C0312C212C412C512CA6
:1025300032019601225D3F4F388F2F8BC601C29624
:102540009A8F898FF496FC8BEB8BB301A2012FEF4E
:10255000421A520A620A720AEF89F88D80819181CB
:10256000A281B381481759076A077B070CF47BC027
:10257000F60184A995A90E94C031F60197AB86ABFC
:10258000892B09F4A4C0F80180819181A281B381D3
:1025900024E4289DF001299DF00D1124E95EFC4FF3
:1025A000AC01BD014D7F21E030E0452B462B472B90
:1025B00011F030E020E033A322A324E4289DF001B1
:1025C000299DF00D1124E95EFC4F0197A109B10985
:1025D00021E030E00297A105B10510F030E020E0E5
:1025E00035A324A3D701A35CBC4FF801349684E043
:1025F00001900D928A95E1F784E4889DF001899D10
:10260000F00D1124E95EFC4F868D978DA0A1B1A13C
:10261000B7FF58C0B095A095909581959F4FAF4F4B
:10262000BF4F82AF93AFA4AFB5AF168E178E10A277
:1026300011A280E06A960FB6F894DEBF0FBECDBF40
:10264000DF91CF911F910F91FF90EF90DF90CF908E
:10265000BF90AF909F908F907F906F905F904F90C2
:102660003F902F900895E98DFA8D808191819C0192
:10267000220D331D3A8B298B80E1F801DE01119682
:1026800001900D928A95E1F7005F1F4F49895A89A1
:10269000BE016F5F7F4FED89FE8984819581A2DA4B
:1026A000EB89FC8980819181E989FA8922813381D2
:1026B000820F931FEB89FC8991838083F4E02F0EB6
:1026C000311C43CF12AE13AE14AE15AEB2CFC5015E
:1026D000B4011DDA81E0AECFCF92DF92EF92FF928C
:1026E000CF93DF9310929F0324E4269FF001279F4E
:1026F000F00D1124E95EFC4F15A614A630E020E091
:10270000D12CC12CDF011A96C1E0D0E0C416D50649
:10271000F4F024E4269FF001279FF00D1124E95ED8
:10272000FC4F13A612A611AE10AEDF01DE961D926D
:102730001D921D921C92139782E090E0938B828BE6
:10274000DF91CF91FF90EF90DF90CF900895ED91C2
:10275000FC911197E20FF31FE280F3801E141F0417
:1027600054F4E480F580F782E682F186E0861386F1
:102770001286D183C083EFEFCE1ADE0A225F3F4F6D
:10278000C5CF24E4269FF001279FF00D1124E95EB8
:10279000FC4F138A128A4ACB24E4269FF001279F1C
:1027A000F00D1124E95EFC4F8289938981309105F7
:1027B000C8F08530910518F0059769F008958FEFFE
:1027C0009FEFDC01828F938FA48FB58F85E090E01F
:1027D000938B828B08958FEF9FEFDC01828F938F15
:1027E000A48FB58F089524E4249FD001259FB00DB8
:1027F0001124A95EBC4F2EE0AC01249FC001259F8F
:10280000900D11241A96ED91FC91E80FF91F81E0CB
:1028100080939F038285938591878087408551852A
:102820002681378181E090E04217530711F090E054
:1028300080E09183808308952F923F924F925F9220
:102840006F927F928F929F92AF92BF92CF92DF92C0
:10285000EF92FF920F931F93CF93DF93CDB7DEB725
:10286000C055D1090FB6F894DEBF0FBECDBF9EAFE5
:102870008DAF4BA75CA76DA77EA76801790184E4A3
:10288000809FF001819FF00D1124E95EFC4F2285AD
:10289000338523963FAF2EAF239782899389029782
:1028A00061F486A597A5A0A9B1A9892B8A2B8B2BAA
:1028B000C9F584E090E0938B828B84E48C9DF001D9
:1028C0008D9DF00D1124E95EFC4F82899389823041
:1028D000910509F037C282AD93ADA4ADB5AD222408
:1028E0002394312C181619061A061B060CF42FC255
:1028F000C05BDF4F0FB6F894DEBF0FBECDBFDF91D8
:10290000CF911F910F91FF90EF90DF90CF90BF90EC
:10291000AF909F908F907F906F905F904F903F907F
:102920002F900895848995894DAD5EAD84179507E4
:1029300021F606A917A918AE1FAA1BAA1CAA1DAA30
:102940001EAA1F01CF018E9627969FAF8EAF2797A5
:10295000DF01D2962996BFAFAEAF2997F8962B9696
:10296000FFAFEEAF2B9791012A5D3F4F2D963FAF02
:102970002EAF2D97A1014E5D5F4F2F965FAF4EAFEB
:102980002F970A9761969FAF8EAF61972796EEAD0E
:10299000FFAD279780819181A281B3812BA93CA9AA
:1029A0004DA95EA9281739074A075B0744F081E063
:1029B00090E0D101D9969C938E93D8977ECF29969B
:1029C000AEADBFAD2997ED91FC912FA938ADE20FC7
:1029D000F31F428153815AAF49AF50815FAF81816C
:1029E00021968FAF21972B96AEADBFAD2B978D91D2
:1029F0009C91892B21F12D96EEADFFAD2D97808016
:102A00009180A280B3801AAB09AB5FA72196FFAD7E
:102A10002197F8AB29AD3AAD369527953695279590
:102A200025963FAF2EAF25971CAE1BAE2596AEADBB
:102A3000BFAD2597EBADFCADEA17FB070CF149AD37
:102A40005AAD6FAD21967FAD2197C8010E94E53246
:102A500089AD9AAD8C7F080F191F2BA93CA94DA9F0
:102A60005EA92F5F3F4F4F4F5F4F2BAB3CAB4DAB42
:102A70005EAB4FA958AD4C5F5F4F58AF4FAB86CFA1
:102A80002F96AEADBFAD2F978D919C91892B71F193
:102A9000EFA5F8A94080518062807380A301920164
:102AA000C501B4010E949329181664F0A9A9BAA916
:102AB0002D913D914D915C91C501B4010E94B32BC4
:102AC0001816BCF1A3019201C501B4010E9493291B
:102AD00087FF0CC0E9A9FAA9208131814281538185
:102AE000C501B4010E949329882319F16196AEAD06
:102AF000BFAD61978D919C91892B09F445C0EFA5DD
:102B0000F8A94080518062807380A3019201C501C1
:102B1000B4010E94B32B18161CF5A9A9BAA92D91CE
:102B20003D914D915C91C501B4010E949329181605
:102B30005CF184E48C9DF0018D9DF00D1124E95E23
:102B4000FC4F868D978DA0A1B1A1892B8A2B8B2B51
:102B500069F183E090E0938B828B81E090E02CC060
:102B6000A3019201C501B4010E94932981110CC0F7
:102B7000E9A9FAA92081318142815381C501B401BB
:102B80000E94932987FDD5CF2BAD3CAD2F5F3F4FE2
:102B90003CAF2BAF49A95AA94C5F5F4F5AAB49AB29
:102BA0008FA598A9049698AB8FA740CF84E090E0BA
:102BB000938B828B86AD97AD93A782A77ECEEBAD2C
:102BC000FCAD80819181F401EE0FFF1FEE0FFF1F1E
:102BD000E80FF91FA081B1818C9181110AC0FFEF2C
:102BE0008F1A9F0AAF0ABF0A8DA29EA2AFA2B8A6F3
:102BF0008FC18330A1F30280F381E02D2FA938AD7E
:102C0000E20FF31F808191819AAB89AB892B39F355
:102C10004F5F5F4F6F4F7F4F49875A876B877C8726
:102C20009E01235E3F4FAE01475D5F4F64E070E061
:102C3000C8010E941A0D8111D0C18D819E81AF8182
:102C4000B8850496A11DB11D8D839E83AF83B8877F
:102C50004D8D5E8DBE016B5D7F4F8F8D98A10E9463
:102C6000E5328BA19CA1009761F06D8D7E8DA5E270
:102C7000B0E0AC0FBD1F6A0F7B1F49A15AA10E9493
:102C8000E5321CAA1BAA412C512C3201E9A9FAA950
:102C900080819181A281B381481659066A067B061C
:102CA0000CF09DCFE9A9FAA9848195812BA93CA9B3
:102CB000280F391F38AB2FA7D90112966D917C913F
:102CC0009E01235E3F4FAE01475D5F4FC8010E94EA
:102CD0001A0D811182C1EFA5F8A982819381092E75
:102CE000000CAA0BBB0B4D815E816F817885840F30
:102CF000951FA61FB71F8D839E83AF83B887608102
:102D000071814D8D5E8D8F8D98A10E94E5328BA1D2
:102D10009CA1009761F0AFA5B8A96D917C912D8D14
:102D20003E8D620F731F49A15AA10E94E532BFEF89
:102D30004B1A5B0A6B0A7B0AEBA9FCA93496FCAB25
:102D4000EBABA4CF312C212C049709F0D1CD8EE030
:102D5000EDADFEAD8E9F80018F9F100D1124239647
:102D60002EAD3FAD2397020F131FD80112964D9140
:102D70005C9113974115510509F4BACD16968D91C2
:102D80009C919AA789A780E1FE013196DF011D92EF
:102D90008A95E9F7C98ADA8AEB8AFC8A2114310418
:102DA00009F458C084E48C9DF0018D9DF00D112430
:102DB000E95EFC4FDF01DE968D909D90AD90BC905A
:102DC00082AD93ADA4ADB5AD88169906AA06BB0633
:102DD00009F040C0F801848195810084F185E02DDF
:102DE000349624E0DE01559601900D922A95E1F784
:102DF0002D893E89285F3F4F3E8B2D8BD801189639
:102E00006D917C911997260F371F19963C932E933D
:102E1000189718962D913C911997480F591F241B0C
:102E2000350B37FD06C0820F931F19969C938E9326
:102E3000189784E48C9DF0018D9DF00D1124EB5AC0
:102E4000FC4FB1E08B1A9108A108B10880829182F1
:102E5000A282B3829E012B5E3F4FAE01475D5F4F62
:102E600064E170E0C8010E941A0D8111B6C08CE0C7
:102E700090E0A0E0B0E08D839E83AF83B8879E0191
:102E8000235E3F4FAE01475D5F4F64E070E0C801D5
:102E90000E941A0D8111A1C080E190E0A0E0B0E095
:102EA0008D839E83AF83B8874D8D5E8DBE01655D3A
:102EB0007F4F8F8D98A10E94E5328BA19CA1009736
:102EC00061F06D8D7E8DEBE2F0E0EC0FFD1F6E0F7B
:102ED0007F1F49A15AA10E94E5321DA21EA21FA276
:102EE00018A62DAD3EAD220F331F38AF2FAB24E413
:102EF0002C9DC0012D9D900D1124895E9C4FAC012D
:102F00004C5F5F4F5AAF49AFDC011896BCAFABAF17
:102F10008DA09EA0AFA0B8A449855A856B857C85FD
:102F2000E9ADFAAD80819181A281B38188169906BD
:102F3000AA06BB060CF443CE452B462B472B09F4BF
:102F4000D7CC8AE190E0A0E0B0E089839A83AB839C
:102F5000BC832DAD3EADC901330FAA0BBB0B8D87D2
:102F60009E87AF87B88B4D895E89BE016F5F7F4FAB
:102F70008F89988D0E94E5328B8D9C8D009761F032
:102F80006D897E8941E050E04C0F5D1F640F751F15
:102F9000498D5A8D0E94E53289A59AA5D8011796C8
:102FA0009C938E93169711961C921E92232809F4D7
:102FB0009FCC84E48C9DF0018D9DF00D1124EB5A83
:102FC000FC4F80819181A281B3810196A11DB11D29
:102FD00080839183A283B3838BCC232809F088CC90
:102FE00084E48C9DF0018D9DF00D1124E95EFC4F71
:102FF00081E090E095A784A785E090E0938B828B99
:1030000077CCCF92DF92EF92FF920F931F9324E43D
:10301000269FF001279FF00D1124E95EFC4F2289C5
:1030200033892115310509F452C06B017C0121302F
:103030003105B1F482A593A59C012F5F3F4F33A7C3
:1030400022A7092E000CAA0BBB0B028D138D248D19
:10305000358D80179107A207B307C9F5C7013CDB7F
:1030600084E48C9DF0018D9DF00D1124E95EFC4FF0
:1030700082899389039759F582A593A59C012F5FB7
:103080003F4F33A722A7092E000CAA0BBB0B468D7E
:10309000578D60A171A184179507A607B707BCF0EB
:1030A00086AD97AD93A782A784E090E0938B828B47
:1030B00082AD93ADA4ADB5AD181619061A061B0660
:1030C00034F4EE5BFF4F81E090E0918380831F91A9
:1030D0000F91FF90EF90DF90CF90089524E4269F0A
:1030E000F001279FF00D1124E95EFC4F828993893E
:1030F0000497B1F482A593A5019693A782A7092E00
:10310000000CAA0BBB0B46895789608D718D841703
:103110009507A607B70721F485E090E0938B828B93
:1031200008952F923F924F925F926F927F928F926B
:103130009F92AF92BF92CF92DF92EF92FF920F9346
:103140001F93CF93DF93CDB7DEB72E970FB6F894CA
:10315000DEBF0FBECDBFDC0149835A836B837C8306
:10316000290184E4849FF001859FF00D1124E95E1C
:10317000FC4F22883388C1010497029708F0D5C01C
:1031800011961C921E9213961C921E9212971586EF
:103190001486912C812C90E080E08F019F01205FAC
:1031A0003F4F38872F833F013CE0630E711CBF0106
:1031B000625F7F4F7A8769873A96FC87EB87EF815A
:1031C000F88520813181F30140815181E985FA85BB
:1031D000A080B180841595050CF445C011965C93D0
:1031E0004E9313963C932E9312971596BC92AE92E3
:1031F0001497452BF9F4F5E02F163104D9F4109209
:103200009F03F801828D938DA48DB58DAE014F5F24
:103210005F4F64E070E08F3F9F4FAF4FBF4F09F0AB
:1032200079C080E290E0D8D669817A818B819C81D7
:10323000A201A7DA2E960FB6F894DEBF0FBECDBF5F
:10324000DF91CF911F910F91FF90EF90DF90CF9082
:10325000BF90AF909F908F907F906F905F904F90B6
:103260003F902F900895EB85FC8560817181FB0173
:10327000E80DF91DFE87ED8760817181672B89F567
:10328000E084F184628173817E836D8366817781BE
:103290006A01E3E0CC0CDD1CEA95E1F72C0D3D1D45
:1032A000440F551F4A0D5B1DFA0191838083F30182
:1032B000408151814F5F5F4F51834083F901F38219
:1032C000E282ED85FE8573876287E616F70670F465
:1032D0006E197F09F9017183608315821482178248
:1032E00016820196FEE08F0E911C69CFED85FE855A
:1032F000C480D5804D815E814C0D5D1D4E195F09E6
:10330000F901518340836C197D0975836483D782E9
:10331000C682E7CF8FE190E05FD6F80113A612A630
:1033200081E090E0938B828B85CF15861486119671
:103330001C921E9213961C921E9212977BCFEF92B4
:10334000FF920F931F93CF93DF937C018B01EA01D0
:1033500021D781111EC08091C0019091C1010497B5
:1033600011F5DF91CF911F910F91FF90EF9008958C
:1033700028ED38EB45E050E060E070E0CB010E94C2
:103380008223AE01B801C7010E949023C8010E94A8
:103390005B238091A0039091A103892BE1F68881A2
:1033A000882331F3D8CF83E090E09093C1018093DC
:1033B000C001D7CFCF93DF932091C0013091C101DD
:1033C0002430310541F0EB010E949023CE01DF91C2
:1033D000CF910C945B23DF91CF9108950C948C27AF
:1033E0000C9481270C946F270C946B230C94132757
:1033F000089570E060E090E080E0A7C60895AF9285
:10340000BF92CF92DF92EF92FF920F931F93CF93D1
:10341000DF9300D0CDB7DEB75C018B0169017A0183
:1034200090E080E0C114D104E104F10469F40F904C
:103430000F90DF91CF911F910F91FF90EF90DF9050
:10344000CF90BF90AF9008959C2D8D2DC114D104C5
:1034500021E0E206F10410F09FEF8FEF9E012F5F55
:103460003F4F492F582FB801C5010E9415288F3FA3
:103470009807E9F229813A81C21AD30AE108F108D2
:10348000020F131FCFCF90E080E008950895CF93EF
:10349000DF93EC0160E08E810E94D42D81E090E00A
:1034A0000E94292D61E08E810E94D42D81E090E060
:1034B0000E94292D60E08E810E94D42D84E690E048
:1034C000DF91CF910C94292DCF92DF92EF92FF9252
:1034D0000F931F93CF93DF936C017C0187E0E80E7D
:1034E000F11CD0E0C0E0062F10E0B8010C2E02C0A5
:1034F000759567950A94E2F76170F70181917F01F4
:103500000E94D42D2196C430D10579F7C601DF91F0
:10351000CF911F910F91FF90EF90DF90CF90B7CF99
:10352000CF92DF92EF92FF920F931F93CF93DF938F
:103530006C017C0187E0E80EF11CD0E0C0E0062FB2
:1035400010E0B8010C2E02C0759567950A94E2F759
:103550006170F70181917F010E94D42D2196C830BE
:10356000D10579F7C601DF91CF911F910F91FF909F
:10357000EF90DF90CF908BCF1F93CF93DF93EC0131
:10358000162F642F8C810E94D42D8D818F3F19F0CE
:1035900060E00E94D42D8F85612F84FF05C0CE018D
:1035A000DF91CF911F91BCCF70E084E07595679556
:1035B0008A95E1F7CE0188DF612FCE01DF91CF91AF
:1035C0001F9182CF40E0D8CF61E0FCDF80ED97E033
:1035D0000C94292D443008F043E0FC012389421764
:1035E00010F04FEF420FFC01E40FF11D2489620F30
:1035F0006068E8CFFC016089262F2460208B6C6016
:10360000E1CF0F931F93CF93DF93EC01423018F07B
:103610008F8588608F874B8B1C8A80E48D8B6E8BA7
:10362000605C6F8B222329F0413019F48F85846010
:103630008F8761E08C810E94982D8D818F3F19F0DA
:1036400061E00E94982D61E08E810E94982D8E018C
:1036500098012C1B3D0B8F8584FD0DC084E090E00C
:103660000F5F1F4F281739074CF461E0F80186817E
:103670000E94982DEDCF88E090E0F2CF80E593ECAA
:103680000E94292D60E08C810E94D42D60E08E8103
:103690000E94D42D8D818F3F19F060E00E94D42DBF
:1036A0006F8564FD2BC063E0CE010EDF84E991E1FC
:1036B0000E94292D63E0CE0107DF84E991E10E9499
:1036C000292D63E0CE0100DF86E990E00E94292DDC
:1036D00062E0CE01F9DE6F856062CE0173DF84E0C7
:1036E000888BCE0187DFCE016FDF82E0898B66E0B9
:1036F000CE01DF91CF911F910F9164CF6062CE0117
:1037000061DF84E991E10E94292D6F856062CE011D
:1037100059DF86E990E00E94292D6F856062CE0115
:1037200051DFD9CFCF92EF920F93FC011382128217
:1037300088E592E09183808364838FEF858346835D
:1037400027830087E186C28613861486158616862F
:10375000178620E041E060E1CF010F91EF90CF901C
:1037600050CF41E009DF81E090E008950F931F936F
:10377000CF93DF938C01EB01FA0120E030E040E8C9
:103780005FE360817181828193810E94932981111D
:1037900038C082EA93E018DF40E060E082EA93E01C
:1037A00019DF65E472E082EA93E00E94EB2F41E0CA
:1037B00060E082EA93E00EDF6BE472E082EA93E07D
:1037C0000E94EB2FF801408151816281738122E0D8
:1037D00030E082EA93E00E9425316FE472E082EAF1
:1037E00093E00E94EB2F488159816A817B8122E01E
:1037F00030E082EA93E0DF91CF911F910F910C941A
:103800002531DF91CF911F910F910895CF93DF93D1
:10381000EA0120E030E040E85FE3688179818A8155
:103820009B810E9493298823A1F020E042E060E17F
:1038300082EA93E0E6DE65E472E082EA93E00E94C9
:10384000EB2F80E090E0A0E8BFE388839983AA8310
:10385000BB83DF91CF910895CF92EF920F9382E0D7
:10386000C82E93E0E92E04E025E04BE06CE082EA0C
:1038700093E058DF0F91EF90CF90089540E855E224
:1038800060E070E090E080E000C026E08FEE93E022
:103890000C94CB2E1F920F920FB60F9211242F93E0
:1038A0003F934F935F936F937F938F939F93AF93C8
:1038B000BF93EF93FF938BEC93EF909385008093EE
:1038C00084000E944E28FF91EF91BF91AF919F918C
:1038D0008F917F916F915F914F913F912F910F90B9
:1038E0000FBE0F901F9018958BEC93EF909385006F
:1038F00080938400AFE6B0E08C918E7F8C93E0E8FB
:10390000F0E080818C7F8083E1E8F0E08081877E39
:10391000808380818560808380818D7F80838C918E
:1039200081608C93089581E008958F929F92AF9269
:10393000BF92CF92DF92EF92FF920F931F93CF939C
:10394000DF935C017B018A01C1E0D0E0CE15DF0589
:10395000CCF081E0F5018083B801C7010E94B62751
:10396000F5019283818390E080E0DF91CF911F91F8
:103970000F91FF90EF90DF90CF90BF90AF909F900E
:103980008F9008956E018FEFC81AD80AFE01EE0FCE
:10399000FF1FE00FF11F808091808114910469F076
:1039A00060E672E0C4010E94F532892B41F4CC0F2D
:1039B000DD1FC00FD11F19821882E601C7CF63E651
:1039C00072E0C4010E94F532892BB9F7EC14FD04B2
:1039D000A1F36E01E2E0CE0ED11CCC0FDD1FC00FB3
:1039E000D11F198218821B821A82E7CF8AEB93E0DB
:1039F000089580E008950F931F93CF93DF938B0179
:103A0000BA01E901198218829801012E000C440BB9
:103A1000550BFC0181819281F2DC019641F0198302
:103A2000088380E0DF91CF911F910F91089581E08D
:103A3000F9CF0F931F93CF93DF9300D0CDB7DEB7AD
:103A4000FB018A01B9019E012F5F3F4FAF01FC01CD
:103A5000818192810E94CA27019669F089819A81A9
:103A6000F8019183808380E00F900F90DF91CF91D8
:103A70001F910F91089581E0F7CFFC018081089597
:103A80000895089581E0FB01808380E00895089502
:103A90001092E2030895FC01818192810C94AE277B
:103AA000CF93DF93CDB7DEB72A970FB6F894DEBF7A
:103AB0000FBECDBFB0E0A0E089839A83AB83BC8307
:103AC000CB01770FAA0BBB0B8D839E83AF83B88787
:103AD0009E01275F3F4FAE014F5F5F4F68E070E090
:103AE0008091D1039091D20386DF811110C081E0D3
:103AF00029853A852830310509F480E02A960FB6E9
:103B0000F894DEBF0FBECDBFDF91CF91089581E065
:103B1000F5CF0F931F93CF93DF9300D0CDB7DEB7D0
:103B20008B019E012F5F3F4FAC018091D10390919B
:103B3000D20361DF81110EC081E029813A81201713
:103B4000310709F480E00F900F90DF91CF911F9122
:103B50000F91089581E0F7CFCF93DF93EC0110929E
:103B6000D5031092D4031092E1031092E003AC014C
:103B700060E070E0CB010E94C113AE0161E070E033
:103B800080E090E00E94C1138091D1039091D20314
:103B9000DF91CF917CCF4F925F926F927F928F9205
:103BA0009F92AF92BF92CF92DF92EF92FF920F93CC
:103BB0001F93CF93DF9300D0CDB7DEB78C017C018C
:103BC00097FF03C087E0E80EF11C23E0F594E7942B
:103BD0002A95E1F7C80168E070E00E9427316C0186
:103BE0000E5F1F4F8091CF039091D00380179107F4
:103BF000D4F48091CD039091CE03009731F00E94D0
:103C00005C321092D0031092CF03C8010E94C031E1
:103C10009093CE038093CD03892B09F482C0109337
:103C2000D0030093CF0310E000E047C1412C512C9A
:103C30003201B12CA12C95012A523C4FAE014F5FAD
:103C40005F4F61E070E08091D1039091D203F1DE8B
:103C5000811149C0EFEF4E1A5E0A6E0A7E0AF0E942
:103C60004F16FFE55F06F1E06F06710444F06091C6
:103C7000E0037091E1038DEE90E012DFD7CF8981F0
:103C80009A81A80EB91E8AE0A816B10409F043C0B3
:103C900049E050E070E060E086ED93E00E9440284B
:103CA0006091E0037091E103882391F18091DE033C
:103CB00090E08617970781F4BC018EEE90E0F0DE6D
:103CC0008091E0039091E103019699279093E1039D
:103CD0008093E0030F5F1F4F0E151F050CF4A6CF56
:103CE000CD2809F07CC090E080E00F900F90DF912C
:103CF000CF911F910F91FF90EF90DF90CF90BF90E9
:103D0000AF909F908F907F906F905F904F900895AD
:103D10008FEE90E0B2CFEAE0AE16B1040CF48BCF98
:103D2000DBCF10E000E0D8CF0A30110531F549E0D3
:103D300050E070E060E086ED93E00E9440286091E2
:103D4000E0037091E1038823A9F08091DE0390E005
:103D50008617970741F6BC018EEE90E0A1DE8091B8
:103D6000E0039091E103019699279093E1038093FA
:103D7000E003B9CF8FEE90E02BC00A3011050CF0B4
:103D8000B2CF98012A523C4FAE014F5F5F4F61E0C6
:103D900070E08091D1039091D2034BDE8111A3CFCB
:103DA00089819A81080F191FFFEFCF1ADF0AEF0AE6
:103DB000FF0A80E9C8168FE5D80681E0E806F1041D
:103DC0000CF4B2CF6091E0037091E1038DEE90E0CE
:103DD00067DE10E000E0C12CD12C7601D2CFC12CDF
:103DE000D12C760110E000E0CCCF412C512C3201D7
:103DF000B12CA12C480193E0880C991C9A95E1F70D
:103E00002091CD033091CE03C501880D991D280F57
:103E1000391FAE014F5F5F4F61E070E08091D103C9
:103E20009091D20306DE81115ECFEFEF4E1A5E0A4B
:103E30006E0A7E0A6091E0037091E1038DEE90E0DE
:103E4000F0E94F16FFE55F06F1E06F0671040CF034
:103E500043C089819A81A80EB91E8AE0A816B104D0
:103E600009F041C049E050E0B4018091CD03909148
:103E7000CE030E9440286091E0037091E103882303
:103E800049F18091CD039091CE03880E991EF401E3
:103E9000808590E08617970781F4BC018EEE90E054
:103EA000FFDD8091E0039091E103019699279093C3
:103EB000E1038093E0030F5F1F4F0E151F050CF405
:103EC00094CFC114D10409F081C08091CD039091A9
:103ED000CE030BCF8FEE90E0E3DD412C512C32016D
:103EE000B12CA12C8DCFFAE0AF16B1040CF488CF21
:103EF000E4CF8FEE90E0D4DDF12CE12C812C912CDD
:103F0000540197012A523C4FAE014F5F5F4F61E071
:103F100070E08091D1039091D2038BDD8111E3CECB
:103F20008FEF881A980AA80AB80A6091E003709186
:103F3000E1038DEE90E0E0E98E16EFE59E06E1E00C
:103F4000AE06B104C4F689819A81E80EF91EFAE042
:103F5000EF16F104A9F549E050E070E060E086ED6D
:103F600093E00E9440286091E0037091E103882370
:103F700009F4BFCF8091DE0390E08617970709F020
:103F8000A4CFBC018EEE90E08BDD83E0000F111F0B
:103F90008A95E1F78091CD039091CE03A60166ED5D
:103FA00073E0800F911F0E94E5328091E0039091B1
:103FB000E103019699279093E1038093E00385CF75
:103FC0008AE0E816F1040CF49CCF7FCF812C912C71
:103FD0005401F12CE12C95CFCF92DF92EF92FF921A
:103FE0000F931F93CF93DF931F92CDB7DEB76C0172
:103FF0007B018A01452B39F0AB0170E060E0C8011C
:104000000E943C288983B701C6014ADD81110DC099
:104010000115110551F0B701C8017BDD811105C003
:1040200061E070E0CE01019674DD0F90DF91CF91D9
:104030001F910F91FF90EF90DF90CF900895CF9256
:10404000DF92EF92FF92CF93DF93CDB7DEB7289741
:104050000FB6F894DEBF0FBECDBF6B01F12CE12C83
:10406000C982DA82EB82FC822D833E834F8358879C
:10407000AE014F5F5F4F68E070E0AEDF28960FB68D
:10408000F894DEBF0FBECDBFDF91CF91FF90EF90D0
:10409000DF90CF9008958F929F92AF92BF92CF9270
:1040A000DF92EF92FF920F931F93CF93DF937C01E8
:1040B000EB01CA0169016FDD0097B1F42FEF3FEF0B
:1040C000A90161E070E0C701BADFC1E08C2FDF9188
:1040D000CF911F910F91FF90EF90DF90CF90BF9005
:1040E000AF909F908F900895FC0181909190A19046
:1040F000B190BF01FCE1EF16F10479F4A501940140
:10410000CE010E942712C82FA5019401882369F0CF
:1041100061E070E0C70193DFD9CF95018401AB0165
:10412000B601CE010E942A10EECF70E060E0C70118
:10413000DF91CF911F910F91FF90EF90DF90CF9083
:10414000BF90AF909F908F907ACF0F931F93CF9394
:10415000DF93EC018B014ADC9093D2038093D1036F
:104160000097A9F0A801BE01E0DBEC01892B49F022
:104170008091D1039091D20383DC1092D2031092EC
:10418000D103CE01DF91CF911F910F910895CFE61A
:10419000D2E0EECF8091D1039091D2036ECC2F92DA
:1041A0003F924F925F926F927F928F929F92AF92C7
:1041B000BF92CF92DF92EF92FF920F931F93CF9314
:1041C000DF93CDB7DEB769970FB6F894DEBF0FBEA9
:1041D000CDBF2091D5032223F9F05B8B4A8B6E87EC
:1041E0007F87888B998B9A01AB01BC01CE01019628
:1041F0007C010E94911810E048E0242E312CE88EBA
:10420000F98E89819A81181619060CF451C211236E
:1042100019F08A899B89A0DC69960FB6F894DEBFF5
:104220000FBECDBFDF91CF911F910F91FF90EF9007
:10423000DF90CF90BF90AF909F908F907F906F90C6
:104240005F904F903F902F900895EB81FC818C857B
:104250009D8533E0880F991F3A95E1F7E80FF91F24
:10426000808191819093CC038093CB03248135810D
:10427000428153815093CA034093C90346815781B9
:104280005093C8034093C703820F931F9C01990F5B
:10429000440B550B2C8B3D8B4E8B5F8B812C912CC3
:1042A00054018C899D89AE89BF8988169906AA0612
:1042B000BB0640F18C859D85880F991FED81FE819D
:1042C000E80FF91F4E855F85688979898081918122
:1042D0000E94F313AC85BD851196BD87AC8789819B
:1042E0009A81EC85FD85E817F9070CF4AECF2A8991
:1042F0003B894E855F8568897989888D998D0E9473
:1043000091187FCF1F826091CB037091CC03CB01BA
:10431000072E000CAA0BBB0B84017501640134E06D
:10432000C30ED11CE11CF11CC816D906EA06FB0617
:1043300008F0B3C02091C9033091CA03A4014C5FB7
:104340005F4F240F351FF901C080D12CF12CE12CD7
:1043500024013501F5E04F0E511C611C711C4816FB
:1043600059066A067B0608F0A3C02091C903309164
:10437000CA03F8013596E20FF31F2081D22A2401E7
:10438000350126E0420E511C611C711C481659066D
:104390006A067B0608F097C02091C9033091CA03D2
:1043A000F8013696E20FF31F2081E22A240135013D
:1043B00037E0430E511C611C711C481659066A06F1
:1043C0007B0608F08BC02091C9033091CA03F80125
:1043D0003796E20FF31F208126013701722A7501FB
:1043E000640148E0C40ED11CE11CF11C8C159D0534
:1043F000AE05BF0508F41DC188169906AA06BB06BE
:1044000008F077C08091C9039091CA03800F911F73
:1044100068E070E07EDBE091CB03F091CC039F017C
:104420000F2E000C440B550BD301C2018C0D9D1DAA
:10443000AE1DBF1D281739074A075B0708F478C06F
:10444000C216D306E406F50608F05DC08091C903E4
:104450009091CA039801285F3F4F820F931FB201CA
:1044600058DB8091CB039091CC03AC01092E000C5A
:10447000660B770BC416D506E606F70608F04DC0A6
:10448000085F1F4F8091C9039091CA03800F911F4D
:10449000A20170E060E0F0D5A7C044E050E0461B08
:1044A000570B480D591D2091C7033091C80349CFC0
:1044B000E5E0F0E0E61BF70BE00FF11F2091C703EA
:1044C0003091C80358CFE6E0F0E0E61BF70BE00FB1
:1044D000F11F2091C7033091C80364CFE7E0F0E0FB
:1044E000E61BF70BE00FF11F2091C7033091C803C3
:1044F00070CF9801261B370B8091C7039091C8039A
:10450000820F931F85CF91012E1B3F0B200F311F70
:104510008091C7039091C803A0CFD101A81BB90B0C
:10452000CD01080F191F8091C7039091C803AECF2A
:10453000BF0168507109601B710BC216D306E406F7
:10454000F50608F062C08091C9039091CA039801F2
:10455000285F3F4F820F931FDCDA8091CB0390914D
:10456000CC03B101681B790B600F711F640D751DC1
:104570008091C7039091C803CCDA8091CB039091CE
:10458000CC03AC0148505109FA01E01BF10BAC011E
:10459000092E000C660B770BC416D506E606F70647
:1045A00008F03DC08091C9039091CA039801285F2B
:1045B0003F4F820F931FAF0170E060E05DD58F83A6
:1045C0002091CB033091CC03F101E21BF30B9F014F
:1045D000200F311F240D351D50E040E0682F8091E1
:1045E000C7039091C80334D58F8361E070E0CE019A
:1045F00007968FDA182F38E0430E511C611C711C8E
:10460000840C951CA61CB71C4CCE91012E1B3F0B95
:10461000200F311F8091C7039091C8039BCF910158
:10462000281B390B200F311F8091C7039091C803BD
:10463000C0CF88169906AA06BB0668F5601B710BE9
:104640008091C9039091CA03800F911F62DA809113
:10465000CB039091CC03B101681B790B600F711FE4
:10466000640D751D8091C7039091C80352DA809143
:10467000CB039091CC03AC01092E000C660B770B99
:10468000C416D506E606F70608F4FACE9101281BF3
:10469000390BC90146CFC801861B970B2091C70370
:1046A0003091C803B201685F7F4F820F931FDECF46
:1046B0001D861C8614CECF93DF93EC01AC0160E025
:1046C00070E0CB016CDDAE0161E070E080E090E075
:1046D000DF91CF9164CDCF938091D1039091D2039C
:1046E00088D9C82F81110BC060E070E0CB010E9417
:1046F000EA0E61E070E080E090E00E94EA0E8C2F0C
:10470000CF9108950F931F9389019A01AB01BC01CA
:104710008091D1039091D203B4D91F910F91089544
:104720004F925F926F927F928F929F92AF92BF92C1
:10473000CF92DF92EF92FF920F931F93CF93DF936D
:10474000CDB7DEB763970FB6F894DEBF0FBECDBF0F
:104750006C018B015A018091D503882309F43DC077
:104760008091D503882309F442C08091D4031A8232
:104770001982882309F4BEC0F0E94F2EFFE55F2EB1
:1047800066246394712CF12CE12C970123543C4F47
:10479000AE014F5F5F4F61E070E08091D103909177
:1047A000D20347D9982E811169C089819A81E80E78
:1047B000F91EE114F10409F461C081E0481A5108BE
:1047C0006108710859F56091E0037091E1038DEE85
:1047D00090E066D91A82198251C065ED73E080912C
:1047E000D1039091D2034ED9882309F4B9CF6396AF
:1047F0000FB6F894DEBF0FBECDBFDF91CF911F91F2
:104800000F91FF90EF90DF90CF90BF90AF909F906F
:104810008F907F906F905F904F900895AAE0EA1676
:10482000F10409F061C049E050E070E060E08DEB18
:1048300093E026D46091E0037091E103882309F4AA
:1048400050C08091C50390E08617970719F6BC0108
:104850008EEE90E025D988E0EDEBF3E0DE011996CD
:1048600001900D928A95E1F78091E0039091E10328
:10487000019699279093E1038093E00381E02981D9
:104880003A81121613060CF080E09110C8C28823FA
:1048900009F4ADCF8091D403811104C019861A8622
:1048A0001B861C8689859A85AB85BC8580319105E0
:1048B000A105B10508F09BCFFC01EF59FB4D0C940D
:1048C0005C31E124A0260F27F723E5251826D12403
:1048D000D924B524F426E326F026F723F723F7237B
:1048E000A0248FEE90E075CFBAE0EB16F1040CF443
:1048F0004CCFC4CFF12CE12CE8E06E2E712C29E0D6
:1049000030E02C0F3D1F2E0D3F1DAE014F5F5F4F5E
:10491000B3016E197F098091D1039091D20389D898
:10492000982E29813A81811109C0E20EF31EE1140B
:10493000F10421F0E8E0EE16F1040CF381E0A1CFE0
:10494000D6011696ED91FC9180819181A281B3816F
:1049500089839A83AB83BC83AE014F5F5F4F64E072
:1049600070E085E190E038DB42CF8D859E8513D9DC
:104970002FEF3FEFA90161E070E0009771F0FC01BB
:10498000C080D180E280F380A801C701B6010E94F7
:104990006C13A701960170E060E08DE190E04FDBC1
:1049A00026CF4D855E859801B6018BE190E073DBE3
:1049B0001ECF4D855E852FEF3FEFB6018CE190E075
:1049C000F6CFD6011496ED91FC9100811181F8018A
:1049D00082809380A080B18070E1472E512C612CA1
:1049E000712C49825A826B827C8288E090E0A0E040
:1049F000B0E08D839E83AF83B8879E012F5E3F4FCB
:104A0000AE014F5F5F4F68E070E08091D1039091FD
:104A1000D2030E94FB1C8823D9F010E000E0C801FB
:104A200063960FB6F894DEBF0FBECDBFDF91CF9176
:104A30001F910F91FF90EF90DF90CF90BF90AF90BC
:104A40009F908F907F906F905F904F900C945C320E
:104A500089899A89089709F7D801ED90FC90B8E008
:104A6000EB0EF11CEE0CFF1CEE0CFF1CC7010E94AC
:104A7000C0318C01892B89F249825A826B827C82F7
:104A8000C7010F2C000CAA0BBB0B8D839E83AF8339
:104A9000B8879E012F5E3F4FAE014F5F5F4F68E0CA
:104AA00070E08091D1039091D2030E94FB1C811190
:104AB000B6CF89899A89089709F0B1CFD6011296A5
:104AC000ED91FC914081518162817381D8014D93B8
:104AD0005D936D937C9313974481558166817781B3
:104AE00014964D935D936D937C93179740855185F4
:104AF0006285738518964D935D936D937C931B9798
:104B000084859585A685B785F80184879587A687CE
:104B1000B787108A118A128A138A84E090E0A0E095
:104B2000B0E0848B958BA68BB78B8091C001909160
:104B3000C101B0E0A0E0808F918FA28FB38FC5013B
:104B40000B2C000CAA0BBB0B848F958FA68FB78FF5
:104B5000F401D801909690E080E08A159B055CF105
:104B60009E012F5E3F4FA801B7018091D103909124
:104B7000D2030E94FB1C811152CF89899A89E816C1
:104B8000F90609F04CCFA70170E060E0C80174D2CB
:104B90008B8B9E012F5E3F4FAE014D5E5F4F61E0FC
:104BA00070E08091D1039091D2030E94FB1C81E0C0
:104BB0008093D40334CF4191519170E060E04D93E4
:104BC0005D936D937D930196C8CF8D859E85AF854E
:104BD000B8890097A105B10521F481E08093D30342
:104BE00006CE0E94CB1D009781F481E090E0A0E00A
:104BF000B0E089839A83AB83BC83AE014F5F5F4F84
:104C000064E070E082E190E0AECEBC01C6010E949B
:104C1000430E19821A821B821C82AE014F5F5F4FC6
:104C200064E070E082E190E0D7D98823B1F2DFCD73
:104C3000D6011496ED91FC910190F081E02DE08475
:104C4000F1848FEF8983E114F10409F472C0D70174
:104C50006D907C90C280D38070E060E090E080E056
:104C60008615970594F083E190E00E94501D10E0B6
:104C700000E08111BCCD061517055CF161E070E024
:104C8000CE0101960E94891DB2CD9C0143E0220F06
:104C9000331F4A95E1F7F701A281B381A20FB31F39
:104CA0001296ED91FC911397EE0FFF1FEC0DFD1D79
:104CB0000190F081E02D16964D915C91E49F90015A
:104CC000E59F300DF49F300D1124620F731F019684
:104CD000C7CFD7011296ED91FC91C80123E0880F50
:104CE000991F2A95E1F7E80FF91FA080B180A281F2
:104CF000B381AA0FBB1FAC0DBD1D2D913C918681C8
:104D00009781289F4001299F900C389F900C112477
:104D1000B401C5010E94891D582E940150E040E065
:104D20006981C50195D18983511061CD0F5F1F4FF6
:104D3000A2CF70E060E083E190E00E94501D57CD6B
:104D400050E040E070E060E081E190E045D9811101
:104D50004ECD60E070E0CB010E94111080919F0366
:104D6000882329F0A80160E070E0CB0118DAA801DF
:104D700060E070E0CB010E94160F61E070E080E01F
:104D800090E00E94111080919F03882331F0A801C8
:104D900061E070E080E090E002DAA80161E070E09C
:104DA00080E090E00E94160F1092D5031092D40379
:104DB0001092E1031092E0038091D1039091D2030D
:104DC0000E94481D14CD81E090E09093A103809350
:104DD000A00350E040E070E060E086E190E0C3CDE9
:104DE00081E0F501808303CD8D859E850E94CB1DDA
:104DF0002FEF3FEFA90161E070E0009769F0DC015F
:104E0000CD90DD90ED90FC90C701B6010E94CC13CF
:104E1000A701960170E060E08EE190E0C0CDC8018E
:104E20000E94AC1DE4CCCF92DF92EF92FF92CF9321
:104E3000DF93EC01C12CD12C7601C701B6010E9491
:104E40001110AE01C701B601AAD9AE01C701B60162
:104E50000E94160F8091CD039091CE03009731F000
:104E60000E945C321092CE031092CD03CA94CD28DA
:104E7000CE28CF2879F58091D403F12C882351F0E6
:104E800050E040E070E060E084E190E0A5D8F82ECA
:104E90001092D4038091D503882341F01092D5035A
:104EA00081E090E09093C1018093C0018091D10393
:104EB0009091D2030E944B1D8091D1039091D20317
:104EC0000E94401D8F2DDF91CF91FF90EF90DF90DA
:104ED000CF900895C12CD12C7601C394AECFCF933F
:104EE000DF93EC01AC0160E070E0CB010E9401189F
:104EF000AE0161E070E080E090E0DF91CF910C9432
:104F0000011860E070E0CB010E946E1861E070E073
:104F100080E090E00C946E18CF92DF92EF92FF92B7
:104F20000F931F93CF93DF93EC016A017B0100E0A5
:104F300010E098010E941C1401E010E020E030E035
:104F4000B701A601CE010E941C14DF91CF911F91E1
:104F50000F91FF90EF90DF90CF90089568EE73E08F
:104F600080E090E040D590E080E0089526E040E0C9
:104F700050E16EE070E08FEE93E00DD78FEE93E09E
:104F800040D6892B21F08FEE93E055D6F7CF90E0F5
:104F900080E00895CF92DF92EF92FF920F931F93DC
:104FA000CF93DF936B017A01E901198218828FEEAA
:104FB00093E027D6892B71F18601CC24C39485E632
:104FC000D82E8091E203811111C08FEE93E033D689
:104FD00085369105B1F7C092E203F801D1928F01B5
:104FE00088819981019699838883EBCF8881998103
:104FF0008E159F0578F48FEE93E01DD68F3F9807AE
:10500000A9F3F80181938F01888199810196998391
:105010008883ECCF90E080E0DF91CF911F910F91DA
:10502000FF90EF90DF90CF9008950F931F93CF9351
:10503000DF93EA0189018FEE93E091D7F801D183E4
:10504000C08390E080E0DF91CF911F910F91089590
:10505000DC01A40FB51F420F531F9D01281B390B04
:105060002417350710F0862F0895ED91E627F0E01C
:10507000EC54FF4F6491F1CF9A01AB016FEFE8CF91
:10508000CF93FC01E60FF71FE40FF51FC081F4DF9B
:1050900091E0C81390E0892FCF9108958091E303A8
:1050A00091E0980F9093E303882349F021E030E0EA
:1050B0003093E5032093E4038093E3030895789409
:1050C0000E945A04F8948091E30381508093E30393
:1050D0000C94F019FF920F931F93CF93DF931F92BD
:1050E000CDB7DEB71092D9041092D804BDD40E9477
:1050F0003E1C0091D7011091D801F8011182108255
:1051000070E060E090E080E00E94F9190E94EF0BEF
:10511000F8947894C80182960E94F81981E090E092
:105120000E94F4191982AE014F5F5F4F61E070E099
:10513000F801828193810E949F198981882319F047
:1051400081E0F80186A30E94FE19F8940E94741C65
:10515000F80180819181892B19F481E096A1911148
:1051600080E08093D80478947894FF24F39480911D
:10517000D804811110C00E947E0C81E090E00E9452
:10518000F619F89490E080E00F90DF91CF911F9195
:105190000F91FF9008951982AE014F5F5F4F61E05C
:1051A00070E0F801828193810E94DA198981882355
:1051B00011F0F801F6A2F80180819181892B89F420
:1051C00081E096A1911101C080E08093D904909173
:1051D000D90481E0911180E08093D8040E94931C4F
:1051E000C6CF81E0F2CF5058BB27AA270ED059C2B4
:1051F00022D230F027D220F031F49F3F11F41EF478
:10520000F2C10EF4E095E7FBBFC1E92F6CD280F349
:10521000BA17620773078407950718F071F49EF5B3
:105220009BC20EF4E0950B2EBA2FA02D0B01B901F5
:1052300090010C01CA01A0011124FF27591B99F00C
:10524000593F50F4503E68F11A16F040A22F232F18
:10525000342F4427585FF3CF469537952795A79568
:10526000F0405395C9F77EF41F16BA0B620B730B0F
:10527000840BBAF09150A1F0FF0FBB1F661F771F80
:10528000881FC2F70EC0BA0F621F731F841F48F435
:10529000879577956795B795F7959E3F08F0B3CFBB
:1052A0009395880F08F09927EE0F979587950895A5
:1052B000DF93DD27B92FBF7740E85FE316161706A7
:1052C00048075B0710F4D92F52D29F938F937F9397
:1052D0006F93FFD2E8E6F0E089D1E3D12F913F91BF
:1052E0004F915F9157D2DD2349F09058A2EA2AED01
:1052F0003FE049EC5FE3D0785D2787DFDF91D1C1E4
:1053000014D280F09F3740F491110EF426C260E071
:1053100070E080E89FE3089526F01B16611D711D63
:10532000811D38C152C10CD108F481E0089592D199
:10533000E395C8C10CD0B5C185D140F07CD130F027
:1053400021F45F3F19F020C1511107C24CC1CBD1EC
:1053500098F39923C9F35523B1F3951B550BBB273C
:10536000AA2762177307840738F09F5F5F4F220FE9
:10537000331F441FAA1FA9F333D00E2E3AF0E0E8E2
:1053800030D091505040E695001CCAF729D0FE2F2E
:1053900027D0660F771F881FBB1F261737074807C0
:1053A000AB07B0E809F0BB0B802DBF01FF27935876
:1053B0005F4F2AF09E3F510568F0E6C0CEC15F3FC7
:1053C000ECF3983EDCF3869577956795B795F7955E
:1053D0009F5FC9F7880F911D9695879597F9089556
:1053E000E1E0660F771F881FBB1F621773078407F2
:1053F000BA0720F0621B730B840BBA0BEE1F88F701
:10540000E0950895E89409C097FB3EF49095809547
:10541000709561957F4F8F4F9F4F9923A9F0F92F7A
:1054200096E9BB279395F695879577956795B795F8
:10543000F111F8CFFAF4BB0F11F460FF1BC06F5FDE
:105440007F4F8F4F9F4F16C0882311F096E911C0F0
:10545000772321F09EE8872F762F05C0662371F011
:1054600096E8862F70E060E02AF09A95660F771F25
:10547000881FDAF7880F9695879597F9089555D183
:1054800080F09F3740F491110EF067C160E070E04A
:1054900080E89FEB089526F41B16611D711D811D88
:1054A00079C093C0C8D018F011F0CCD038F49BC0AC
:1054B00054C1E92F18D1B0F35523C9F3E7FB6217A4
:1054C000730784079507A8F199F3E92FFF2788232D
:1054D0002AF03197660F771F881FDAF7952F552727
:1054E000442332F091505040220F331F441FD2F713
:1054F000BB27E91BF50B621B730B840BB109C1F2CF
:1055000022F4620F731F841FB11D31972AF0660FBA
:10551000771F881FBB1FEFCF915050405AF041F0CA
:10552000882332F0660F771F881F91505040C1F7D3
:1055300093954BC08695779567959F5FD9F7F8CF80
:10554000990F0008550FAA0BE0E8FEEF1616170694
:10555000E807F907C0F012161306E407F50798F0FC
:10556000621B730B840B950B39F40A2661F0232B15
:10557000242B252B21F408950A2609F4A140A69591
:105580008FEF811D811D089597F99F6780E870E076
:1055900060E00895882371F4772321F09850872BD9
:1055A000762F07C0662311F499270DC09051862BE2
:1055B00070E060E02AF09A95660F771F881FDAF78F
:1055C000880F9695879597F908959F3F31F09150F0
:1055D00020F4879577956795B795880F911D9695D7
:1055E000879597F908959FEF80EC0895DF93CF9307
:1055F0001F930F93FF92EF92DF927B018C016894CF
:1056000005C0DA2EEF01C6D0FE01E894A5912591E0
:10561000359145915591AEF3EF01F7DDFE0197010C
:10562000A801DA9479F7DF90EF90FF900F911F9126
:10563000CF91DF91089500240A94161617061806D4
:105640000906089500240A94121613061406050686
:105650000895C9CF50D0E8F3E894E0E0BB279F5706
:10566000F0F02AED3FE049EC06C0EE0FBB0F661FDD
:10567000771F881F28F0B23A62077307840728F063
:10568000B25A620B730B840BE3959A9572F78038CC
:1056900030F49A95BB0F661F771F881FD2F790488A
:1056A00096CF092E0394000C11F4882352F0BB0FFF
:1056B00040F4BF2B11F460FF04C06F5F7F4F8F4F2A
:1056C0009F4F0895EF93E0FF06C0A2EA2AED3FE066
:1056D00049EC5FEB9ADDE5DF0F90039401FC9058F5
:1056E000E5E9F0E000C157FD9058440F551F59F00F
:1056F0005F3F71F04795880F97FB991F61F09F3FBF
:1057000079F087950895121613061406551FF2CFE7
:105710004695F1DF08C0161617061806991FF1CF37
:1057200086957105610508940895E5DFA0F0BEE750
:10573000B91788F4BB279F3860F41616B11D672F80
:10574000782F8827985FF7CF869577956795B11D55
:1057500093959639C8F30895E894BB276627772771
:10576000CB0197F90895ECDE08F48FEF08959B01C3
:10577000AC0160E070E080E89FE3DCCD0BD091CF1E
:105780005ADF28F05FDF18F0952309F0FDCE2BCF0C
:105790001124E3CFA8DFA0F3959FD1F3950F50E03C
:1057A000551F629FF001729FBB27F00DB11D639FD3
:1057B000AA27F00DB11DAA1F649F6627B00DA11D79
:1057C000661F829F2227B00DA11D621F739FB00D1F
:1057D000A11D621F839FA00D611D221F749F33278F
:1057E000A00D611D231F849F600D211D822F762F28
:1057F0006A2F11249F5750408AF0E1F088234AF025
:10580000EE0FFF1FBB1F661F771F881F9150504070
:10581000A9F79E3F510570F0B7CE9FCF5F3FECF3E5
:10582000983EDCF3869577956795B795F795E7955C
:105830009F5FC1F7FE2B880F911D9695879597F96D
:1058400008959F9307DF0F9007FCEE5F3BCF11F4A5
:105850000EF4C9CEBACE4FDFD0F39923D9F3CEF3ED
:105860009F57550B87FF38D00024A0E640EA9001EF
:1058700080585695979528F4805C660F771F881F8F
:1058800020F026173707480730F4621B730B840B90
:10589000202931294A2BA6951794079420253125D4
:1058A0004A2758F7660F771F881F20F026173707FB
:1058B000480730F4620B730B840B200D311D411D22
:1058C000A09581F7B901842F9158880F96958795F7
:1058D00008959B01AC0152CF91505040660F771F45
:1058E000881FD2F708959F938F937F936F93FF93B1
:1058F000EF939B01AC0142DFEF91FF9177DE2F9197
:105900003F914F915F913ACF1F920F920FB60F9236
:1059100011242F933F938F939F93AF93BF938091C5
:10592000E7039091E803A091E903B091EA03309175
:10593000E60323E0230F2D3758F50196A11DB11D75
:105940002093E6038093E7039093E803A093E90391
:10595000B093EA038091EB039091EC03A091ED03E7
:10596000B091EE030196A11DB11D8093EB039093BE
:10597000EC03A093ED03B093EE03BF91AF919F9121
:105980008F913F912F910F900FBE0F901F90189500
:1059900026E8230F0296A11DB11DD2CF3FB7F89480
:1059A0008091EB039091EC03A091ED03B091EE0395
:1059B00026B5A89B05C02F3F19F00196A11DB11D6A
:1059C0003FBFBA2FA92F982F8827BC01CD01620FA6
:1059D000711D811D911D42E0660F771F881F991F61
:1059E0004A95D1F708958F929F92AF92BF92CF922E
:1059F000DF92EF92FF926B017C01D0DF4B015C01E3
:105A0000C114D104E104F104D9F020D4C7DF68192E
:105A100079098A099B09683E73408105910580F3E5
:105A200021E0C21AD108E108F10888EE880E83E06F
:105A3000981EA11CB11CC114D104E104F10431F77A
:105A4000FF90EF90DF90CF90BF90AF909F908F909E
:105A500008958230910538F0880F991F880F991F9B
:105A600005970197F1F70895789484B5826084BD15
:105A700084B5816084BD85B5826085BD85B5816052
:105A800085BDEEE6F0E0808181608083E1E8F0E0B2
:105A90001082808182608083808181608083E0E8E1
:105AA000F0E0808181608083E1EBF0E080818460C0
:105AB0008083E0EBF0E0808181608083EAE7F0E0C2
:105AC0008081846080838081826080838081816026
:105AD00080838081806880831092C1000895833024
