:100000007BC10000AAC10000A8C10000A6C1000079
:10001000A4C10000A2C10000A0C100009EC1000058
:100020009CC100009AC1000098C1000096C1000068
:1000300094C1000092C1000090C100008EC1000078
:100040008CC100008AC1000088C1000086C1000088
:1000500084C1000082C1000080C100000C94482EC1
:100060007CC100000C94D8300C940E3176C1000095
:1000700074C1000072C1000070C100006EC10000B8
:100080006CC100006AC1000068C1000066C10000C8
:100090000C9464310C949A3160C100005EC1000080
:1000A0005CC100005AC1000058C1000056C10000E8
:1000B00054C1000052C1000050C100004EC10000F8
:1000C0004CC100004AC100000C940A1E0C94F0318F
:1000D0000C94263242C100000C947C320C94B23253
:1000E0003CC10000084AD73B3BCE016E84BCBFFD3B
:1000F000C12F3D6C74319ABD56833DDA3D00C77FF8
:1001000011BED9E4BB4C3E916BAAAABE0000008090
:100110003F05A84CCDB2D44EB93836A9020C50B91F
:10012000918688083CA6AAAA2ABE000000803F004B
:10013000001D3A2774694E53E8F5D2CF9C81A6BBC7
:10014000CDD0F7EAB9A4839E25381F02514C6B76B7
:10015000879ABDA0F3EEC9D46F7255481B06213CA7
:100160004A57706D3E230419A2BF9885D6CBECF197
:10017000130E2934677A5D40FBE6C1DC8F92B5A887
:10018000DEC3E4F9AAB7908D362B0C11425F786577
:100190009489AEB3E0FDDAC77C61465B0815322F67
:1001A0005944637E2D30170AB1AC8B96C5D8FFE257
:1001B000263B1C01524F6875CED3F4E9BAA7809D47
:1001C000EBF6D1CC9F82A5B8031E3924776A4D5037
:1001D000A1BC9B86D5C8EFF24954736E3D20071A27
:1001E0006C71564B1805223F8499BEA3F0EDCAD717
:1001F00035280F12415C7B66DDC0E7FAA9B4938E07
:10020000F8E5C2DF8C91B6AB100D2A3764795E43F6
:10021000B2AF8895C6DBFCE15A47607D2E331409E6
:100220007F6245580B16312C978AADB0E3FED9C4D6
:1002300001021020200808102040102040800201F8
:1002400002010804020101020408102040808040DD
:1002500020100804020180040201804020100804DC
:10026000020108040201010204081020408001027A
:100270000408102040800505050507050808080842
:10028000020202020A0A080804040404010101012E
:100290000101010103030303030303030407070729
:1002A0000C0C0C0C0C0C0C0C0202020206060606CE
:1002B000060606060B0B0B0B0B0B0B0B00002200AC
:1002C000250028002B002E00310034000201000020
:1002D000050108010B0100002100240027002A006D
:1002E0002D003000330001010000040107010A0164
:1002F0003731C3314F32DB3211241FBECFEFD1E291
:10030000DEBFCDBF00E00CBF13E0A0E0B2E0E2EC46
:10031000F9E600E00BBF02C007900D92AA3CB107BE
:10032000D9F728E0AAECB3E001C01D92AE30B207C5
:10033000E1F711E0CCE7D1E000E006C02197010928
:10034000802FFE010E946B33C837D10780E0080779
:10035000A9F70E942E2A0C94DF3452CECF93DF935C
:10036000882349F0EB0181500E944F2F99838883A5
:10037000DF91CF910895FB0111821082F9CF0F9385
:100380001F938B019C0183E0369527951795079560
:100390008A95D1F706531C4F462F477021E030E075
:1003A000F90102C0EE0FFF1F4A95E2F7AF01F80115
:1003B00020812423CB010196211102C090E080E02E
:1003C0001F910F9108950F931F938B019C0183E060
:1003D00036952795179507958A95D1F7677081E02F
:1003E00090E001C0880F6A95EAF7F801E653FC4FE8
:1003F0002081452B31F48095822380831F910F91BA
:100400000895822BFACFCF92DF92EF92FF92CF9393
:10041000DF936B017C0160E086E3C816D104E10440
:10042000F10490F486E38C0D0E94722FE601219670
:10043000AE01C701B601C7DFCE01DF91CF91FF90BA
:10044000EF90DF90CF9008958C2DEECF882341F070
:100450008150682F70E090E080E050E040E0B3CF42
:1004600008954F925F926F927F928F929F92AF9278
:10047000BF92CF92DF92EF92FF920F931F93CF9391
:10048000DF93CDB7DEB768970FB6F894DEBF0FBE27
:10049000CDBF69837A838B839C8329013A01E986E6
:1004A000FA860B871C87AD8ABE8ACF8AD88E0CA9A4
:1004B0001DA92DEC3CEC4CE45EE368A979A98AA95E
:1004C0009BA90E94572B87FF16C02DEC3CEC4CE4F7
:1004D0005FE368A979A98AA99BA90E94772D1816BC
:1004E00054F480E090E0A8E4B3E4F80180839183C1
:1004F000A283B3838AC029853A854B855C8569814F
:100500007A818B819C810E94B82A4B015C0120E09A
:1005100030E0A9010E94572B882309F4E1C029810A
:100520003A814B815C81CA01B9010E94822D6D83A1
:100530007E838F839887A3019201C301B2010E9439
:10054000822D6D877E878F87988B9B01AC016D8193
:100550007E818F8198850E94B82A6B017C01298554
:100560003A854B855C85CA01B9010E94822D9B01A9
:10057000AC01C701B6010E94B72A0E94EF2D6B01A2
:100580007C0129853A854B855C8569817A818B81DF
:100590009C810E94822D698B7A8B8B8B9C8BA7010F
:1005A0009601C301B20190580E94822D2D813E8197
:1005B0004F8158850E94B82A29893A894B895C89DC
:1005C0000E94B82A2D853E854F8558890E94B82AF9
:1005D00020E030E0A9010E94572BA7019601882353
:1005E00009F45AC0C301B2010E94B72AA5019401BF
:1005F0000E945E2B0E941C2B9B01AC010E94B82A1A
:10060000F80160837183828393832BED3FE049E49B
:1006100050E46CA57DA58EA59FA50E94822D20E0AB
:1006200030E044E353E40E945E2B9B01AC01F801EF
:1006300060817181828193810E94B72A2D893E89D0
:100640004F89588D0E945E2B20E030E044E353E454
:100650000E94822D2BED3FE049E450E40E945E2B86
:10066000F801608371838283938368960FB6F89450
:10067000DEBF0FBECDBFDF91CF911F910F91FF90D5
:10068000EF90DF90CF90BF90AF909F908F907F9032
:100690006F905F904F900895C301B2010E94822D28
:1006A0002D813E814F8158850E94B82A29893A8937
:1006B0004B895C890E94B82A2D853E854F855889D3
:1006C0000E94B82A20E030E0A9010E94572B88231D
:1006D00039F0A7019601C301B2010E94B82A86CF62
:1006E00020E030E0A901C301B2010E94572B88230A
:1006F000D9F129813A814B815C81CA01B9010E94FB
:10070000822D6B017C01A3019201C301B2010E9401
:10071000822D9B01AC01C701B6010E94B82A20E0DE
:1007200030E0A9010E94572B8823F1F029853A85F2
:100730004B855C8569817A818B819C8190580E9470
:10074000572B811111C0A301920169817A818B819C
:100750009C810E945E2B0E941C2B20E030E040E038
:1007600050EC0E94822D4CCF69857A858B859C85C3
:10077000905829813A814B815C810E94572B8111CD
:1007800005C08BED9FE0A9E4B0E4AFCE80E090E03F
:10079000AAE7B4E4AACE4F925F926F927F928F92B3
:1007A0009F92AF92BF92CF92DF92EF92FF92CF9340
:1007B000DF9300D01F92CDB7DEB74B015C0169011A
:1007C0007A010E94C3108823E9F08090FC07909082
:1007D000FD07A090FE07B090FF07C501B4010F9080
:1007E0000F900F900F90DF91CF91FF90EF90DF90DF
:1007F000CF90BF90AF909F908F907F906F905F90C1
:100800004F900895C701B6010E94C3108111DDCF3A
:10081000C501B4010E947E108111D7CFC701B60176
:100820000E947E108111D9CF20E030E0A901C701DC
:10083000B6010E94572B87FF4CC0C701B6010E942A
:10084000442B2B013C01A3019201C701B6010E9478
:10085000572B882309F44CC0A7019601C501B401A8
:100860000E945E2B2B013C01E89477F820E030E0F9
:1008700040E05FE3C301B2010E94B82A0E94032C4A
:100880009B01AC01C301B2010E94B72A9B01AC01DC
:100890005F7729833A834B835C8320E030E040E03C
:1008A00054E3C301B2010E94822D9B01AC01698116
:1008B0007A818B819C810E94772D1816CCF020E0E4
:1008C00030E0A901C501B4010E94822D4B015C01F9
:1008D00084CFC701B6010E94032C2B013C0120E00C
:1008E00030E0A901C701B6010E94572B8111ABCF9F
:1008F000A7019601C501B4010F900F900F900F90C2
:10090000DF91CF91FF90EF90DF90CF90BF90AF90AD
:100910009F908F907F906F905F904F900C941D2CC4
:100920008F929F92AF92BF92CF92DF92EF92FF92FF
:10093000CF93DF93EC0168E471E68CE391E40E94CD
:100940007E108823B9F08091FC079091FD07A0915B
:10095000FE07B091FF0788839983AA83BB83DF9149
:10096000CF91FF90EF90DF90CF90BF90AF909F908E
:100970008F900895688179818A819B810E94C3103C
:100980008111E1CF688179818A819B8120E030E00B
:1009900044EB53E400DF6B017C01C092E007D0928E
:1009A000E107E092E207F092E3079F776093E407A4
:1009B0007093E5078093E6079093E70720E030E027
:1009C00044E353E40E94772D18165CF520E030E0F4
:1009D000A901C701B6010E94772D20E030E044EB69
:1009E00053E418160CF046C0C701B6010E94B72A9E
:1009F0006093E0077093E1078093E2079093E30729
:100A00008091E0079091E107A091E207B091E307A0
:100A1000BF778093E4079093E507A093E607B09330
:100A2000E7078090E4079090E507A090E607B09074
:100A3000E707C090E007D090E107E090E207F09070
:100A4000E30720E030E044E352E4C501B4010E9432
:100A5000572B1816A4F025E33AEF4EE85CE3C701E4
:100A6000B6010E94822D0E945B2B688379838A8362
:100A70009B8375CFC701B6010E94B82AB9CF20E089
:100A800030E047E053E4C501B4010E94572B20E059
:100A900030E0A9011816ACF1C701B6010E94772D0C
:100AA00020E030E044EB52E41816B4F4C701B6017C
:100AB0000E94B72A25E33AEF4EE85CE30E94822DBC
:100AC0006093E0077093E1078093E2079093E30758
:100AD0000E94E52D9058C9CFC701B6010E94B82ADF
:100AE00025E33AEF4EE85CE30E94822D6093E00735
:100AF0007093E1078093E2079093E3070E94E52D4E
:100B0000B4CFC701B6010E94772D20E030E044E366
:100B100053E41816ECF4C701B6010E94B72A25E386
:100B20003AEF4EE85CE30E94822D6093E0077093F9
:100B3000E1078093E2079093E3076091E0077091EB
:100B4000E1078091E2079091E3070E945B2BC2CFFF
:100B5000C701B6010E94B82AE2CF2F923F924F926E
:100B60005F926F927F928F929F92AF92BF92CF923D
:100B7000DF92EF92FF920F931F93CF93DF93CDB746
:100B8000DEB769970FB6F894DEBF0FBECDBFC09039
:100B90007A02D0907B02E0907C02F0907D02A70167
:100BA00096016091AA077091AB078091AC07909174
:100BB000AD070E94572B882341F0C092AA07D0921C
:100BC000AB07E092AC07F092AD0768E370E080E01D
:100BD00090E0D5DB9093A9078093A80743E050E00D
:100BE000BE01675F7F4FBADBC0908A02D0908B0254
:100BF000E0908C02F0908D02A701960160917A0737
:100C000070917B0780917C0790917D070E94572B04
:100C1000882341F0C0927A07D0927B07E0927C074C
:100C2000F0927D0766E370E080E090E0A8DB9093AF
:100C300079078093780743E050E0BE016D5F7F4FF6
:100C40008DDBC0908202D0908302E0908402F0900D
:100C50008502A70196016091920770919307809198
:100C60009407909195070E94572B882341F0C092DA
:100C70009207D0929307E0929407F092950767E36A
:100C800070E080E090E07BDB909391078093900789
:100C900043E050E0BE01695F7F4F60DBC0908E0291
:100CA000D0908F02E0909002F0909102A7019601FF
:100CB00060916E0770916F07809170079091710736
:100CC0000E94572B882341F0C0926E07D0926F0785
:100CD000E0927007F092710769E370E080E090E0C5
:100CE0004EDB90936D0780936C0743E050E0BE01AC
:100CF0006F5F7F4F33DBC0907E02D0907F02E09029
:100D00008002F0908102A701960160919E07709188
:100D10009F078091A0079091A1070E94572B8823DD
:100D200041F0C0929E07D0929F07E092A007F092F8
:100D3000A1076AE370E080E090E021DB90939D07DB
:100D400080939C0743E050E0BE016B5F7F4F06DB62
:100D5000C0908602D0908702E0908802F0908902CD
:100D6000A701960160918607709187078091880797
:100D7000909189070E94572B882341F0C0928607E3
:100D8000D0928707E0928807F09289076BE370E0C2
:100D900080E090E0F4DA909385078093840743E045
:100DA00050E0BE01655F7F4FD9DAEB80FC80C70160
:100DB000B0E0A0E08D879E87AF87B88BB701CD01EB
:100DC0000E94C62B2DEB37E346E855E30E94B82A74
:100DD0002B013C010B851C85C801B0E0A0E0898B8C
:100DE0009A8BAB8BBC8BB801CD010E94C62B2DEB2F
:100DF00037E346E855E30E94B82A4B015C01AC0199
:100E00009B01C301B2010E945E2B20E030E040EC68
:100E10005FE30E94572B87FF6CC0A3019201C501BD
:100E2000B4010E945E2B20E030E040EC5FE30E94C2
:100E3000572B87FF5EC08F819885409708F459C073
:100E40008D819E81409708F454C08DEC9CECA4EEFB
:100E5000BFE38093C4079093C507A093C607B093E0
:100E6000C70788E491E6ACE3B1E48093C8079093A8
:100E7000C907A093CA07B093CB074FE852EC69ECBF
:100E80007FE34093CC075093CD076093CE077093D8
:100E9000CF078093D0079093D107A093D207B09348
:100EA000D30780ED97E03CDD2FE832EC49EC5FE3BF
:100EB0006091D0077091D1078091D2079091D307AC
:100EC0000E94B82A27E830EF48E450E40E945E2BE5
:100ED0006093BC077093BD078093BE079093BF07D4
:100EE0001092C0071092C1071092C2071092C30758
:100EF00080C00E151F0508F07AC1AF80B884AE140B
:100F0000BF0408F02AC18D809E80A016B10620F48F
:100F10008016910608F441C0B50190E080E00E947F
:100F2000C62B6B017C01B40190E080E00E94C62BCF
:100F30002B013C012DEB37E346E855E30E94B82A2C
:100F40009B01AC01C701B6010E945E2B20E030E09E
:100F500040E250E40E94572B87FFFFC02DEB37E3A0
:100F600046E855E3C701B6010E94B82A9B01AC01CF
:100F7000C301B2010E945E2B20E030E040E250E469
:100F80000E94572B87FFE9C09AE0A916B10428F008
:100F9000AAE08A16910408F0E0C080E090E0A0E8A2
:100FA000BFE38093C4079093C507A093C607B0938F
:100FB000C7071092C8071092C9071092CA0710926B
:100FC000CB071092CC071092CD071092CE0710924B
:100FD000CF071092BC071092BD071092BE07109267
:100FE000BF078093C0079093C107A093C207B09337
:100FF000C30709851A854801B12CA12CC501B80188
:101000000E94C62B6D877E878F87988B29803A80B8
:101010002101712C612CC301B1010E94C62B698B87
:101020007A8B8B8B9C8B2DEB37E346E855E36D85F4
:101030007E858F8598890E94B82A6B017C012DEBF3
:1010400037E346E855E369897A898B899C890E9450
:10105000B82A9B01AC01C701B6010E945E2B20E0BB
:1010600030E040E050E40E94572B87FFD9C16F81E8
:10107000788590E080E00E94C62B2DEB37E346E8B0
:1010800055E30E94B82A6B017C016D817E8190E05E
:1010900080E00E94C62B2DEB37E346E855E30E9423
:1010A000B82A9B01AC01C701B6010E945E2B20E06B
:1010B00030E040E050E40E94572B87FFB1C18DEC37
:1010C0009CECA4EEBFE38093D0079093D107A0934C
:1010D000D207B093D30788E491E6ACE3B1E4809300
:1010E000D4079093D507A093D607B093D7074FE8BE
:1010F00052EC69EC7FE34093D8075093D907609393
:10110000DA077093DB078093DC079093DD07A093E9
:10111000DE07B093DF078CED97E002DC2FE832ECBE
:1011200049EC5FE36091DC077091DD078091DE0799
:101130009091DF070E94B82A27E830EF48E450E496
:101140000E945E2B6093DC077093DD078093DE07BF
:101150009093DF07312C212CB4C18FE892ECA7E1EA
:10116000B0E48093C4079093C507A093C607B093DB
:10117000C7078BE296EFA4E3B0E48093C80790938F
:10118000C907A093CA07B093CB078FEE99ECA3E6EB
:10119000BFE38093CC079093CD07A093CE07B09385
:1011A000CF076501F12CE12CC701B5010E94C62BC8
:1011B0004B015C016D857E858F8598896C0D7D1D49
:1011C0008E1D9F1D0E94C82B9B01AC01C501B4015F
:1011D0000E945E2B6093BC077093BD078093BE078F
:1011E0009093BF0780E090E0A0E8BFE3FACEE0165E
:1011F000F10608F0BCC0CD80DE80C016D10608F034
:1012000071C00F8118850E151F0520F4CE14DF0460
:1012100008F43FC0B80190E080E00E94C62B2B018B
:101220003C01B60190E080E00E94C62B4B015C01BE
:101230002DEB37E346E855E30E94B82A9B01AC0149
:10124000C301B2010E945E2B20E030E040E250E496
:101250000E94572B87FF46C02DEB37E346E855E346
:10126000C301B2010E94B82A9B01AC01C501B401BF
:101270000E945E2B20E030E040E250E40E94572BB9
:1012800087FF30C00F30110520F0BFE0CB16D1042E
:1012900048F580E090E0A0E8BFE38093C407909316
:1012A000C507A093C607B093C7071092C80710924E
:1012B000C9071092CA071092CB071092CC07109260
:1012C000CD071092CE071092CF071092BC07109254
:1012D000BD071092BE071092BF0780E090E0A0E823
:1012E000BFEB7FCE88E599E3A4E1B0E48093C40727
:1012F0009093C507A093C607B093C7078FE892E401
:10130000ABEAB1EC8093C8079093C907A093CA07D2
:10131000B093CB0785E69AEAACE5BFE38093CC07B0
:101320009093CD07A093CE07B093CF07F12CE12C7B
:10133000C701B6010E94C62B4B015C0169897A89FD
:101340008B899C896C0D7D1D8E1D9F1D0E94C82B55
:101350009B01AC01C501B4010E945E2B6093BC07E8
:101360007093BD078093BE079093BF07B6CF80E10F
:10137000E816F10480F58F819885069760F58D81D8
:101380009E81069740F50031110528F580E090E038
:10139000A0E8BFE38093C4079093C507A093C60756
:1013A000B093C7071092C8071092C9071092CA07D6
:1013B0001092CB071092CC071092CD071092CE0757
:1013C0001092CF078093BC079093BD07A093BE07F0
:1013D000B093BF0706CE80E090E0A0E8BFE3809323
:1013E000C4079093C507A093C607B093C707109290
:1013F000C8071092C9071092CA071092CB07109223
:10140000CC071092CD071092CE071092CF07809391
:10141000BC079093BD07A093BE07B093BF0760CDF4
:10142000D501C4010596A11DB11D84159505A6051C
:10143000B7050CF04AC3CD80DE80C016D106D0F0CF
:10144000F12CE12CC701B6010E94C62B4B015C01B7
:101450002D853E854F8558890E945E2B20E030E027
:1014600040E250E40E94572B87FFF4C20A30110576
:1014700008F0F0C280E090E0A0E8BFE38093D007DE
:101480009093D107A093D207B093D3071092D407BB
:101490001092D5071092D6071092D7071092D8074E
:1014A0001092D9071092DA071092DB071092DC072E
:1014B0001092DD071092DE071092DF07222423949A
:1014C000312CB091BC07BD8B8091BD07898F0091F5
:1014D000BE071091BF07A090C407B090C507C09089
:1014E000C607D090C7074090920250909302609038
:1014F0009402709095022091AA023091AB02409123
:10150000AC025091AD026091A6027091A702809149
:10151000A8029091A9020E945E2BA30192010E9451
:10152000822DA60195010E94822D0E94E52D6D87D6
:101530007E878F87988B20919A0230919B024091F1
:101540009C0250919D026091960270919702809149
:101550009802909199020E945E2BA30192010E9431
:10156000822DA60195010E94822D0E945B2B698B22
:101570007A8B8B8B9C8B2091B2023091B30240917D
:10158000B4025091B502FD88E98C902E812E6F2D0A
:101590007E2D802F912F0E94822D9B01AC016091A6
:1015A000AE027091AF028091B0029091B1020E94A0
:1015B000B72A2091CC073091CD074091CE075091AA
:1015C000CF070E94822D6D8B7E8B8F8B988F209101
:1015D000A2023091A3024091A4025091A502D7012A
:1015E000F4016B2F7A2F8F2F9E2F0E94822D2D8535
:1015F0003E854F8558890E94822D2B013C01209108
:101600009E0230919F024091A0025091A102D70109
:10161000F4016B2F7A2F8F2F9E2F0E94B72A6D8790
:101620007E878F87988B29893A894B895C89D70176
:10163000F4016B2F7A2F8F2F9E2F0E94822D9B01FA
:10164000AC016D857E858F8598890E94B82A2CEE25
:1016500037E03F932F931F930F93EF92FF922091C8
:10166000CB072F932091CA072F932091C9072F935F
:101670002091C8072F93ED88FE880F89188DA3014C
:1016800092010E9431022091C0073091C107409120
:10169000C2075091C3076091EC077091ED078091EC
:1016A000EE079091EF070E94822D6093B40770932C
:1016B000B5078093B6079093B7079091DC079D8B91
:1016C000A091DD07A98F0091DE071091DF07A090A0
:1016D000D007B090D107C090D207D090D3074090E8
:1016E000B6025090B7026090B8027090B902209193
:1016F000CE023091CF024091D0025091D102609140
:10170000CA027091CB028091CC029091CD020E94CE
:101710005E2BA30192010E94822DA60195010E94D9
:10172000822D0E94E52D6D877E878F87988B209173
:10173000BE023091BF024091C0025091C10260913F
:10174000BA027091BB028091BC029091BD020E94CE
:101750005E2BA30192010E94822DA60195010E9499
:10176000822D0E945B2B698B7A8B8B8B9C8B2091BB
:10177000D6023091D7024091D8025091D902FD880B
:10178000E98C902E812E6F2D7E2D802F912F0E941F
:10179000822D9B01AC016091D2027091D3028091A5
:1017A000D4029091D5020E94B72A2091D807309197
:1017B000D9074091DA075091DB070E94822D6D8B8B
:1017C0007E8B8F8B988F2091C6023091C7024091FB
:1017D000C8025091C902D701F4016B2F7A2F8F2FC5
:1017E0009E2F0E94822D2D853E854F8558890E940F
:1017F000822D2B013C012091C2023091C302409105
:10180000C4025091C502D701F4016B2F7A2F8F2F9C
:101810009E2F0E94B72A6D877E878F87988B298994
:101820003A894B895C89D701F4016B2F7A2F8F2F6E
:101830009E2F0E94822D9B01AC016D857E858F8538
:1018400098890E94B82A28EE37E03F932F931F9380
:101850000F93EF92FF922091D7072F932091D607F5
:101860002F932091D5072F932091D4072F93ED88A4
:10187000FE880F89188DA30192010E943102B101E7
:10188000330C880B990B0E94C82B9B01AC01609113
:10189000E8077091E9078091EA079091EB070E94B1
:1018A000822D6093B8077093B9078093BA0790931D
:1018B000BB0781E090E00E94941D40911D0450916F
:1018C0001E0460911F047091200490E080E00E944B
:1018D000901D80902D0490902E04A0902F04B09025
:1018E00030040FB6F894DEBF0FBECDBF20E030E06D
:1018F00040E85FEBC501B4010E94572B882331F10A
:10190000C0901D04D0901E04E0901F04F0902004AD
:10191000A7019601C501B4010E94B72A4B015C01E1
:1019200020E030E040E054E3C701B6010E94822D80
:101930009B01AC01C501B4010E94772D181634F04B
:101940008FED92E090930804809307048091310416
:10195000882331F08FED92E0909308048093070480
:10196000C0902104D0902204E0902304F09024043D
:101970009FEFC91AD90AE90AF90AC0922104D09244
:101980002204E0922304F0922404C114D104E1045F
:10199000F10499F48091250490912604A0912704E4
:1019A000B09128040196A11DB11D80932504909348
:1019B0002604A0932704B0932804809029049090D3
:1019C0002A04A0902B04B0902C04609125047091FF
:1019D000260480912704909128040E94C62BA5011B
:1019E00094010E94822D20E030E040E85FE40E94F4
:1019F000822D2B013C01C701B6010E94C62BA50117
:101A000094010E94822D9B01AC01C301B2010E948E
:101A1000B82A60931D0470931E0480931F04909352
:101A2000200469960FB6F894DEBF0FBECDBFDF91DC
:101A3000CF911F910F91FF90EF90DF90CF90BF90CB
:101A4000AF909F908F907F906F905F904F903F905E
:101A50002F9008958DEC9CECA4EEBFE38093D0070B
:101A60009093D107A093D207B093D30788E491E66F
:101A7000ACE3B1E48093D4079093D507A093D60745
:101A8000B093D7078FE892ECA9ECBFE38093D80717
:101A90009093D907A093DA07B093DB07C701B6018B
:101AA000640D751D861D971D0E94C82B9B01AC01FE
:101AB000C501B4010E945E2B6093DC077093DD07C3
:101AC0008093DE079093DF07F9CC7301620195E004
:101AD000C90ED11CE11CF11CC814D904EA04FB0492
:101AE0000CF0EDCACF80D884C214D304D0F0F12C0E
:101AF000E12CC701B6010E94C62B2B013C012989AC
:101B00003A894B895C890E945E2B20E030E040E2FC
:101B100050E40E94572B87FF2CC0AAE02A163104FC
:101B200040F580E090E0A0E8BFE38093D007909379
:101B3000D107A093D207B093D3071092D407109285
:101B4000D5071092D6071092D7071092D807109297
:101B5000D9071092DA071092DB071092DC07109277
:101B6000DD071092DE071092DF0722242A94322C20
:101B7000A8CC8DEC9CECA4EEBFE38093D0079093AF
:101B8000D107A093D207B093D30788E491E6ACE3E2
:101B9000B1E48093D4079093D507A093D607B09370
:101BA000D7078FE892ECA9ECBFE38093D807909316
:101BB000D907A093DA07B093DB07C701B601680D18
:101BC000791D8A1D9B1D0E94C82B9B01AC01C3017E
:101BD000B2010E945E2B6093DC077093DD07809357
:101BE000DE079093DF07C1CFAF92BF92CF92DF9213
:101BF000EF92FF921F93CF93DF9384E090E047D260
:101C0000A7E0B4E08BE2ED0119928A95E9F740E094
:101C100050E060E87FEB96964D935D936D937C93D7
:101C200099974DEC5CEC6CEC7DE392964D935D9353
:101C30006D937C93959740E157E065E67AEB1496B7
:101C40004D935D936D937C9317974AE45BED60E24F
:101C500075E518964D935D936D937C931B9741E8C2
:101C60005BED6CE173EC1C964D935D936D937C93EF
:101C70001F9740ED5CE262E278E250964D935D93EF
:101C80006D937C935397CBEFD3E01396DC93CE9375
:101C90001297E7EEF3E0F983E88383EF92E0918314
:101CA00080839383828395838483978386839187BC
:101CB0008087938782879587848797878687918B8C
:101CC000808B938B828B8BE194E09D838C838BE064
:101CD00094E09B838A838DE194E09F838E83E4EB81
:101CE000F7E08CE3EF0119928A95E9F7C6E6D7E0B1
:101CF0008EE4FE0111928A95E9F72DED33E08AE03A
:101D0000F90111928A95E9F7E3EDF3E05596FC931A
:101D1000EE9354978FE090E0918380838CE592E07E
:101D2000938382838EE392E09583848382E192E0C1
:101D30009783868386E092E09187808711E01093F5
:101D4000B3078AE7A82E82E0B82EF5018081918141
:101D5000A281B3818093AA079093AB07A093AC07AD
:101D6000B093AD07C12CD12C7601C394C092A307C8
:101D7000D092A407E092A507F092A60768E370E06E
:101D800080E090E00E9403029093A9078093A80747
:101D90001093A7071C861093AF07F50180899189DE
:101DA000A289B3898C8B9D8BAE8BBF8B198ACD8614
:101DB000DE86EF86F88A66E370E080E090E00E94BD
:101DC00003029B8B8A8B198B1CA21093B107F50120
:101DD00080859185A285B3858CA79DA7AEA7BFA757
:101DE00019A6CDA2DEA2EFA2F8A667E370E080E01C
:101DF00090E00E9403029BA78AA719A7188210935C
:101E0000AE07F50184899589A689B789888799875E
:101E1000AA87BB871D82C982DA82EB82FC8269E3D2
:101E200070E080E090E00E9403029F838E831D8318
:101E300018AA1093B207F50184819581A681B78114
:101E400088AF99AFAAAFBBAF1DAAC9AADAAAEBAAFD
:101E5000FCAA6AE370E080E090E00E9403029FAB7E
:101E60008EAB1DAB188E1093B007F5018485958558
:101E7000A685B78588A399A3AAA3BBA31D8EC98EE7
:101E8000DA8EEB8EFC8E6BE370E080E090E00E94D7
:101E900003029F8F8E8F1D8FDF91CF911F91FF9037
:101EA000EF90DF90CF90BF90AF9008958091A20700
:101EB00081111FC081E08093A2078091A3079091B8
:101EC000A407A091A507B091A6070197A105B105A8
:101ED00081F48091A707882361F068E370E080E0D7
:101EE00090E00E94BF019093A9078093A8070E94E9
:101EF00026028091720781111FC081E080937207D2
:101F00008091730790917407A0917507B09176073F
:101F10000197A105B10581F480917707882361F0CD
:101F200066E370E080E090E00E94BF019093790743
:101F3000809378070E94260280918A0781111FC032
:101F400081E080938A0780918B0790918C07A09104
:101F50008D07B0918E070197A105B10581F480919D
:101F60008F07882361F067E370E080E090E00E94D3
:101F7000BF0190939107809390070E942602809161
:101F8000660781111FC081E0809366078091670713
:101F900090916807A0916907B0916A070197A10520
:101FA000B10581F480916B07882361F069E370E0EB
:101FB00080E090E00E94BF0190936D0780936C07D2
:101FC0000E9426028091960781111FC081E08093B4
:101FD00096078091970790919807A0919907B091E3
:101FE0009A070197A105B10581F480919B07882389
:101FF00061F06AE370E080E090E00E94BF0190939E
:102000009D0780939C070E94260280917E07811184
:102010001FC081E080937E0780917F0790918007A9
:10202000A0918107B09182070197A105B10581F4C4
:1020300080918307882361F06BE370E080E090E09B
:102040000E94BF0190938507809384070C94260219
:10205000089560E070E080E89FE7089560E070E038
:1020600080E89FE7089560E070E080E89FEF0895C2
:1020700060E070E080E89FEF089560E070E080EC41
:102080009FEF089560E070E080EC9FEF0895F5DF2A
:102090006093FC077093FD078093FE079093FF0702
:1020A000F1DF6093F0077093F1078093F20790934C
:1020B000F307CFDF6093F8077093F9078093FA076F
:1020C0009093FB07CBDF6093F4077093F507809341
:1020D000F6079093F707C7DF609300087093010835
:1020E0008093020890930308C3DF60930408709301
:1020F000050880930608909307080895CF92DF9211
:10210000EF92FF92CF936B017C01AC019B01609138
:10211000F8077091F9078091FA079091FB070E94E8
:10212000572BC1E0882371F0A70196016091000848
:102130007091010880910208909103080E94572B2A
:102140008111C0E08C2FCF91FF90EF90DF90CF9066
:1021500008950F931F938B019C010027112720786E
:102160003F770115110520483F4749F4AB01BC01F9
:102170006F77772781E0452B462B472B09F480E0CA
:102180001F910F910895E5CFEF92FF920F931F9348
:10219000CF93DF93EA01F901DC011496ED90FC90F6
:1021A000159712964D915C9113974E0D5F1D2881E6
:1021B000398118960D911C9119970217130730F069
:1021C0000D911C911197012B09F441C08A01021B4A
:1021D000130BDC0118968D919C918E199F09800F2D
:1021E000911F86179707DCF1C901860F971F841787
:1021F000950778F471836083338322831582148278
:102200001782168288819981680F791F7983688384
:1022100016C01183008333832283601B710B758387
:10222000648390E080E01616170614F49E2D8F2D1F
:1022300096838783D701A60FB71FB983A88380E051
:10224000DF91CF911F910F91FF90EF900895189615
:102250008D919C91821B930B861797075CF681E00A
:10226000EFCFCF92DF92EF92FF92CF93DF936B018C
:1022700084E4869FE001879FD00D1124CE5CDB4F64
:102280008AA99BA9009721F00E943D341BAA1AAA93
:1022900084E48C9DF0018D9DF00D1124EE5CFB4FCC
:1022A00086A997A9009711F00E943D3484E48C9D83
:1022B000F0018D9DF00D1124EE5CFB4F138A128A04
:1022C000168A178A108E118E128E138E148E158E0A
:1022D000168E178E10A211A281E090E093A382A324
:1022E00015A214A216A217A210A611A613A612A632
:1022F00015A614A616A617A610AA11AA13AA12AA02
:1023000015AA14AA17AA16AA11AE10AE12AE13AED1
:1023100014AE15AEDF01DE961D921D921D921C9229
:102320001397EE5BFF4F11821082DF91CF91FF90E8
:10233000EF90DF90CF900895CF93DF93FB01DC0106
:102340006D917C91DB011696CD91DC91808191811C
:1023500023E0880F991F2A95E1F7AA81BB81A80F76
:10236000B91F8D919C91119724853585220F331FBC
:10237000EB016A817B81EB01C20FD31F0990D881E9
:10238000C02D14962D913C9161E070E0232B11F04B
:1023900062E070E0C69F9001C79F300DD69F300D60
:1023A0001124A085B1852A9FB0012B9F700D3A9F03
:1023B000700D1124A481B5812A9FF0012B9FF00D8F
:1023C0003A9FF00D11248E0F9F1FFA019183808395
:1023D00073836283DF91CF9108952F923F924F9242
:1023E0005F926F927F928F929F92AF92BF92CF92A5
:1023F000DF92EF92FF920F931F93CF93DF9300D062
:1024000000D0CDB7DEB7DC011496ED91FC910190C0
:10241000F081E02D808591859A838983A281B381A3
:10242000BC83AB83FB0181909190A190B190C12CB2
:10243000D12C7601C814D904EA04FB04CCF026960A
:102440000FB6F894DEBF0FBECDBFDF91CF911F91C5
:102450000F91FF90EF90DF90CF90BF90AF909F9043
:102460008F907F906F905F904F903F902F90089546
:10247000448055806680778040855185628573856C
:10248000CF0140969E838D83A081B1819D0183E021
:10249000220F331F8A95E1F7A981BA8112968D9197
:1024A0009C91D901A80FB91F2D903C9011970484DD
:1024B000F585E02DEE0FFF1F8B819C81E80FF91F42
:1024C0000190F081E02D14968D919C91892B41F51E
:1024D00081E090E0E89F9001E99F300DF89F300D7A
:1024E0001124249F8001259F100D349F100D11246D
:1024F000249DC001259D900D349D900D1124A801AF
:102500006D817E81820D931D0E94C634ED81FE8116
:10251000E00FF11F9FEFC91AD90AE90AF90A8ACF19
:1025200082E090E0D7CFCF93DF93DB01A652BD4F7F
:102530002C91222369F024E4269FF001279FF00DBF
:102540001124EE5CFB4FEF0119922A95E9F71C92DA
:1025500024E4269FF001279FF00D1124EE5CFB4F31
:1025600014821582168217821186108613861286AF
:10257000118A108A17861686DF91CF9172CE2F921C
:102580003F924F925F926F927F928F929F92AF9203
:10259000BF92CF92DF92EF92FF920F931F93CF9350
:1025A000DF9300D000D01F921F92CDB7DEB724E496
:1025B000269FF001279FF00D1124EE5CFB4F048154
:1025C000158126813781012B022B032B09F4B7C01B
:1025D0002A016B017C0110E000E0812C912C540158
:1025E0003F019F01285F3F4F3C832B83CF0104961F
:1025F0009E838D83AB81BC818D919C91ED81FE8109
:10260000408151816281738184169506A606B706C2
:10261000E4F10E943D34D3011A968D919C91892B4F
:1026200009F07EC084E48C9DD0018D9DB00D1124F5
:10263000AE5CBB4FBC83AB8350968D919C910E9446
:102640003D34EB81FC81868597850E943D34C7012E
:10265000B60107DEC701B60128960FB6F894DEBFB3
:102660000FBECDBFDF91CF911F910F91FF90EF90E3
:10267000DF90CF90BF90AF909F908F907F906F90A2
:102680005F904F903F902F904ECFFC01E00FF11FD5
:1026900092819983A381AA839F83A887312C212CBF
:1026A0002414350464F089819A810E943D34EFEF4F
:1026B0008E1A9E0AAE0ABE0A0C5F1F4F9BCFAF81D7
:1026C000B885ED91FD91B887AF83309759F084813B
:1026D00095810E943D34EF81F88532978081918108
:1026E0000E943D34BFEF2B1A3B0ADACF800F911FB7
:1026F000FC01848195810E943D342B813C812F5FB8
:102700003F4F3C832B83025F1F4FF50180819181F6
:102710002B813C81241535054CF30E943D3482CF3A
:1027200010E000E01C821B8224E42C9DC0012D9D42
:10273000900D1124DC01A45CBB4F5D01E6CF28960F
:102740000FB6F894DEBF0FBECDBFDF91CF911F91C2
:102750000F91FF90EF90DF90CF90BF90AF909F9040
:102760008F907F906F905F904F903F902F90089543
:1027700024E4269FF001279FF00D1124EE5CFB4F0F
:10278000828993890497029758F485E090E0938BAF
:10279000828B8FEF9FEFDC01828F938FA48FB58F99
:1027A00008952F923F924F925F926F927F928F92F5
:1027B0009F92AF92BF92CF92DF92EF92FF920F93D0
:1027C0001F93CF93DF93CDB7DEB7AA970FB6F894D8
:1027D000DEBF0FBECDBF9AA389A37E8B6D8B1A017E
:1027E000098B1A8B2B8B3C8B84E429893A89829F35
:1027F0006001839FD00C112486010E5C1B4F8989D8
:102800009A89AB89BC89F80180839183A283B383C1
:10281000AB01BC01CD01B3DED601AA5CBB4F84E0A5
:10282000F10101900D928A95E1F7F4E02F0E311C31
:1028300064E070E0D80114968D919C910E948733DA
:10284000F80191878087892B09F0F5C04D895E8951
:1028500069897A898B899C8992DE81E0AA960FB674
:10286000F894DEBF0FBECDBFDF91CF911F910F91C6
:10287000FF90EF90DF90CF90BF90AF909F908F90A0
:102880007F906F905F904F903F902F900895A9A5F3
:10289000BAA58D919C91E98DFA8DE80FF91FF88FFB
:1028A000EF8BD1018D919C91880F991FA9A1BAA19D
:1028B000ED91FC91E80FF91F80819181EF89F88DEE
:1028C00091838083D10114962D913D914D915C911E
:1028D00017972BA33CA34DA35EA362E070E08D8904
:1028E0009E890E948733EF89F88D93838283892B99
:1028F00009F4ACCFF8E02F0E311C412C512C3201E1
:102900002BA13CA14DA15EA142165306640675069B
:102910009CF02B8D3C8D4D8D5E8D2F5F3F4F4F4F2B
:102920005F4F2B8F3C8F4D8F5E8F498D5A8D4C5F43
:102930005F4F5A8F498F90C0610124E0C20ED11CB5
:10294000D101ED90FC90EE0CFF1CEF89F88D828197
:102950009381E80EF91E68E070E081E090E00E944B
:1029600087338C01D7018D939C93892B09F46ECF0B
:1029700084E0F601D80101900D928A95E1F7B8E064
:102980002B0E311CF80180819181A281B381181630
:1029900019061A061B06DCF464E070E00E94873317
:1029A000D80115969C938E931497892B09F44ECFDA
:1029B000D12CC12C812C912C5401F8018081918162
:1029C000A281B38188169906AA06BB0634F0FFEFF0
:1029D0004F1A5F0A6F0A7F0A93CFF801E480F580EF
:1029E000EC0CFD1C80E1F101DE01119601900D92CD
:1029F0008A95E1F7F0E12F0E311CA701BE016F5F50
:102A00007F4FA9A1BAA114968D919C9195DCF801F4
:102A100086819781D70112962D913C91820F931F49
:102A200097838683BFEF8B1A9B0AAB0ABB0AE4E04D
:102A3000CE0ED11CC2CF1A8E198E1B8E1C8E1D8EEF
:102A40001E8E18A30F8FA8014C5F5F4F58A74FA38E
:102A5000C80108969AA789A7EFA1F8A5808191815E
:102A6000A281B3812B8D3C8D4D8D5E8D281739074A
:102A70004A075B070CF40BCF6EE070E08D899E89EE
:102A80000E948733AF8DB8A11B969C938E931A97A3
:102A9000B12CA12CD12CC12CF12CE12C24E4E989FE
:102AA000FA892E9FC0012F9F900D11249C01245C58
:102AB0003B4F388F2F8B88248394912C4D895E89CE
:102AC000C416D50654F184E4A989BA898A9F800185
:102AD0008B9F100D11240E5C1B4FF8011586148678
:102AE000C70133E0880F991F3A95E1F70E94A1339F
:102AF000D80151969C938E935097892B09F4A6CEBA
:102B0000C701880F991F0E94A133F8019787868714
:102B1000892B09F49BCE80E0A1CED1014D905D9030
:102B20006D907D901D0177FC91CEEF89F88D00812D
:102B300011810A0D1B1DD80111969C928E92411491
:102B400051046104710429F1C2010E94A133F8010A
:102B500095838483892B09F479CEF80153824282CC
:102B600084819581978386839187808713861286D7
:102B700081E090E045284628472811F490E080E065
:102B8000E80EF91EFFEFCF1ADF0A2EE0A20EB11CED
:102B900095CF15961C921E921497DFCF2F923F92DD
:102BA0004F925F926F927F928F929F92AF92BF925D
:102BB000CF92DF92EF92FF920F931F93CF93DF9309
:102BC000CDB7DEB76A970FB6F894DEBF0FBECDBFA4
:102BD0009E8B8D8B49015A0184E4829F7001839FF3
:102BE000F00C112497012E5C3B4F6901FB018081A1
:102BF0009181F901958B848BD701A85BBB4FFB01B9
:102C0000349684E001900D928A95E1F7D701A45B98
:102C1000BB4FFB01389684E001900D928A95E1F755
:102C2000D701A05BBB4FFB013C9684E001900D9265
:102C30008A95E1F7D701A05ABB4FFB01709684E05B
:102C400001900D928A95E1F78B010C5E1F4FF901FF
:102C500086A597A5A0A9B1A918161906DCF5880FB5
:102C6000991F880F991F0E94A133F60193AB82AB85
:102C7000892B09F4D3C0312C212C412C512C320149
:102C80009601225D3F4F388F2F8BC601C2969A8FD7
:102C9000898FF496FC8BEB8BB301A2012FEF421AC4
:102CA000520A620A720AEF89F88D80819181A281AD
:102CB000B381481759076A077B070CF47BC0F601FC
:102CC00084A995A90E94A133F60197AB86AB892B05
:102CD00009F4A4C0F80180819181A281B38124E428
:102CE000289DF001299DF00D1124EE5CFB4FAC01F5
:102CF000BD014D7F21E030E0452B462B472B11F0E5
:102D000030E020E033A322A324E4289DF001299D94
:102D1000F00D1124EE5CFB4F0197A109B10921E0F0
:102D200030E00297A105B10510F030E020E035A3B6
:102D300024A3D701A85ABB4FF801349684E0019030
:102D40000D928A95E1F784E4889DF001899DF00D4C
:102D50001124EE5CFB4F868D978DA0A1B1A1B7FF2A
:102D600058C0B095A095909581959F4FAF4FBF4F9C
:102D700082AF93AFA4AFB5AF168E178E10A211A27B
:102D800080E06A960FB6F894DEBF0FBECDBFDF912C
:102D9000CF911F910F91FF90EF90DF90CF90BF9058
:102DA000AF909F908F907F906F905F904F903F90EB
:102DB0002F900895E98DFA8D808191819C01220DDB
:102DC000331D3A8B298B80E1F801DE0111960190C9
:102DD0000D928A95E1F7005F1F4F49895A89BE011C
:102DE0006F5F7F4FED89FE8984819581A5DAEB893C
:102DF000FC8980819181E989FA8922813381820F5E
:102E0000931FEB89FC8991838083F4E02F0E311CA2
:102E100043CF12AE13AE14AE15AEB2CFC501B4019E
:102E200020DA81E0AECFCF92DF92EF92FF92CF9384
:102E3000DF931092BA0424E4269FF001279FF00D3F
:102E40001124EE5CFB4F15A614A630E020E0D12C37
:102E5000C12CDF011A96C1E0D0E0C416D506F4F00B
:102E600024E4269FF001279FF00D1124EE5CFB4F18
:102E700013A612A611AE10AEDF01DE961D921D92B2
:102E80001D921C92139782E090E0938B828BDF91CE
:102E9000CF91FF90EF90DF90CF900895ED91FC914E
:102EA0001197E20FF31FE280F3801E141F0454F405
:102EB000E480F580F782E682F186E086138612864A
:102EC000D183C083EFEFCE1ADE0A225F3F4FC5CF1A
:102ED00024E4269FF001279FF00D1124EE5CFB4FA8
:102EE000138A128A4CCB24E4269FF001279FF00D11
:102EF0001124EE5CFB4F8289938981309105C8F0E3
:102F00008530910518F0059769F008958FEF9FEFD0
:102F1000DC01828F938FA48FB58F85E090E0938B37
:102F2000828B08958FEF9FEFDC01828F938FA48FA8
:102F3000B58F089524E4249FD001259FB00D11245E
:102F4000AE5CBB4F2EE0AC01249FC001259F900DCD
:102F500011241A96ED91FC91E80FF91F81E08093FE
:102F6000BA04828593859187808740855185268123
:102F7000378181E090E04217530711F090E080E044
:102F80009183808308952F923F924F925F926F9228
:102F90007F928F929F92AF92BF92CF92DF92EF92E9
:102FA000FF920F931F93CF93DF93CDB7DEB7C0553A
:102FB000D1090FB6F894DEBF0FBECDBF9EAF8DAF67
:102FC0004BA75CA76DA77EA76801790184E4809F69
:102FD000F001819FF00D1124EE5CFB4F22853385BB
:102FE00023963FAF2EAF239782899389029761F48E
:102FF00086A597A5A0A9B1A9892B8A2B8B2BC9F5EA
:1030000084E090E0938B828B84E48C9DF0018D9D15
:10301000F00D1124EE5CFB4F82899389823091057B
:1030200009F037C282AD93ADA4ADB5AD222423948F
:10303000312C181619061A061B060CF42FC2C05B99
:10304000DF4F0FB6F894DEBF0FBECDBFDF91CF913B
:103050001F910F91FF90EF90DF90CF90BF90AF90B6
:103060009F908F907F906F905F904F903F902F90A8
:103070000895848995894DAD5EAD8417950721F635
:1030800006A917A918AE1FAA1BAA1CAA1DAA1EAA28
:103090001F01CF018E9627969FAF8EAF2797DF0136
:1030A000D2962996BFAFAEAF2997F8962B96FFAF71
:1030B000EEAF2B9791012A5D3F4F2D963FAF2EAF7C
:1030C0002D97A1014E5D5F4F2F965FAF4EAF2F97AB
:1030D0000A9761969FAF8EAF61972796EEADFFADD1
:1030E000279780819181A281B3812BA93CA94DA909
:1030F0005EA9281739074A075B0744F081E090E092
:10310000D101D9969C938E93D8977ECF2996AEAD58
:10311000BFAD2997ED91FC912FA938ADE20FF31FB8
:10312000428153815AAF49AF50815FAF818121966F
:103130008FAF21972B96AEADBFAD2B978D919C9104
:10314000892B21F12D96EEADFFAD2D9780809180DA
:10315000A280B3801AAB09AB5FA72196FFAD219780
:10316000F8AB29AD3AAD3695279536952795259636
:103170003FAF2EAF25971CAE1BAE2596AEADBFADB3
:103180002597EBADFCADEA17FB070CF149AD5AAD45
:103190006FAD21967FAD2197C8010E94C63489ADDD
:1031A0009AAD8C7F080F191F2BA93CA94DA95EA9C8
:1031B0002F5F3F4F4F4F5F4F2BAB3CAB4DAB5EABE9
:1031C0004FA958AD4C5F5F4F58AF4FAB86CF2F968E
:1031D000AEADBFAD2F978D919C91892B71F1EFA56D
:1031E000F8A94080518062807380A3019201C501DB
:1031F000B4010E94572B181664F0A9A9BAA92D9101
:103200003D914D915C91C501B4010E94772D181636
:10321000BCF1A3019201C501B4010E94572B87FFA5
:103220000CC0E9A9FAA92081318142815381C501ED
:10323000B4010E94572B882319F16196AEADBFAD42
:1032400061978D919C91892B09F445C0EFA5F8A950
:103250004080518062807380A3019201C501B40156
:103260000E94772D18161CF5A9A9BAA92D913D9198
:103270004D915C91C501B4010E94572B18165CF169
:1032800084E48C9DF0018D9DF00D1124EE5CFB4FCC
:10329000868D978DA0A1B1A1892B8A2B8B2B69F1EB
:1032A00083E090E0938B828B81E090E02CC0A301BF
:1032B0009201C501B4010E94572B81110CC0E9A9EC
:1032C000FAA92081318142815381C501B4010E9454
:1032D000572B87FDD5CF2BAD3CAD2F5F3F4F3CAF7C
:1032E0002BAF49A95AA94C5F5F4F5AAB49AB8FA589
:1032F00098A9049698AB8FA740CF84E090E0938B79
:10330000828B86AD97AD93A782A77ECEEBADFCAD49
:1033100080819181F401EE0FFF1FEE0FFF1FE80F78
:10332000F91FA081B1818C9181110AC0FFEF8F1A22
:103330009F0AAF0ABF0A8DA29EA2AFA2B8A68FC1F4
:103340008330A1F30280F381E02D2FA938ADE20F85
:10335000F31F808191819AAB89AB892B39F34F5F41
:103360005F4F6F4F7F4F49875A876B877C879E01DE
:10337000235E3F4FAE01475D5F4F64E070E0C801E0
:103380000E94C4108111D0C18D819E81AF81B8850A
:103390000496A11DB11D8D839E83AF83B8874D8D8B
:1033A0005E8DBE016B5D7F4F8F8D98A10E94C634EC
:1033B0008BA19CA1009761F06D8D7E8DA5E2B0E0A0
:1033C000AC0FBD1F6A0F7B1F49A15AA10E94C634D2
:1033D0001CAA1BAA412C512C3201E9A9FAA980810F
:1033E0009181A281B381481659066A067B060CF0CA
:1033F0009DCFE9A9FAA9848195812BA93CA9280F21
:10340000391F38AB2FA7D90112966D917C919E017F
:10341000235E3F4FAE01475D5F4FC8010E94C4105D
:10342000811182C1EFA5F8A982819381092E000C38
:10343000AA0BBB0B4D815E816F817885840F951F30
:10344000A61FB71F8D839E83AF83B887608171816C
:103450004D8D5E8D8F8D98A10E94C6348BA19CA14D
:10346000009761F0AFA5B8A96D917C912D8D3E8D2F
:10347000620F731F49A15AA10E94C634BFEF4B1AB5
:103480005B0A6B0A7B0AEBA9FCA93496FCABEBAB9D
:10349000A4CF312C212C049709F0D1CD8EE0EDADD5
:1034A000FEAD8E9F80018F9F100D112423962EADAF
:1034B0003FAD2397020F131FD80112964D915C91D7
:1034C00013974115510509F4BACD16968D919C912B
:1034D0009AA789A780E1FE013196DF011D928A95A6
:1034E000E9F7C98ADA8AEB8AFC8A2114310409F4E3
:1034F00058C084E48C9DF0018D9DF00D1124EE5C8C
:10350000FB4FDF01DE968D909D90AD90BC9082AD1B
:1035100093ADA4ADB5AD88169906AA06BB0609F011
:1035200040C0F801848195810084F185E02D3496B6
:1035300024E0DE01559601900D922A95E1F72D8940
:103540003E89285F3F4F3E8B2D8BD80118966D9199
:103550007C911997260F371F19963C932E93189735
:1035600018962D913C911997480F591F241B350B24
:1035700037FD06C0820F931F19969C938E93189760
:1035800084E48C9DF0018D9DF00D1124E059FB4FDA
:10359000B1E08B1A9108A108B10880829182A282C1
:1035A000B3829E012B5E3F4FAE01475D5F4F64E1EA
:1035B00070E0C8010E94C4108111B6C08CE090E098
:1035C000A0E0B0E08D839E83AF83B8879E01235E29
:1035D0003F4FAE01475D5F4F64E070E0C8010E945D
:1035E000C4108111A1C080E190E0A0E0B0E08D8323
:1035F0009E83AF83B8874D8D5E8DBE01655D7F4F25
:103600008F8D98A10E94C6348BA19CA1009761F078
:103610006D8D7E8DEBE2F0E0EC0FFD1F6E0F7F1FD6
:1036200049A15AA10E94C6341DA21EA21FA218A61B
:103630002DAD3EAD220F331F38AF2FAB24E42C9DB0
:10364000C0012D9D900D11248E5C9B4FAC014C5FF1
:103650005F4F5AAF49AFDC011896BCAFABAF8DA03E
:103660009EA0AFA0B8A449855A856B857C85E9AD3D
:10367000FAAD80819181A281B38188169906AA064C
:10368000BB060CF443CE452B462B472B09F4D7CC75
:103690008AE190E0A0E0B0E089839A83AB83BC83A9
:1036A0002DAD3EADC901330FAA0BBB0B8D879E8795
:1036B000AF87B88B4D895E89BE016F5F7F4F8F8961
:1036C000988D0E94C6348B8D9C8D009761F06D891A
:1036D0007E8941E050E04C0F5D1F640F751F498DDE
:1036E0005A8D0E94C63489A59AA5D80117969C9335
:1036F0008E93169711961C921E92232809F49FCC44
:1037000084E48C9DF0018D9DF00D1124E059FB4F58
:1037100080819181A281B3810196A11DB11D808319
:103720009183A283B3838BCC232809F088CC84E4D3
:103730008C9DF0018D9DF00D1124EE5CFB4F81E01E
:1037400090E095A784A785E090E0938B828B77CC5F
:10375000CF92DF92EF92FF920F931F9324E4269F64
:10376000F001279FF00D1124EE5CFB4F2289338975
:103770002115310509F452C06B017C01213031055E
:10378000B1F482A593A59C012F5F3F4F33A722A7D9
:10379000092E000CAA0BBB0B028D138D248D358DC9
:1037A00080179107A207B307C9F5C7013CDB84E482
:1037B0008C9DF0018D9DF00D1124EE5CFB4F8289F4
:1037C0009389039759F582A593A59C012F5F3F4FDD
:1037D00033A722A7092E000CAA0BBB0B468D578DD1
:1037E00060A171A184179507A607B707BCF086AD45
:1037F00097AD93A782A784E090E0938B828B82ADF4
:1038000093ADA4ADB5AD181619061A061B0634F40F
:10381000EE5BFF4F81E090E0918380831F910F91D9
:10382000FF90EF90DF90CF90089524E4269FF00161
:10383000279FF00D1124EE5CFB4F8289938904973A
:10384000B1F482A593A5019693A782A7092E000C37
:10385000AA0BBB0B46895789608D718D841795071C
:10386000A607B70721F485E090E0938B828B08953B
:103870002F923F924F925F926F927F928F929F9280
:10388000AF92BF92CF92DF92EF92FF920F931F936E
:10389000CF93DF93CDB7DEB72E970FB6F894DEBF88
:1038A0000FBECDBFDC0149835A836B837C83290122
:1038B00084E4849FF001859FF00D1124EE5CFB4FA2
:1038C00022883388C1010497029708F0D5C0119669
:1038D0001C921E9213961C921E92129715861486A5
:1038E000912C812C90E080E08F019F01205F3F4F61
:1038F00038872F833F013CE0630E711CBF01625F7C
:103900007F4F7A8769873A96FC87EB87EF81F88546
:1039100020813181F30140815181E985FA85A080C0
:10392000B180841595050CF445C011965C934E93B7
:1039300013963C932E9312971596BC92AE921497C1
:10394000452BF9F4F5E02F163104D9F41092BA049E
:10395000F801828D938DA48DB58DAE014F5F5F4FC1
:1039600064E070E08F3F9F4FAF4FBF4F09F079C0C9
:1039700080E290E0F6D469817A818B819C81A201FA
:10398000A7DA2E960FB6F894DEBF0FBECDBFDF913B
:10399000CF911F910F91FF90EF90DF90CF90BF904C
:1039A000AF909F908F907F906F905F904F903F90DF
:1039B0002F900895EB85FC8560817181FB01E80DF6
:1039C000F91DFE87ED8760817181672B89F5E084A1
:1039D000F184628173817E836D83668177816A0160
:1039E000E3E0CC0CDD1CEA95E1F72C0D3D1D440F06
:1039F000551F4A0D5B1DFA0191838083F3014081BD
:103A000051814F5F5F4F51834083F901F382E2821E
:103A1000ED85FE8573876287E616F70670F46E19EA
:103A20007F09F901718360831582148217821682DF
:103A30000196FEE08F0E911C69CFED85FE85C48056
:103A4000D5804D815E814C0D5D1D4E195F09F901D8
:103A5000518340836C197D0975836483D782C68244
:103A6000E7CF8FE190E07DD4F80113A612A681E0A4
:103A700090E0938B828B85CF1586148611961C92CD
:103A80001E9213961C921E9212977BCFEF92FF927A
:103A90000F931F93CF93DF937C018B01EA013DD5F8
:103AA00081111BC08091DC029091DD020497F9F432
:103AB000DF91CF911F910F91FF90EF90089528ED26
:103AC00038EB45E050E060E070E0CB01DCD7AE01C0
:103AD000B801C701E6D7C801AFD78091BB04909168
:103AE000BC04892BF9F68881882349F3DBCF83E076
:103AF00090E09093DD028093DC02DACFCF93DF93E6
:103B00002091DC023091DD022430310531F0EB01EF
:103B1000C8D7CE01DF91CF918FC7DF91CF910895A4
:103B20000C944F290C9444290C94322995C70C9479
:103B3000D628089570E060E090E080E0C9C4089560
:103B4000AF92BF92CF92DF92EF92FF920F931F93AB
:103B5000CF93DF931F921F92CDB7DEB75C018B012D
:103B600069017A0190E080E0C114D104E104F1041C
:103B700069F40F900F90DF91CF911F910F91FF90FB
:103B8000EF90DF90CF90BF90AF9008959C2D8D2D3A
:103B9000C114D10421E0E206F10410F09FEF8FEF91
:103BA0009E012F5F3F4F492F582FB801C5010E943A
:103BB000D8298F3F9807E9F229813A81C21AD30A9E
:103BC000E108F108020F131FCFCF40E855E260E093
:103BD00070E090E080E000C08130910579F01CF445
:103BE000892B39F008958230910561F0039771F0C7
:103BF000089526E082EF94E00C94783026E08FE878
:103C000095E0FACF26E08CE296E0F6CF26E089EC4C
:103C100096E0F2CF1F920F920FB60F9211240BB6BF
:103C20000F922F933F934F935F936F937F938F9355
:103C30009F93AF93BF93EF93FF9386E997EE909393
:103C40002501809324010E94122AFF91EF91BF91D8
:103C5000AF919F918F917F916F915F914F913F9124
:103C60002F910F900BBE0F900FBE0F901F901895C5
:103C700086E997EE9093250180932401A3E7B0E0B5
:103C80008C918E7F8C93E0E2F1E080818C7F808349
:103C9000E1E2F1E08081877E80838081846080839F
:103CA00080818C7F80838C9181608C93089581E0EA
:103CB00008958F929F92AF92BF92CF92DF92EF9230
:103CC000FF920F931F93CF93DF935C017B018A01D7
:103CD000C1E0D0E0CE15DF05CCF081E0F5018083B6
:103CE000B801C7010E947929F5019283818390E090
:103CF00080E0DF91CF911F910F91FF90EF90DF90C7
:103D0000CF90BF90AF909F908F9008956E018FEFEE
:103D1000C81AD80AFE01EE0FFF1FE00FF11F8080C6
:103D200091808114910469F06DE673E0C4010E94F2
:103D3000D634892B41F4CC0FDD1FC00FD11F19825F
:103D40001882E601C7CF60E773E0C4010E94D63451
:103D5000892BB9F7EC14FD04A1F36E01E2E0CE0E5D
:103D6000D11CCC0FDD1FC00FD11F198218821B82FE
:103D70001A82E7CF8DEB94E0089580E008950F93C9
:103D80001F93CF93DF938B01BA01E9011982188247
:103D90009801012E000C440B550BFC01818192818E
:103DA000CFDE019641F01983088380E0DF91CF9147
:103DB0001F910F91089581E0F9CF0F931F93CF9337
:103DC000DF931F921F92CDB7DEB7FB018A01B901C5
:103DD0009E012F5F3F4FAF01FC01818192810E94C4
:103DE0008D29019669F089819A81F80191838083F8
:103DF00080E00F900F90DF91CF911F910F91089568
:103E000081E0F7CFFC01808108950895089581E055
:103E1000FB01808380E0089508951092E5040895E1
:103E2000FC01818192810C947129CF93DF9300D0A2
:103E300000D000D01F92CDB7DEB7B0E0A0E08983FC
:103E40009A83AB83BC83CB01770FAA0BBB0B8D830B
:103E50009E83AF83B8879E01275F3F4FAE014F5FC0
:103E60005F4F68E070E08091D4049091D50487DFC3
:103E7000811110C081E029853A852830310509F487
:103E800080E02A960FB6F894DEBF0FBECDBFDF915B
:103E9000CF91089581E0F5CF0F931F93CF93DF93D8
:103EA0001F921F92CDB7DEB78B019E012F5F3F4F50
:103EB000AC018091D4049091D50461DF81110EC0D2
:103EC00081E029813A812017310709F480E00F90C1
:103ED0000F90DF91CF911F910F91089581E0F7CF5F
:103EE000CF93DF93EC011092D8041092D704109274
:103EF000E4041092E304AC0160E070E0CB010E94A6
:103F00006817AE0161E070E080E090E00E94681701
:103F10008091D4049091D504DF91CF917DCF4F92C1
:103F20005F926F927F928F929F92AF92BF92CF9249
:103F3000DF92EF92FF920F931F93CF93DF931F9225
:103F40001F92CDB7DEB78C017C0197FF03C087E0DD
:103F5000E80EF11C23E0F594E7942A95E1F7C801F7
:103F600068E070E00E9436336C010E5F1F4F809155
:103F7000D2049091D30480179107D4F48091D00497
:103F80009091D104009731F00E943D341092D304F7
:103F90001092D204C8010E94A1339093D10480935F
:103FA000D004892B09F482C01093D3040093D20467
:103FB00010E000E047C1412C512C3201B12CA12C62
:103FC000950127523B4FAE014F5F5F4F61E070E0BC
:103FD0008091D4049091D504F0DE811149C0EFEFB7
:103FE0004E1A5E0A6E0A7E0AF0E94F16FFE55F067A
:103FF000F1E06F06710444F06091E3047091E40411
:104000008DEE90E012DFD7CF89819A81A80EB91E7C
:104010008AE0A816B10409F043C049E050E070E01E
:1040200060E089ED94E00E94042A6091E3047091BD
:10403000E404882391F18091E10490E086179707CA
:1040400081F4BC018EEE90E0F0DE8091E30490916B
:10405000E404019699279093E4048093E3040F5FAE
:104060001F4F0E151F050CF4A6CFCD2809F07CC0FC
:1040700090E080E00F900F90DF91CF911F910F9112
:10408000FF90EF90DF90CF90BF90AF909F908F9078
:104090007F906F905F904F9008958FEE90E0B2CF39
:1040A000EAE0AE16B1040CF48BCFDBCF10E000E0F9
:1040B000D8CF0A30110531F549E050E070E060E0FA
:1040C00089ED94E00E94042A6091E3047091E40475
:1040D0008823A9F08091E10490E08617970741F6C4
:1040E000BC018EEE90E0A1DE8091E3049091E404A7
:1040F000019699279093E4048093E304B9CF8FEE5F
:1041000090E02BC00A3011050CF0B2CF9801275275
:104110003B4FAE014F5F5F4F61E070E08091D40490
:104120009091D5044ADE8111A3CF89819A81080F2D
:10413000191FFFEFCF1ADF0AEF0AFF0A80E9C8163E
:104140008FE5D80681E0E806F1040CF4B2CF609167
:10415000E3047091E4048DEE90E067DE10E000E08F
:10416000C12CD12C7601D2CFC12CD12C760110E0FC
:1041700000E0CCCF412C512C3201B12CA12C4801B4
:1041800093E0880C991C9A95E1F72091D004309126
:10419000D104C501880D991D280F391FAE014F5F4D
:1041A0005F4F61E070E08091D4049091D50405DE0A
:1041B00081115ECFEFEF4E1A5E0A6E0A7E0A6091A1
:1041C000E3047091E4048DEE90E0F0E94F16FFE512
:1041D0005F06F1E06F0671040CF043C089819A819B
:1041E000A80EB91E8AE0A816B10409F041C049E042
:1041F00050E0B4018091D0049091D1040E94042A2F
:104200006091E3047091E404882349F18091D00423
:104210009091D104880E991EF401808590E0861754
:10422000970781F4BC018EEE90E0FFDD8091E304FE
:104230009091E404019699279093E4048093E30419
:104240000F5F1F4F0E151F050CF494CFC114D1043E
:1042500009F081C08091D0049091D1040BCF8FEEF2
:1042600090E0E3DD412C512C3201B12CA12C8DCFFB
:10427000FAE0AF16B1040CF488CFE4CF8FEE90E0F3
:10428000D4DDF12CE12C812C912C54019701275283
:104290003B4FAE014F5F5F4F61E070E08091D4040F
:1042A0009091D5048ADD8111E3CE8FEF881A980AA8
:1042B000A80AB80A6091E3047091E4048DEE90E0DE
:1042C000E0E98E16EFE59E06E1E0AE06B104C4F625
:1042D00089819A81E80EF91EFAE0EF16F104A9F53A
:1042E00049E050E070E060E089ED94E00E94042A2B
:1042F0006091E3047091E404882309F4BFCF8091B6
:10430000E10490E08617970709F0A4CFBC018EEE78
:1043100090E08BDD83E0000F111F8A95E1F780911B
:10432000D0049091D104A60169ED74E0800F911F33
:104330000E94C6348091E3049091E4040196992789
:104340009093E4048093E30485CF8AE0E816F104B7
:104350000CF49CCF7FCF812C912C5401F12CE12CBB
:1043600095CFCF92DF92EF92FF920F931F93CF934F
:10437000DF931F92CDB7DEB76C017B018A01452B1D
:1043800039F0AB0170E060E0C8010E94002A898327
:10439000B701C6014ADD81110DC00115110551F0AB
:1043A000B701C80179DD811105C061E070E0CE017F
:1043B000019672DD0F90DF91CF911F910F91FF90C9
:1043C000EF90DF90CF900895CF92DF92EF92FF921F
:1043D000CF93DF9300D000D01F921F92CDB7DEB7EE
:1043E0006B01F12CE12CC982DA82EB82FC822D83F5
:1043F0003E834F835887AE014F5F5F4F68E070E0A8
:10440000B0DF28960FB6F894DEBF0FBECDBFDF91A8
:10441000CF91FF90EF90DF90CF9008958F929F9271
:10442000AF92BF92CF92DF92EF92FF920F931F93C2
:10443000CF93DF937C01EB01CA01690170DD009726
:10444000B1F42FEF3FEFA90161E070E0C701BCDFDD
:10445000C1E08C2FDF91CF911F910F91FF90EF90D2
:10446000DF90CF90BF90AF909F908F900895FC0108
:1044700081909190A190B190BF01FCE1EF16F10401
:1044800079F4A5019401CE010E94CE15C82FA50193
:104490009401882369F061E070E0C70195DFD9CF0E
:1044A00095018401AB01B601CE010E94D113EECF7C
:1044B00070E060E0C701DF91CF911F910F91FF90F5
:1044C000EF90DF90CF90BF90AF909F908F907CCF78
:1044D0000F931F93CF93DF93EC018B014BDC9093F1
:1044E000D5048093D4040097A9F0A801BE01E1DBB4
:1044F000EC01892B49F08091D4049091D50485DC9E
:104500001092D5041092D404CE01DF91CF911F9167
:104510000F910895CCE7D3E0EECF8091D404909131
:10452000D50470CC2F923F924F925F926F927F9200
:104530008F929F92AF92BF92CF92DF92EF92FF92B3
:104540000F931F93CF93DF93CDB7DEB769970FB665
:10455000F894DEBF0FBECDBF2091D8042223F1F026
:104560005B8B4A8B6E877F87888B998B9A01AB0117
:10457000BC01CE0101967C017BD910E048E0242EDD
:10458000312CE88EF98E89819A81181619060CF45F
:1045900050C2112319F08A899B89A2DC69960FB653
:1045A000F894DEBF0FBECDBFDF91CF911F910F9169
:1045B000FF90EF90DF90CF90BF90AF909F908F9043
:1045C0007F906F905F904F903F902F900895EB8178
:1045D000FC818C859D8533E0880F991F3A95E1F722
:1045E000E80FF91F808191819093CF048093CE04CE
:1045F00024813581428153815093CD044093CC0472
:10460000468157815093CB044093CA04820F931F75
:104610009C01990F440B550B2C8B3D8B4E8B5F8B64
:10462000812C912C54018C899D89AE89BF89881673
:104630009906AA06BB0638F18C859D85880F991FBF
:10464000ED81FE81E80FF91F4E855F8568897989C4
:10465000808191810E949A17AC85BD851196BD8796
:10466000AC8789819A81EC85FD85E817F9070CF400
:10467000AECF2A893B894E855F8568897989888D87
:10468000998DF6D880CF1F826091CE047091CF04AF
:10469000CB01072E000CAA0BBB0B84017501640132
:1046A00034E0C30ED11CE11CF11CC816D906EA0681
:1046B000FB0608F0B3C02091CC043091CD04A401D6
:1046C0004C5F5F4F240F351FF901C080D12CF12CB6
:1046D000E12C24013501F5E04F0E511C611C711CC9
:1046E000481659066A067B0608F0A3C02091CC0440
:1046F0003091CD04F8013596E20FF31F2081D22AC4
:104700002401350126E0420E511C611C711C481623
:1047100059066A067B0608F097C02091CC043091B8
:10472000CD04F8013696E20FF31F2081E22A24011E
:10473000350137E0430E511C611C711C48165906A7
:104740006A067B0608F08BC02091CC043091CD0422
:10475000F8013796E20FF31F208126013701722AF4
:104760007501640148E0C40ED11CE11CF11C8C15DC
:104770009D05AE05BF0508F41DC188169906AA0659
:10478000BB0608F077C08091CC049091CD04800FD7
:10479000911F68E070E080DBE091CE04F091CF04DF
:1047A0009F010F2E000C440B550BD301C2018C0D41
:1047B0009D1DAE1DBF1D281739074A075B0708F46A
:1047C00078C0C216D306E406F50608F05DC08091F5
:1047D000CC049091CD049801285F3F4F820F931F26
:1047E000B2015ADB8091CE049091CF04AC01092E26
:1047F000000C660B770BC416D506E606F70608F024
:104800004DC0085F1F4F8091CC049091CD04800F64
:10481000911FA20170E060E0F3D5A7C044E050E032
:10482000461B570B480D591D2091CA043091CB04EB
:1048300049CFE5E0F0E0E61BF70BE00FF11F209118
:10484000CA043091CB0458CFE6E0F0E0E61BF70B4A
:10485000E00FF11F2091CA043091CB0464CFE7E050
:10486000F0E0E61BF70BE00FF11F2091CA04309136
:10487000CB0470CF9801261B370B8091CA0490910E
:10488000CB04820F931F85CF91012E1B3F0B200F6E
:10489000311F8091CA049091CB04A0CFD101A81BF5
:1048A000B90BCD01080F191F8091CA049091CB0458
:1048B000AECFBF0168507109601B710BC216D306E1
:1048C000E406F50608F062C08091CC049091CD0416
:1048D0009801285F3F4F820F931FDEDA8091CE044C
:1048E0009091CF04B101681B790B600F711F640DAB
:1048F000751D8091CA049091CB04CEDA8091CE04CC
:104900009091CF04AC0148505109FA01E01BF10B22
:10491000AC01092E000C660B770BC416D506E60613
:10492000F70608F03DC08091CC049091CD04980129
:10493000285F3F4F820F931FAF0170E060E060D5AA
:104940008F832091CE043091CF04F101E21BF30B51
:104950009F01200F311F240D351D50E040E0682FCE
:104960008091CA049091CB0437D58F8361E070E0C9
:10497000CE01079691DA182F38E0430E511C611CC6
:10498000711C840C951CA61CB71C4DCE91012E1BCE
:104990003F0B200F311F8091CA049091CB049BCF15
:1049A0009101281B390B200F311F8091CA0490916F
:1049B000CB04C0CF88169906AA06BB0668F5601B13
:1049C000710B8091CC049091CD04800F911F64DA1B
:1049D0008091CE049091CF04B101681B790B600FD8
:1049E000711F640D751D8091CA049091CB0454DA37
:1049F0008091CE049091CF04AC01092E000C660B7F
:104A0000770BC416D506E606F70608F4FACE910130
:104A1000281B390BC90146CFC801861B970B209173
:104A2000CA043091CB04B201685F7F4F820F931F9D
:104A3000DECF1D861C8615CECF93DF93EC01AC0133
:104A400060E070E0CB016EDDAE0161E070E080E01F
:104A500090E0DF91CF9166CDCF938091D404909177
:104A6000D5048BD9C82F81110BC060E070E0CB0159
:104A70000E94931261E070E080E090E00E94931247
:104A80008C2FCF9108950F931F9389019A01AB0149
:104A9000BC018091D4049091D504B8D91F910F9195
:104AA00008954F925F926F927F928F929F92AF92F2
:104AB000BF92CF92DF92EF92FF920F931F93CF930B
:104AC000DF93CDB7DEB763970FB6F894DEBF0FBEA6
:104AD000CDBF6C018B015A018091D804882309F461
:104AE0003DC08091D804882309F442C08091D70446
:104AF0001A821982882309F4C0C0F0E94F2EFFE51D
:104B00005F2E66246394712CF12CE12C97012054C4
:104B10003B4FAE014F5F5F4F61E070E08091D40486
:104B20009091D5044AD9982E811169C089819A81C2
:104B3000E80EF91EE114F10409F461C081E0481A9D
:104B400051086108710859F56091E3047091E4041B
:104B50008DEE90E06AD91A82198251C068ED74E036
:104B60008091D4049091D50452D9882309F4B9CF07
:104B700063960FB6F894DEBF0FBECDBFDF91CF9125
:104B80001F910F91FF90EF90DF90CF90BF90AF906B
:104B90009F908F907F906F905F904F900895AAE0C4
:104BA000EA16F10409F063C049E050E070E060E00B
:104BB00080EC94E029D46091E3047091E4048823AC
:104BC00009F452C08091C80490E08617970719F63F
:104BD000BC018EEE90E029D988E0E0ECF4E0DE0143
:104BE000199601900D928A95E1F78091E3049091D6
:104BF000E404019699279093E4048093E30481E010
:104C000029813A81121613060CF080E09110CAC275
:104C1000882309F4ADCF8091D704811104C019868F
:104C20001A861B861C8689859A85AB85BC85803152
:104C30009105A105B10508F09BCFFC018827EC5D2B
:104C4000F94D8F4F0C946B33A4266328D228B825D6
:104C5000A827DB2794269C267826B728A628B328E1
:104C6000B825B825B82563268FEE90E073CFBAE05B
:104C7000EB16F1040CF44ACFC2CFF12CE12CE8E0A2
:104C80006E2E712C29E030E02C0F3D1F2E0D3F1DA4
:104C9000AE014F5F5F4FB3016E197F098091D4045D
:104CA0009091D5048AD8982E29813A81811109C022
:104CB000E20EF31EE114F10421F0E8E0EE16F10437
:104CC0000CF381E09FCFD6011696ED91FC91808187
:104CD0009181A281B38189839A83AB83BC83AE0126
:104CE0004F5F5F4F64E070E085E190E03ADB40CFDA
:104CF0008D859E8514D92FEF3FEFA90161E070E00B
:104D0000009771F0FC01C080D180E280F380A8019F
:104D1000C701B6010E941317A701960170E060E079
:104D20008DE190E051DB24CF4D855E859801B60181
:104D30008BE190E073DB1CCF4D855E852FEF3FEF5D
:104D4000B6018CE190E0F6CFD6011496ED91FC917E
:104D500000811181F80182809380A080B18070E190
:104D6000472E512C612C712C49825A826B827C8295
:104D700088E090E0A0E0B0E08D839E83AF83B887A9
:104D80009E012F5E3F4FAE014F5F5F4F68E070E0C6
:104D90008091D4049091D5040E94BF1E8823D9F03D
:104DA00010E000E0C80163960FB6F894DEBF0FBEB6
:104DB000CDBFDF91CF911F910F91FF90EF90DF90CA
:104DC000CF90BF90AF909F908F907F906F905F90AB
:104DD0004F900C943D3489899A89089709F7D80136
:104DE000ED90FC90B8E0EB0EF11CEE0CFF1CEE0C0D
:104DF000FF1CC7010E94A1338C01892B89F24982D3
:104E00005A826B827C82C7010F2C000CAA0BBB0B51
:104E10008D839E83AF83B8879E012F5E3F4FAE0187
:104E20004F5F5F4F68E070E08091D4049091D504AB
:104E30000E94BF1E8111B6CF89899A89089709F00F
:104E4000B1CFD6011296ED91FC91408151816281E2
:104E50007381D8014D935D936D937C931397448137
:104E600055816681778114964D935D936D937C9304
:104E70001797408551856285738518964D935D938C
:104E80006D937C931B9784859585A685B785F801DE
:104E900084879587A687B787108A118A128A138A12
:104EA00084E090E0A0E0B0E0848B958BA68BB78B7C
:104EB0008091DC029091DD02B0E0A0E0808F918FC4
:104EC000A28FB38FC5010B2C000CAA0BBB0B848FD8
:104ED000958FA68FB78FF401D801909690E080E06F
:104EE0008A159B055CF19E012F5E3F4FA801B7011B
:104EF0008091D4049091D5040E94BF1E811152CF9D
:104F000089899A89E816F90609F04CCFA70170E063
:104F100060E0C80175D28B8B9E012F5E3F4FAE01C2
:104F20004D5E5F4F61E070E08091D4049091D504B4
:104F30000E94BF1E81E08093D70434CF41915191EC
:104F400070E060E04D935D936D937D930196C8CFC3
:104F50008D859E85AF85B8890097A105B10521F49F
:104F600081E08093D60404CE0E948F1F009781F4C5
:104F700081E090E0A0E0B0E089839A83AB83BC83BA
:104F8000AE014F5F5F4F64E070E082E190E0AECE33
:104F9000BC01C6010E94ED1119821A821B821C827B
:104FA000AE014F5F5F4F64E070E082E190E0D9D9DD
:104FB0008823B1F2DDCDD6011496ED91FC910190DC
:104FC000F081E02DE084F1848FEF8983E114F10416
:104FD00009F472C0D7016D907C90C280D38070E0DC
:104FE00060E090E080E08615970594F083E190E022
:104FF0000E94151F10E000E08111BACD06151705BB
:105000005CF161E070E0CE0101960E944C1FB0CDD2
:105010009C0143E0220F331F4A95E1F7F701A2817B
:10502000B381A20FB31F1296ED91FC911397EE0F6F
:10503000FF1FEC0DFD1D0190F081E02D16964D91A6
:105040005C91E49F9001E59F300DF49F300D112499
:10505000620F731F0196C7CFD7011296ED91FC9195
:10506000C80123E0880F991F2A95E1F7E80FF91F7F
:10507000A080B180A281B381AA0FBB1FAC0DBD1D62
:105080002D913C9186819781289F4001299F900C0A
:10509000389F900C1124B401C5010E944C1F582E5A
:1050A000940150E040E06981C50196D18983511097
:1050B0005FCD0F5F1F4FA2CF70E060E083E190E013
:1050C0000E94151F55CD50E040E070E060E081E1A6
:1050D00090E047D981114CCD60E070E0CB010E9497
:1050E000B8138091BA04882329F0A80160E070E029
:1050F000CB0118DAA80160E070E0CB010E94BF127A
:1051000061E070E080E090E00E94B8138091BA0402
:10511000882331F0A80161E070E080E090E002DADD
:10512000A80161E070E080E090E00E94BF12109260
:10513000D8041092D7041092E4041092E3048091F2
:10514000D4049091D5040E940D1F12CD81E090E00F
:105150009093BC048093BB0450E040E070E060E0BA
:1051600086E190E0C3CD81E0F501808301CD8D859E
:105170009E850E948F1F2FEF3FEFA90161E070E035
:10518000009769F0DC01CD90DD90ED90FC90C701B7
:10519000B6010E947317A701960170E060E08EE1EE
:1051A00090E0C0CDC8010E94701FE2CCCF92DF9288
:1051B000EF92FF92CF93DF93EC01C12CD12C7601BB
:1051C000C701B6010E94B813AE01C701B601AAD942
:1051D000AE01C701B6010E94BF128091D004909128
:1051E000D104009731F00E943D341092D104109206
:1051F000D004CA94CD28CE28CF2879F58091D70441
:10520000F12C882351F050E040E070E060E084E150
:1052100090E0A7D8F82E1092D7048091D804882364
:1052200041F01092D80481E090E09093DD028093E9
:10523000DC028091D4049091D5040E94101F8091CB
:10524000D4049091D5040E94051F8F2DDF91CF913A
:10525000FF90EF90DF90CF900895C12CD12C760174
:10526000C394AECFCF93DF93EC01AC0160E070E06C
:10527000CB010E94A81BAE0161E070E080E090E0ED
:10528000DF91CF910C94A81B60E070E0CB010E94ED
:10529000151C61E070E080E090E00C94151CCF924A
:1052A000DF92EF92FF920F931F93CF93DF93EC0166
:1052B0006A017B0100E010E098010E94C31701E041
:1052C00010E020E030E0B701A601CE010E94C31734
:1052D000DF91CF911F910F91FF90EF90DF90CF90D2
:1052E000089568EE73E080E090E041D590E080E0C2
:1052F000089526E040E050E16EE070E082EF94E037
:10530000F7D682EF94E02AD6892B21F082EF94E041
:105310003FD6F7CF90E080E00895CF92DF92EF92F2
:10532000FF920F931F93CF93DF936B017A01E901F3
:105330001982188282EF94E011D6892B71F18601CF
:10534000CC24C39485E6D82E8091E504811111C048
:1053500082EF94E01DD685369105B1F7C092E50441
:10536000F801D1928F018881998101969983888370
:10537000EBCF888199818E159F0578F482EF94E0B8
:1053800007D68F3F9807A9F3F80181938F01888191
:105390009981019699838883ECCF90E080E0DF913A
:1053A000CF911F910F91FF90EF90DF90CF900895D4
:1053B0000F931F93CF93DF93EA01890182EF94E06B
:1053C0000E940833F801D183C08390E080E0DF9130
:1053D000CF911F910F910895DC01A40FB51F420FCB
:1053E000531F9D01281B390B2417350710F0862FFA
:1053F0000895ED91E627F0E0E05DFE4F6491F1CF76
:105400009A01AB016FEFE8CFCF93FC01E60FF71FD6
:10541000E40FF51FC081F4DF91E0C81390E0892FFD
:10542000CF9108958091E60491E0980F9093E6045F
:10543000882349F021E030E03093E8042093E7042A
:105440008093E604089578940E94AD05F8948091C5
:10545000E60481508093E6040C94921DFF920F9312
:105460001F93CF93DF931F92CDB7DEB71092090839
:1054700010920808B2D40E94E51D0091F402109128
:10548000F502F8011182108270E060E090E080E0A7
:105490000E949A1D0E94F40DF8947894C801869693
:1054A0000E94991D81E090E00E94961D1982AE0134
:1054B0004F5F5F4F61E070E0F801828193810E944D
:1054C000461D8981882319F081E0F80182A70E9496
:1054D0009F1DF8940E94381EF80180819181892BCC
:1054E00019F481E092A5911180E0809308087894E6
:1054F0007894FF24F39480910808811110C00E94D1
:10550000560F81E090E00E94971DF89490E080E0B3
:105510000F90DF91CF911F910F91FF900895198205
:10552000AE014F5F5F4F61E070E0F80182819381CF
:105530000E947E1D8981882311F0F801F2A6F801EE
:1055400080819181892B89F481E092A5911101C01C
:1055500080E0809309089091090881E0911180E032
:10556000809308080E94571EC6CF81E0F2CF5058A2
:10557000BB27AA270ED059C222D230F027D220F062
:1055800031F49F3F11F41EF4F2C10EF4E095E7FBF5
:10559000BFC1E92F6CD280F3BA1762077307840783
:1055A000950718F071F49EF59BC20EF4E0950B2E52
:1055B000BA2FA02D0B01B90190010C01CA01A00165
:1055C0001124FF27591B99F0593F50F4503E68F1C0
:1055D0001A16F040A22F232F342F4427585FF3CF01
:1055E000469537952795A795F0405395C9F77EF4D2
:1055F0001F16BA0B620B730B840BBAF09150A1F01B
:10560000FF0FBB1F661F771F881FC2F70EC0BA0FA0
:10561000621F731F841F48F4879577956795B79528
:10562000F7959E3F08F0B3CF9395880F08F0992720
:10563000EE0F979587950895DF93DD27B92FBF77F4
:1056400040E85FE31616170648075B0710F4D92FEA
:1056500052D29F938F937F936F93FFD2E4EEF0E04B
:1056600089D1E3D12F913F914F915F9157D2DD23A3
:1056700049F09058A2EA2AED3FE049EC5FE3D07888
:105680005D2787DFDF91D1C114D280F09F3740F4CE
:1056900091110EF426C260E070E080E89FE3089567
:1056A00026F01B16611D711D811D38C152C10CD120
:1056B00008F481E0089592D1E395C8C10CD0B5C13A
:1056C00085D140F07CD130F021F45F3F19F020C14A
:1056D000511107C24CC1CBD198F39923C9F355237B
:1056E000B1F3951B550BBB27AA27621773078407D5
:1056F00038F09F5F5F4F220F331F441FAA1FA9F38B
:1057000033D00E2E3AF0E0E830D091505040E6957C
:10571000001CCAF729D0FE2F27D0660F771F881FDD
:10572000BB1F261737074807AB07B0E809F0BB0BCC
:10573000802DBF01FF2793585F4F2AF09E3F5105F0
:1057400068F0E6C0CEC15F3FECF3983EDCF386958F
:1057500077956795B795F7959F5FC9F7880F911D66
:105760009695879597F90895E1E0660F771F881F52
:10577000BB1F621773078407BA0720F0621B730B05
:10578000840BBA0BEE1F88F7E0950895E89409C0E2
:1057900097FB3EF490958095709561957F4F8F4F64
:1057A0009F4F9923A9F0F92F96E9BB279395F6957A
:1057B000879577956795B795F111F8CFFAF4BB0FF8
:1057C00011F460FF1BC06F5F7F4F8F4F9F4F16C05C
:1057D000882311F096E911C0772321F09EE8872FE6
:1057E000762F05C0662371F096E8862F70E060E0A2
:1057F0002AF09A95660F771F881FDAF7880F96951B
:10580000879597F9089555D180F09F3740F491110D
:105810000EF067C160E070E080E89FEB089526F429
:105820001B16611D711D811D79C093C0C8D018F071
:1058300011F0CCD038F49BC054C1E92F18D1B0F38B
:105840005523C9F3E7FB6217730784079507A8F18F
:1058500099F3E92FFF2788232AF03197660F771FE6
:10586000881FDAF7952F5527442332F09150504086
:10587000220F331F441FD2F7BB27E91BF50B621B16
:10588000730B840BB109C1F222F4620F731F841FE2
:10589000B11D31972AF0660F771F881FBB1FEFCF0E
:1058A000915050405AF041F0882332F0660F771F34
:1058B000881F91505040C1F793954BC086957795BE
:1058C00067959F5FD9F7F8CF990F0008550FAA0B7E
:1058D000E0E8FEEF16161706E807F907C0F0121603
:1058E0001306E407F50798F0621B730B840B950B06
:1058F00039F40A2661F0232B242B252B21F408955B
:105900000A2609F4A140A6958FEF811D811D0895F7
:1059100097F99F6780E870E060E00895882371F44C
:10592000772321F09850872B762F07C0662311F438
:1059300099270DC09051862B70E060E02AF09A956F
:10594000660F771F881FDAF7880F9695879597F966
:1059500008959F3F31F0915020F487957795679592
:10596000B795880F911D9695879597F908959FEFA4
:1059700080EC0895DF93CF931F930F93FF92EF92E4
:10598000DF927B018C01689405C0DA2EEF01C6D04E
:10599000FE01E894A5912591359145915591AEF37D
:1059A000EF01F7DDFE019701A801DA9479F7DF90A6
:1059B000EF90FF900F911F91CF91DF9108950024F8
:1059C0000A941616170618060906089500240A9464
:1059D00012161306140605060895C9CF50D0E8F331
:1059E000E894E0E0BB279F57F0F02AED3FE049EC58
:1059F00006C0EE0FBB0F661F771F881F28F0B23A54
:105A000062077307840728F0B25A620B730B840B8A
:105A1000E3959A9572F7803830F49A95BB0F661F1C
:105A2000771F881FD2F7904896CF092E0394000C59
:105A300011F4882352F0BB0F40F4BF2B11F460FF28
:105A400004C06F5F7F4F8F4F9F4F0895EF93E0FF2C
:105A500006C0A2EA2AED3FE049EC5FEB9ADDE5DF04
:105A60000F90039401FC9058E1E1F1E000C157FD73
:105A70009058440F551F59F05F3F71F04795880FBC
:105A800097FB991F61F09F3F79F087950895121653
:105A900013061406551FF2CF4695F1DF08C01616FF
:105AA00017061806991FF1CF8695710561050894B0
:105AB0000895E5DFA0F0BEE7B91788F4BB279F384B
:105AC00060F41616B11D672F782F8827985FF7CFDF
:105AD000869577956795B11D93959639C8F3089586
