:1000000003C1000029C1000027C1000025C1000074
:1000100023C1000021C100001FC100001DC100005C
:100020001BC1000019C1000017C1000015C100006C
:1000300013C100000C94451F0FC100000DC100004A
:100040000C947F2F09C100000C9441320C94733240
:1000500003C1000001C10000FFC00000FDC000009E
:10006000FBC00000F9C00000084AD73B3BCE016E40
:1000700084BCBFFDC12F3D6C74319ABD56833DDAFF
:100080003D00C77F11BED9E4BB4C3E916BAAAABE0E
:10009000000000803F05A84CCDB2D44EB93836A937
:1000A000020C50B9918688083CA6AAAA2ABE000074
:1000B00000803F00001D3A2774694E53E8F5D2CF07
:1000C0009C81A6BBCDD0F7EAB9A4839E25381F0238
:1000D000514C6B76879ABDA0F3EEC9D46F72554828
:1000E0001B06213C4A57706D3E230419A2BF988518
:1000F000D6CBECF1130E2934677A5D40FBE6C1DC08
:100100008F92B5A8DEC3E4F9AAB7908D362B0C11F7
:10011000425F78659489AEB3E0FDDAC77C61465BE7
:100120000815322F5944637E2D30170AB1AC8B96D7
:10013000C5D8FFE2263B1C01524F6875CED3F4E9C7
:10014000BAA7809DEBF6D1CC9F82A5B8031E3924B7
:10015000776A4D50A1BC9B86D5C8EFF24954736EA7
:100160003D20071A6C71564B1805223F8499BEA397
:10017000F0EDCAD735280F12415C7B66DDC0E7FA87
:10018000A9B4938EF8E5C2DF8C91B6AB100D2A3777
:1001900064795E43B2AF8895C6DBFCE15A47607D67
:1001A0002E3314097F6245580B16312C978AADB057
:1001B000E3FED9C4000000080002010000030407A8
:1001C0000000000000000000010204081020408030
:1001D0000102040810200102040810200404040491
:1001E00004040404020202020202030303030303E1
:1001F00000000000250028002B0000000000240063
:1002000027002A00271F983211241FBECFEFD8E005
:10021000DEBFCDBF12E0A0E0B1E0EEE2FCE602C03E
:1002200005900D92A63FB107D9F725E0A6EFB2E001
:1002300001C01D92A137B207E1F711E0C4E0D1E09F
:1002400004C02197FE010E947334C230D107C9F760
:100250000E94652B0C941536D3CECF93DF93882361
:1002600049F0EB0181500E946A3099838883DF91C5
:10027000CF910895FB0111821082F9CF0F931F9344
:100280008B019C0183E036952795179507958A95F4
:10029000D1F70A501D4F462F477021E030E0F90199
:1002A00002C0EE0FFF1F4A95E2F7AF01F80120816F
:1002B0002423CB010196211102C090E080E01F9120
:1002C0000F9108950F931F938B019C0183E0369546
:1002D0002795179507958A95D1F7677081E090E08B
:1002E00001C0880F6A95EAF7F801EA50FD4F2081B6
:1002F000452B31F48095822380831F910F910895BF
:10030000822BFACFCF92DF92EF92FF92CF93DF93BF
:100310006B017C0160E08EE0C816D104E104F104B9
:1003200090F48EE08C0D0E94AE30E6012196AE0175
:10033000C701B601C7DFCE01DF91CF91FF90EF90EB
:10034000DF90CF9008958C2DEECF882341F081501F
:10035000682F70E090E080E050E040E0B3CF089577
:1003600060E070E080E89FE7089560E070E080E87A
:100370009FE7089560E070E080E89FEF089560E0F7
:1003800070E080E89FEF089560E070E080EC9FEF00
:10039000089560E070E080EC9FEF0895F5DF6093D2
:1003A000DB047093DC048093DD049093DE04F1DFC2
:1003B0006093CF047093D0048093D1049093D204BF
:1003C000CFDF6093D7047093D8048093D9049093BF
:1003D000DA04CBDF6093D3047093D4048093D50404
:1003E0009093D604C7DF6093DF047093E00480939A
:1003F000E1049093E204C3DF6093E3047093E404A8
:100400008093E5049093E6040895CF92DF92EF92F3
:10041000FF92CF936B017C01AC019B016091D704EB
:100420007091D8048091D9049091DA040E948E2CA6
:10043000C1E0882371F0A70196016091DF047091FB
:10044000E0048091E1049091E2040E948E2C8111DD
:10045000C0E08C2FCF91FF90EF90DF90CF90089568
:100460000F931F938B019C010027112720783F7762
:100470000115110520483F4749F4AB01BC016F77D6
:10048000772781E0452B462B472B09F480E01F910D
:100490000F910895E5CF4F925F926F927F928F9266
:1004A0009F92AF92BF92CF92DF92EF92FF920F9303
:1004B0001F93CF93DF93CDB7DEB768970FB6F8944D
:1004C000DEBF0FBECDBF69837A838B839C832901F6
:1004D0003A01E986FA860B871C87AD8ABE8ACF8AE5
:1004E000D88E0BA91CA92DEC3CEC4CE45EE36FA567
:1004F00078A989A99AA90E948E2C87FF16C02DEC95
:100500003CEC4CE45FE36FA578A989A99AA90E9405
:10051000AE2E181654F480E090E0A8E4B3E4F8019D
:1005200080839183A283B3838AC029853A854B85D2
:100530005C8569817A818B819C810E94EF2B4B01C4
:100540005C0120E030E0A9010E948E2C882309F490
:10055000E1C029813A814B815C81CA01B9010E94C5
:10056000B92E6D837E838F839887A3019201C30187
:10057000B2010E94B92E6D877E878F87988B9B0171
:10058000AC016D817E818F8198850E94EF2B6B017C
:100590007C0129853A854B855C85CA01B9010E9499
:1005A000B92E9B01AC01C701B6010E94EE2B0E943F
:1005B000262F6B017C0129853A854B855C856981F5
:1005C0007A818B819C810E94B92E698B7A8B8B8B6F
:1005D0009C8BA7019601C301B20190580E94B92ECD
:1005E0002D813E814F8158850E94EF2B29893A89C0
:1005F0004B895C890E94EF2B2D853E854F8558895C
:100600000E94EF2B20E030E0A9010E948E2CA70170
:100610009601882309F45AC0C301B2010E94EE2B4F
:10062000A50194010E94952C0E94532C9B01AC01C2
:100630000E94EF2BF80160837183828393832BEDFB
:100640003FE049E450E46BA57CA58DA59EA50E94E2
:10065000B92E20E030E044E353E40E94952C9B0146
:10066000AC01F80160817181828193810E94EE2B3F
:100670002D893E894F89588D0E94952C20E030E0CD
:1006800044E353E40E94B92E2BED3FE049E450E4EB
:100690000E94952CF801608371838283938368960E
:1006A0000FB6F894DEBF0FBECDBFDF91CF911F9183
:1006B0000F91FF90EF90DF90CF90BF90AF909F9001
:1006C0008F907F906F905F904F900895C301B2011B
:1006D0000E94B92E2D813E814F8158850E94EF2BBB
:1006E00029893A894B895C890E94EF2B2D853E85AB
:1006F0004F8558890E94EF2B20E030E0A9010E942D
:100700008E2C882339F0A7019601C301B2010E9403
:10071000EF2B86CF20E030E0A901C301B2010E9497
:100720008E2C8823D9F129813A814B815C81CA01C1
:10073000B9010E94B92E6B017C01A3019201C30192
:10074000B2010E94B92E9B01AC01C701B6010E9403
:10075000EF2B20E030E0A9010E948E2C8823F1F0DD
:1007600029853A854B855C8569817A818B819C815D
:1007700090580E948E2C811111C0A30192016981B1
:100780007A818B819C810E94952C0E94532C20E0C1
:1007900030E040E050EC0E94B92E4CCF69857A855C
:1007A0008B859C85905829813A814B815C810E9480
:1007B0008E2C811105C08BED9FE0A9E4B0E4AFCE93
:1007C00080E090E0AAE7B4E4AACE4F925F926F92E5
:1007D0007F928F929F92AF92BF92CF92DF92EF92D1
:1007E000FF92CF93DF9300D000D0CDB7DEB74B019F
:1007F0005C0169017A014EDE8823E9F08090DB0418
:100800009090DC04A090DD04B090DE04C501B4013A
:100810000F900F900F900F90DF91CF91FF90EF907E
:10082000DF90CF90BF90AF909F908F907F906F9010
:100830005F904F900895C701B6012CDE8111DECF85
:10084000C501B401E2DD8111D9CFC701B601DDDDFB
:100850008111DCCF20E030E0A901C701B6010E9480
:100860008E2C87FF4CC0C701B6010E947B2C2B0148
:100870003C01A3019201C701B6010E948E2C88237E
:1008800009F44CC0A7019601C501B4010E94952C42
:100890002B013C01E89477F820E030E040E05FE392
:1008A000C301B2010E94EF2B0E943A2D9B01AC01C3
:1008B000C301B2010E94EE2B9B01AC015F7729833B
:1008C0003A834B835C8320E030E040E054E3C30193
:1008D000B2010E94B92E9B01AC0169817A818B81A2
:1008E0009C810E94AE2E1816CCF020E030E0A901C9
:1008F000C501B4010E94B92E4B015C0187CFC7012D
:10090000B6010E943A2D2B013C0120E030E0A90104
:10091000C701B6010E948E2C8111ABCFA7019601B1
:10092000C501B4010F900F900F900F90DF91CF9100
:10093000FF90EF90DF90CF90BF90AF909F908F90FF
:100940007F906F905F904F900C94542D8F929F9258
:10095000AF92BF92CF92DF92EF92FF92CF93DF934D
:10096000EC0168E471E68CE391E44FDD8823B9F093
:100970008091DB049091DC04A091DD04B091DE0451
:1009800088839983AA83BB83DF91CF91FF90EF90F7
:10099000DF90CF90BF90AF909F908F900895688127
:1009A00079818A819B8176DD8111E2CF68817981AD
:1009B0008A819B8120E030E044EB53E406DF6B0149
:1009C0007C01C0926305D0926405E0926505F092C7
:1009D00066059F7760936705709368058093690546
:1009E00090936A0520E030E044E353E40E94AE2E89
:1009F00018165CF520E030E0A901C701B6010E949D
:100A0000AE2E20E030E044EB53E418160CF04EC05C
:100A1000C701B6010E94EE2B6093630570936405D5
:100A200080936505909366058091630590916405B8
:100A3000A0916505B0916605BF7780936705909397
:100A40006805A0936905B0936A058090670590904A
:100A50006805A0906905B0906A05C0906305D090C4
:100A60006405E0906505F090660520E030E044E321
:100A700052E4C501B4010E948E2C1816E4F025E35F
:100A80003AEF4EE85CE3C701B6010E94B92E6093CD
:100A900063057093640580936505909366050E94D5
:100AA000922C688379838A839B836ECFC701B601BA
:100AB0000E94EF2BB1CF20E030E047E053E4C501C6
:100AC000B4010E948E2C20E030E0A9011816ACF190
:100AD000C701B6010E94AE2E20E030E044EB52E4A4
:100AE0001816B4F4C701B6010E94EE2B25E33AEFC5
:100AF0004EE85CE30E94B92E609363057093640531
:100B000080936505909366050E941C2F9058C9CF6D
:100B1000C701B6010E94EF2B25E33AEF4EE85CE3F4
:100B20000E94B92E609363057093640580936505F8
:100B3000909366050E941C2FB4CFC701B6010E9496
:100B4000AE2E20E030E044E353E41816ECF4C70185
:100B5000B6010E94EE2B25E33AEF4EE85CE30E94DB
:100B6000B92E609363057093640580936505909337
:100B700066056091630570916405809165059091AB
:100B800066050E94922CC2CFC701B6010E94EF2BCE
:100B9000E2CF2F923F924F925F926F927F928F920D
:100BA0009F92AF92BF92CF92DF92EF92FF920F93FC
:100BB0001F93CF93DF93CDB7DEB769970FB6F89445
:100BC000DEBF0FBECDBFC0907A01D0907B01E09018
:100BD0007C01F0907D01A70196016091FB0470916A
:100BE000FC048091FD049091FE040E948E2C8823C9
:100BF00041F0C092FB04D092FC04E092FD04F0921C
:100C0000FE046EE070E080E090E038DB9093FA0440
:100C10008093F90443E050E0BE016D5F7F4F1DDB20
:100C2000C0907201D0907301E0907401F090750152
:100C3000A701960160911305709114058091150527
:100C4000909116050E948E2C882341F0C0921305C6
:100C5000D0921405E0921505F09216056FE070E051
:100C600080E090E00BDB909312058093110543E048
:100C700050E0BE01695F7F4FF0DAC0906A01D0900A
:100C80006B01E0906C01F0906D01A70196016091FD
:100C90002B0570912C0580912D0590912E050E94B9
:100CA0008E2C882341F0C0922B05D0922C05E09227
:100CB0002D05F0922E0560E170E080E090E0DEDA34
:100CC00090932A058093290543E050E0BE01655FBB
:100CD0007F4FC3DAC0907E01D0907F01E090800109
:100CE000F0908101A70196016091EF047091F004EA
:100CF0008091F1049091F2040E948E2C882341F09F
:100D0000C092EF04D092F004E092F104F092F20469
:100D100061E170E080E090E0B1DA9093EE048093BE
:100D2000ED0443E050E0BE016F5F7F4F96DAC09064
:100D30006E01D0906F01E0907001F0907101A701F9
:100D4000960160911F057091200580912105909179
:100D500022050E948E2C882341F0C0921F05D0925C
:100D60002005E0922105F092220562E170E080E02A
:100D700090E084DA90931E0580931D0543E050E0D7
:100D8000BE01675F7F4F69DAC0907601D09077012E
:100D9000E0907801F0907901A70196016091070534
:100DA000709108058091090590910A050E948E2C8A
:100DB000882341F0C0920705D0920805E09209050A
:100DC000F0920A0563E170E080E090E057DA9093DA
:100DD00006058093050543E050E0BE016B5F7F4F41
:100DE0003CDAEB80FC80C701B0E0A0E08D879E87F5
:100DF000AF87B88BB701CD010E94FD2C2DEB37E3F7
:100E000046E855E30E94EF2B2B013C010D811E812A
:100E1000C801B0E0A0E0898B9A8BAB8BBC8BB8018A
:100E2000CD010E94FD2C2DEB37E346E855E30E94EF
:100E3000EF2B4B015C01AC019B01C301B2010E948D
:100E4000952C20E030E040EC5FE30E948E2C87FF81
:100E50006CC0A3019201C501B4010E94952C20E051
:100E600030E040EC5FE30E948E2C87FF5EC08F81F4
:100E70009885409708F459C089859A85409708F469
:100E800054C08DEC9CECA4EEBFE38093430590939B
:100E90004405A0934505B093460588E491E6ACE38C
:100EA000B1E48093470590934805A0934905B0931A
:100EB0004A054FE852EC69EC7FE340934B055093B1
:100EC0004C0560934D0570934E0580934F059093AC
:100ED0005005A0935105B09352058FE495E036DD9F
:100EE0002FE832EC49EC5FE360914F0570915005BB
:100EF00080915105909152050E94EF2B27E830EF29
:100F000048E450E40E94952C60933B0570933C05A7
:100F100080933D0590933E0510923F051092400549
:100F2000109241051092420580C00E151F0508F071
:100F30007AC1AF80B884AE14BF0408F02AC1898496
:100F40009A84A016B10620F48016910608F441C0D8
:100F5000B50190E080E00E94FD2C6B017C01B401A2
:100F600090E080E00E94FD2C2B013C012DEB37E34B
:100F700046E855E30E94EF2B9B01AC01C701B60187
:100F80000E94952C20E030E040E250E40E948E2C3C
:100F900087FFFFC02DEB37E346E855E3C701B601F5
:100FA0000E94EF2B9B01AC01C301B2010E94952C62
:100FB00020E030E040E250E40E948E2C87FFE9C040
:100FC0009AE0A916B10428F0AAE08A16910408F064
:100FD000E0C080E090E0A0E8BFE3809343059093F9
:100FE0004405A0934505B09346051092470510921D
:100FF00048051092490510924A0510924B0510922F
:101000004C0510924D0510924E0510923B05109222
:101010003C0510923D0510923E0580933F0590934C
:101020004005A0934105B09342050B851C854801FE
:10103000B12CA12CC501B8010E94FD2C6D877E87C3
:101040008F87988B29803A802101712C612CC301F4
:10105000B1010E94FD2C698B7A8B8B8B9C8B2DEBC5
:1010600037E346E855E36D857E858F8598890E9434
:10107000EF2B6B017C012DEB37E346E855E36989E3
:101080007A898B899C890E94EF2B9B01AC01C70157
:10109000B6010E94952C20E030E040E050E40E9430
:1010A0008E2C87FFD9C16F81788590E080E00E9407
:1010B000FD2C2DEB37E346E855E30E94EF2B6B0147
:1010C0007C0169857A8590E080E00E94FD2C2DEB03
:1010D00037E346E855E30E94EF2B9B01AC01C701C3
:1010E000B6010E94952C20E030E040E050E40E94E0
:1010F0008E2C87FFB1C18DEC9CECA4EEBFE38093F6
:101100004F0590935005A0935105B093520588E484
:1011100091E6ACE3B1E48093530590935405A0931A
:101120005505B09356054FE852EC69EC7FE34093C8
:101130005705509358056093590570935A0580934D
:101140005B0590935C05A0935D05B0935E058BE510
:1011500095E0FCDB2FE832EC49EC5FE360915B0546
:1011600070915C0580915D0590915E050E94EF2B6A
:1011700027E830EF48E450E40E94952C60935B052B
:1011800070935C0580935D0590935E05312C212C56
:10119000B4C18FE892ECA7E1B0E48093430590934B
:1011A0004405A0934505B09346058BE296EFA4E372
:1011B000B0E48093470590934805A0934905B09308
:1011C0004A058FEE99ECA3E6BFE380934B0590931D
:1011D0004C05A0934D05B0934E056501F12CE12C13
:1011E000C701B5010E94FD2C4B015C016D857E8518
:1011F0008F8598896C0D7D1D8E1D9F1D0E94FF2C73
:101200009B01AC01C501B4010E94952C60933B0584
:1012100070933C0580933D0590933E0580E090E0FF
:10122000A0E8BFE3FACEE016F10608F0BCC0C9841E
:10123000DA84C016D10608F071C00F8118850E152A
:101240001F0520F4CE14DF0408F43FC0B80190E07D
:1012500080E00E94FD2C2B013C01B60190E080E073
:101260000E94FD2C4B015C012DEB37E346E855E372
:101270000E94EF2B9B01AC01C301B2010E94952C8F
:1012800020E030E040E250E40E948E2C87FF46C010
:101290002DEB37E346E855E3C301B2010E94EF2B83
:1012A0009B01AC01C501B4010E94952C20E030E007
:1012B00040E250E40E948E2C87FF30C00F301105B1
:1012C00020F0BFE0CB16D10448F580E090E0A0E824
:1012D000BFE38093430590934405A0934505B093E5
:1012E0004605109247051092480510924905109244
:1012F0004A0510924B0510924C0510924D05109224
:101300004E0510923B0510923C0510923D0510923F
:101310003E0580E090E0A0E8BFEB7FCE88E599E352
:10132000A4E1B0E48093430590934405A093450560
:10133000B09346058FE892E4ABEAB1EC80934705A1
:1013400090934805A0934905B0934A0585E69AEA2B
:10135000ACE5BFE380934B0590934C05A0934D05FE
:10136000B0934E05F12CE12CC701B6010E94FD2C73
:101370004B015C0169897A898B899C896C0D7D1D83
:101380008E1D9F1D0E94FF2C9B01AC01C501B40165
:101390000E94952C60933B0570933C0580933D051E
:1013A00090933E05B6CF20E1E216F10480F58F81DF
:1013B0009885069760F589859A85069740F50031EE
:1013C000110528F580E090E0A0E8BFE38093430595
:1013D00090934405A0934505B093460510924705A8
:1013E000109248051092490510924A0510924B053B
:1013F00010924C0510924D0510924E0580933B05BE
:1014000090933C05A0933D05B0933E0506CE80E049
:1014100090E0A0E8BFE38093430590934405A09338
:101420004505B09346051092470510924805109265
:10143000490510924A0510924B0510924C051092E6
:101440004D0510924E0580933B0590933C05A0936B
:101450003D05B0933E0560CDD501C4010596A11DA3
:10146000B11D84159505A605B7050CF023C3C984E5
:10147000DA84C016D106D0F0F12CE12CC701B601F8
:101480000E94FD2C4B015C012D853E854F855889BE
:101490000E94952C20E030E040E250E40E948E2C27
:1014A00087FFCDC20A30110508F0C9C280E090E084
:1014B000A0E8BFE380934F0590935005A09351059A
:1014C000B093520510925305109254051092550591
:1014D0001092560510925705109258051092590512
:1014E00010925A0510925B0510925C0510925D05F2
:1014F00010925E0522242394312C80913B058D8B24
:1015000090913C05998F00913D0510913E05A0906A
:101510004305B0904405C0904505D09046054090E5
:101520008601509087016090880170908901209118
:101530009A0130919B0140919C0150919D016091D5
:1015400096017091970180919801909199010E9464
:10155000952CA30192010E94B92EA60195010E942B
:10156000B92E0E941C2F6D877E878F87988B2091C4
:101570008E0130918F0140919001509191016091C5
:101580008A0170918B0180918C0190918D010E9454
:10159000952CA30192010E94B92EA60195010E94EB
:1015A000B92E0E94922C698B7A8B8B8B9C8B20910D
:1015B000A2013091A3014091A4015091A501FD88A1
:1015C000E98C902E812E6F2D7E2D802F912F0E94E1
:1015D000B92E9B01AC0160919E0170919F01809199
:1015E000A0019091A1010E94EE2B20914B0530911A
:1015F0004C0540914D0550914E050E94B92E6D8BC2
:101600007E8B8F8B988F2091920130919301409126
:10161000940150919501D701F4016B2F7A2F8F2FF0
:101620009E2F0E94B92E2D853E854F8558890E9498
:10163000B92E2B013C012091820130918301409110
:10164000840150918501D701F4016B2F7A2F8F2FE0
:101650009E2F0E94EE2B6D877E878F87988B29891E
:101660003A894B895C89D701F4016B2F7A2F8F2F30
:101670009E2F0E94B92E9B01AC016D857E858F85C2
:1016800098890E94EF2BAFE5B5E0BF93AF931F930E
:101690000F93EF92FF9220914A052F9320914905D5
:1016A0002F93209148052F93209147052F93ED8884
:1016B000FE880F89188DA30192010E944B02209190
:1016C0003F053091400540914105509142056091A0
:1016D0005F057091600580916105909162050E949F
:1016E000B92E60933305709334058093350590933C
:1016F000360530915B053D8B40915C05498F00912B
:101700005D0510915E05A0904F05B0905005C0900A
:101710005105D09052054090AA015090AB016090C5
:10172000AC017090AD012091BE013091BF0140919C
:10173000C0015091C1016091BA017091BB018091CB
:10174000BC019091BD010E94952CA30192010E94C1
:10175000B92EA60195010E94B92E0E941C2F6D87FB
:101760007E878F87988B2091B2013091B301409191
:10177000B4015091B5016091AE017091AF018091BB
:10178000B0019091B1010E94952CA30192010E9499
:10179000B92EA60195010E94B92E0E94922C698B48
:1017A0007A8B8B8B9C8B2091C6013091C701409125
:1017B000C8015091C901FD88E98C902E812E6F2DB2
:1017C0007E2D802F912F0E94B92E9B01AC0160913C
:1017D000C2017091C3018091C4019091C5010E9422
:1017E000EE2B2091570530915805409159055091A5
:1017F0005A050E94B92E6D8B7E8B8F8B988F20910E
:10180000B6013091B7014091B8015091B901D701AB
:10181000F4016B2F7A2F8F2F9E2F0E94B92E2D85CA
:101820003E854F8558890E94B92E2B013C0120919D
:10183000A6013091A7014091A8015091A901D701BB
:10184000F4016B2F7A2F8F2F9E2F0E94EE2B6D8726
:101850007E878F87988B29893A894B895C89D70144
:10186000F4016B2F7A2F8F2F9E2F0E94B92E9B0190
:10187000AC016D857E858F8598890E94EF2BAFE541
:10188000B5E0BF93AF931F930F93EF92FF92209118
:1018900056052F93209155052F93209154052F9392
:1018A000209153052F93ED88FE880F89188DA30191
:1018B00092010E944B02B101330C880B990B0E94DC
:1018C000FF2C9B01AC0160915F05709160058091D8
:1018D0006105909162050E94B92E6093370570935F
:1018E00038058093390590933A054FE255E067E358
:1018F00075E083E395E00E94B11E4FE255E067E397
:1019000075E083E395E00E94011F81E090E00E9472
:10191000ED1C4091490350914A0360914B03709133
:101920004C0390E080E00E94E91C80905503909069
:101930005603A0905703B09058030FB6F894DEBF3B
:101940000FBECDBF20E030E040E85FEBC501B40141
:101950000E948E2C882331F1C0904903D0904A0315
:10196000E0904B03F0904C03A7019601C501B40130
:101970000E94EE2B4B015C0120E030E040E054E39C
:10198000C701B6010E94B92E9B01AC01C501B4018B
:101990000E94AE2E181634F08FEC91E09093340331
:1019A0008093330380915903882331F08FEC91E0C9
:1019B000909334038093330360914D0370914E03F1
:1019C00080914F03909150036F5F7F4F8F4F9F4FD8
:1019D00060934D0370934E0380934F039093500395
:1019E0000E94FD2C9B01AC01609151037091520348
:1019F00080915303909154030E94B92E6093490340
:101A000070934A0380934B0390934C0369960FB6EF
:101A1000F894DEBF0FBECDBFDF91CF911F910F9124
:101A2000FF90EF90DF90CF90BF90AF909F908F90FE
:101A30007F906F905F904F903F902F9008958DEC26
:101A40009CECA4EEBFE380934F0590935005A093C8
:101A50005105B093520588E491E6ACE3B1E480937C
:101A6000530590935405A0935505B09356058FE800
:101A700092ECA9ECBFE38093570590935805A0938F
:101A80005905B0935A05C701B601640D751D861D31
:101A9000971D0E94FF2C9B01AC01C501B4010E945F
:101AA000952C60935B0570935C0580935D05909326
:101AB0005E0520CD7301620135E0C30ED11CE11C2F
:101AC000F11CC814D904EA04FB040CF014CBCF8039
:101AD000D884C214D304D0F0F12CE12CC701B60194
:101AE0000E94FD2C2B013C0129893A894B895C8994
:101AF0000E94952C20E030E040E250E40E948E2CC1
:101B000087FF2CC04AE02416310440F580E090E0C5
:101B1000A0E8BFE380934F0590935005A093510533
:101B2000B09352051092530510925405109255052A
:101B300010925605109257051092580510925905AB
:101B400010925A0510925B0510925C0510925D058B
:101B500010925E0522242A94322CCFCC8DEC9CEC82
:101B6000A4EEBFE380934F0590935005A0935105D9
:101B7000B093520588E491E6ACE3B1E48093530559
:101B800090935405A0935505B09356058FE892ECB9
:101B9000A9ECBFE38093570590935805A09359058E
:101BA000B0935A05C701B601680D791D8A1D9B1DAA
:101BB0000E94FF2C9B01AC01C301B2010E94952C35
:101BC00060935B0570935C0580935D0590935E0563
:101BD000C1CF8F929F92AF92BF92CF92DF92EF923E
:101BE000FF921F93CF93DF9384E090E00E94CE0199
:101BF000A3E3B3E040E050E060E271E492964D93DD
:101C00005D936D937C9395974DEC5CEC6CEC7DE370
:101C10005E964D935D936D937C9391974DE852E75B
:101C200066EF78E814964D935D936D937C931797C8
:101C30004EED50E564E274E818964D935D936D9314
:101C40007C931B9741E450E86DE070EB1C964D933C
:101C50005D936D937C931F9744E159E76EE073EEBB
:101C600050964D935D936D937C935397C7E2D3E069
:101C70001396DC93CE931297E3E1F3E0F983E883C4
:101C800083EE91E091838083938382839583848321
:101C900097838683918780879387828795878487B8
:101CA00097878687918B808B938B828B87E493E0D9
:101CB0009D838C8387E393E09B838A8389E493E00D
:101CC0009F838E83E9E0F3E08AE0EF0119928A9521
:101CD000E9F7EFEFF2E05596FC93EE9354978FE01F
:101CE00090E0918380838CE491E0938382838EE201
:101CF00091E09583848382E191E09783868386E0F7
:101D000091E091878087C7EED4E010922F05109262
:101D1000300510923105109232051C868AE6E82EB5
:101D200081E0F82EF70180899189A289B3898C8B93
:101D30009D8BAE8BBF8B198A812C912C540183947F
:101D40008D869E86AF86B88A6EE070E080E090E077
:101D50000E9482019B8B8A8B11E0198B1CA2F701D8
:101D600080859185A285B3858CA79DA7AEA7BFA7C7
:101D700019A68DA29EA2AFA2B8A66FE070E080E087
:101D800090E00E9482019BA78AA719A71CAEF701C9
:101D900080819181A281B38180932B0590932C0542
:101DA000A0932D05B0932E0528E2C22E25E0D22E59
:101DB000F60110828092240590922505A0922605B6
:101DC000B092270560E170E080E090E00E9482011F
:101DD00090932A0580932905F60110831882F70154
:101DE00084899589A689B78988879987AA87BB87B7
:101DF0001D8289829A82AB82BC8261E170E080E0C0
:101E000090E00E9482019F838E831D8318AAF701B0
:101E100084819581A681B78188AF99AFAAAFBBAF06
:101E20001DAA89AA9AAAABAABCAA62E170E080E0C6
:101E300090E00E9482019FAB8EAB1DAB188EF70124
:101E400084859585A685B78588A399A3AAA3BBA3F6
:101E50001D8E898E9A8EAB8EBC8E63E170E080E021
:101E600090E00E9482019F8F8E8F1D8FDF91CF9116
:101E70001F91FF90EF90DF90CF90BF90AF909F9019
:101E80008F9008958091F30481111FC081E08093A9
:101E9000F3048091F4049091F504A091F604B091BC
:101EA000F7040197A105B10581F48091F804882316
:101EB00061F06EE070E080E090E00E943E0190935F
:101EC000FA048093F9040E94A50180910B05811109
:101ED0001FC081E080930B0580910C0590910D054A
:101EE000A0910E05B0910F050197A105B10581F4F0
:101EF00080911005882361F06FE070E080E090E051
:101F00000E943E0190931205809311050E94A50145
:101F10008091230581111FC081E08093230580916A
:101F2000240590912505A0912605B09127050197DC
:101F3000A105B10581F480912805882361F060E155
:101F400070E080E090E00E943E0190932A0580932B
:101F500029050E94A5018091E70481111FC081E03D
:101F60008093E7048091E8049091E904A091EA0449
:101F7000B091EB040197A105B10581F48091EC04C7
:101F8000882361F061E170E080E090E00E943E0112
:101F90009093EE048093ED040E94A50180911705B3
:101FA00081111FC081E080931705809118059091E1
:101FB0001905A0911A05B0911B050197A105B1055E
:101FC00081F480911C05882361F062E170E080E07B
:101FD00090E00E943E0190931E0580931D050E9493
:101FE000A5018091FF0481111FC081E08093FF044F
:101FF0008091000590910105A0910205B091030523
:102000000197A105B10581F480910405882361F051
:1020100063E170E080E090E00E943E01909306054D
:10202000809305050C94A5010895EF92FF920F93FC
:102030001F93CF93DF93EA01F901DC011496ED9031
:10204000FC90159712964D915C9113974E0D5F1D64
:102050002881398118960D911C9119970217130741
:1020600030F00D911C911197012B09F441C08A01A8
:10207000021B130BDC0118968D919C918E199F0900
:10208000800F911F86179707DCF1C901860F971FF4
:102090008417950778F471836083338322831582D4
:1020A00014821782168288819981680F791F79833B
:1020B000688316C01183008333832283601B710BF6
:1020C0007583648390E080E01616170614F49E2D45
:1020D0008F2D96838783D701A60FB71FB983A88357
:1020E00080E0DF91CF911F910F91FF90EF900895C5
:1020F00018968D919C91821B930B861797075CF61F
:1021000081E0EFCFCF92DF92EF92FF92CF93DF93F8
:102110006B0184E4869FE001879FD00D1124C65A8D
:10212000DC4F8AA99BA9009721F00E9473351BAA56
:102130001AAA84E48C9DF0018D9DF00D1124E65ABD
:10214000FC4F86A997A9009711F00E94733584E48B
:102150008C9DF0018D9DF00D1124E65AFC4F138AE1
:10216000128A168A178A108E118E128E138E148E72
:10217000158E168E178E10A211A281E090E093A307
:1021800082A315A214A216A217A210A611A613A626
:1021900012A615A614A616A617A610AA11AA13AA67
:1021A00012AA15AA14AA17AA16AA11AE10AE12AE38
:1021B00013AE14AE15AEDF01DE961D921D921D9278
:1021C0001C921397EE5BFF4F11821082DF91CF912B
:1021D000FF90EF90DF90CF900895CF93DF93FB01B6
:1021E000DC016D917C91DB011696CD91DC918081B3
:1021F000918123E0880F991F2A95E1F7AA81BB817D
:10220000A80FB91F8D919C91119724853585220FB8
:10221000331FEB016A817B81EB01C20FD31F099051
:10222000D881C02D14962D913C9161E070E0232B54
:1022300011F062E070E0C69F9001C79F300DD69FFD
:10224000300D1124A085B1852A9FB0012B9F700D00
:102250003A9F700D1124A481B5812A9FF0012B9F14
:10226000F00D3A9FF00D11248E0F9F1FFA019183FC
:10227000808373836283DF91CF9108952F923F9281
:102280004F925F926F927F928F929F92AF92BF9286
:10229000CF92DF92EF92FF920F931F93CF93DF9332
:1022A00000D000D000D0CDB7DEB7DC011496ED91A0
:1022B000FC910190F081E02D808591859A8389833E
:1022C000A281B381BC83AB83FB0181909190A190EB
:1022D000B190C12CD12C7601C814D904EA04FB04B6
:1022E000CCF026960FB6F894DEBF0FBECDBFDF91BF
:1022F000CF911F910F91FF90EF90DF90CF90BF9003
:10230000AF909F908F907F906F905F904F903F9095
:102310002F90089544805580668077804085518550
:1023200062857385CF0140969E838D83A081B181A4
:102330009D0183E0220F331F8A95E1F7A981BA81BD
:1023400012968D919C91D901A80FB91F2D903C90A8
:1023500011970484F585E02DEE0FFF1F8B819C8182
:10236000E80FF91F0190F081E02D14968D919C915A
:10237000892B41F581E090E0E89F9001E99F300DC5
:10238000F89F300D1124249F8001259F100D349F4C
:10239000100D1124249DC001259D900D349D900D9C
:1023A0001124A8016D817E81820D931D0E94FC3550
:1023B000ED81FE81E00FF11F9FEFC91AD90AE90AEA
:1023C000F90A8ACF82E090E0D7CFCF93DF93DB0189
:1023D000A653BE4F2C91222369F024E4269FF001DE
:1023E000279FF00D1124E65AFC4FEF0119922A9510
:1023F000E9F71C9224E4269FF001279FF00D112499
:10240000E65AFC4F148215821682178211861086B6
:1024100013861286118A108A17861686DF91CF914D
:1024200071CE2F923F924F925F926F927F928F92D6
:102430009F92AF92BF92CF92DF92EF92FF920F9353
:102440001F93CF93DF93CDB7DEB728970FB6F894DD
:10245000DEBF0FBECDBF24E4269FF001279FF00D05
:102460001124E65AFC4F0481158126813781012B06
:10247000022B032B09F4B7C02A016B017C0110E089
:1024800000E0812C912C54013F019F01285F3F4FB8
:102490003C832B83CF0104969E838D83AB81BC81CB
:1024A0008D919C91ED81FE8140815181628173818A
:1024B00084169506A606B706E4F10E947335D3018B
:1024C0001A968D919C91892B09F07EC084E48C9D95
:1024D000D0018D9DB00D1124A65ABC4FBC83AB8397
:1024E00050968D919C910E947335EB81FC8186857D
:1024F00097850E947335C701B60104DEC701B60196
:1025000028960FB6F894DEBF0FBECDBFDF91CF91F6
:102510001F910F91FF90EF90DF90CF90BF90AF9001
:102520009F908F907F906F905F904F903F902F90F3
:102530004CCFFC01E00FF11F92819983A381AA8304
:102540009F83A887312C212C2414350464F08981C1
:102550009A810E947335EFEF8E1A9E0AAE0ABE0A68
:102560000C5F1F4F9BCFAF81B885ED91FD91B88770
:10257000AF83309759F0848195810E947335EF8144
:10258000F8853297808191810E947335BFEF2B1AB5
:102590003B0ADACF800F911FFC01848195810E9454
:1025A00073352B813C812F5F3F4F3C832B83025F30
:1025B0001F4FF501808191812B813C8124153505C8
:1025C0004CF30E94733582CF10E000E01C821B8226
:1025D00024E42C9DC0012D9D900D1124DC01AC59EB
:1025E000BC4F5D01E6CF28960FB6F894DEBF0FBE54
:1025F000CDBFDF91CF911F910F91FF90EF90DF90B2
:10260000CF90BF90AF909F908F907F906F905F9092
:102610004F903F902F90089524E4269FF001279F2C
:10262000F00D1124E65AFC4F828993890497029792
:1026300058F485E090E0938B828B8FEF9FEFDC0165
:10264000828F938FA48FB58F08952F923F924F92D0
:102650005F926F927F928F929F92AF92BF92CF9232
:10266000DF92EF92FF920F931F93CF93DF93CDB73B
:10267000DEB7AA970FB6F894DEBF0FBECDBF9AA300
:1026800089A37E8B6D8B1A01098B1A8B2B8B3C8B4C
:1026900084E429893A89829F6001839FD00C1124A8
:1026A0008601065A1C4F89899A89AB89BC89F80131
:1026B00080839183A283B383AB01BC01CD01B1DEE2
:1026C000D601A25ABC4F84E0F10101900D928A9587
:1026D000E1F7F4E02F0E311C64E070E0D8011496AD
:1026E0008D919C910E94BD34F80191878087892B40
:1026F00009F0F5C04D895E8969897A898B899C8941
:1027000090DE81E0AA960FB6F894DEBF0FBECDBF73
:10271000DF91CF911F910F91FF90EF90DF90CF90BD
:10272000BF90AF909F908F907F906F905F904F90F1
:102730003F902F900895A9A5BAA58D919C91E98D00
:10274000FA8DE80FF91FF88FEF8BD1018D919C91D5
:10275000880F991FA9A1BAA1ED91FC91E80FF91F6B
:1027600080819181EF89F88D91838083D1011496C6
:102770002D913D914D915C9117972BA33CA34DA3B7
:102780005EA362E070E08D899E890E94BD34EF896E
:10279000F88D93838283892B09F4ACCFF8E02F0E58
:1027A000311C412C512C32012BA13CA14DA15EA129
:1027B00042165306640675069CF02B8D3C8D4D8D9C
:1027C0005E8D2F5F3F4F4F4F5F4F2B8F3C8F4D8F55
:1027D0005E8F498D5A8D4C5F5F4F5A8F498F90C0E5
:1027E000610124E0C20ED11CD101ED90FC90EE0CF1
:1027F000FF1CEF89F88D82819381E80EF91E68E055
:1028000070E081E090E00E94BD348C01D7018D938F
:102810009C93892B09F46ECF84E0F601D8010190D6
:102820000D928A95E1F7B8E02B0E311CF8018081FA
:102830009181A281B381181619061A061B06DCF4D1
:1028400064E070E00E94BD34D80115969C938E938D
:102850001497892B09F44ECFD12CC12C812C912CAB
:102860005401F80180819181A281B3818816990673
:10287000AA06BB0634F0FFEF4F1A5F0A6F0A7F0A01
:1028800093CFF801E480F580EC0CFD1C80E1F101B0
:10289000DE01119601900D928A95E1F7F0E12F0E7D
:1028A000311CA701BE016F5F7F4FA9A1BAA1149689
:1028B0008D919C9192DCF80186819781D7011296C7
:1028C0002D913C91820F931F97838683BFEF8B1AC4
:1028D0009B0AAB0ABB0AE4E0CE0ED11CC2CF1A8E13
:1028E000198E1B8E1C8E1D8E1E8E18A30F8FA80195
:1028F0004C5F5F4F58A74FA3C80108969AA789A7B6
:10290000EFA1F8A580819181A281B3812B8D3C8DAF
:102910004D8D5E8D281739074A075B070CF40BCFE6
:102920006EE070E08D899E890E94BD34AF8DB8A1A4
:102930001B969C938E931A97B12CA12CD12CC12C51
:10294000F12CE12C24E4E989FA892E9FC0012F9F04
:10295000900D11249C012C593C4F388F2F8B8824CB
:102960008394912C4D895E89C416D50654F184E474
:10297000A989BA898A9F80018B9F100D1124065A5C
:102980001C4FF80115861486C70133E0880F991F84
:102990003A95E1F70E94D734D80151969C938E93D3
:1029A0005097892B09F4A6CEC701880F991F0E9462
:1029B000D734F80197878687892B09F49BCE80E06E
:1029C000A1CED1014D905D906D907D901D0177FC61
:1029D00091CEEF89F88D008111810A0D1B1DD80160
:1029E00011969C928E92411451046104710429F154
:1029F000C2010E94D734F80195838483892B09F49E
:102A000079CEF801538242828481958197838683AF
:102A1000918780871386128681E090E045284628BA
:102A2000472811F490E080E0E80EF91EFFEFCF1A7E
:102A3000DF0A2EE0A20EB11C95CF15961C921E92B5
:102A40001497DFCF2F923F924F925F926F927F92B7
:102A50008F929F92AF92BF92CF92DF92EF92FF92AE
:102A60000F931F93CF93DF93CDB7DEB76A970FB65F
:102A7000F894DEBF0FBECDBF9E8B8D8B49015A01EE
:102A800084E4829F7001839FF00C11249701265AE1
:102A90003C4F6901FB0180819181F901958B848B09
:102AA000D701A059BC4FFB01349684E001900D92F0
:102AB0008A95E1F7D701AC58BC4FFB01389684E00A
:102AC00001900D928A95E1F7D701A858BC4FFB0100
:102AD0003C9684E001900D928A95E1F7D701A857C2
:102AE000BC4FFB01709684E001900D928A95E1F74E
:102AF0008B010C5E1F4FF90186A597A5A0A9B1A96E
:102B000018161906DCF5880F991F880F991F0E9467
:102B1000D734F60193AB82AB892B09F4D3C0312CA7
:102B2000212C412C512C32019601225D3F4F388FD0
:102B30002F8BC601C2969A8F898FF496FC8BEB8BF4
:102B4000B301A2012FEF421A520A620A720AEF89F8
:102B5000F88D80819181A281B381481759076A0756
:102B60007B070CF47BC0F60184A995A90E94D73499
:102B7000F60197AB86AB892B09F4A4C0F8018081DC
:102B80009181A281B38124E4289DF001299DF00D5B
:102B90001124E65AFC4FAC01BD014D7F21E030E02D
:102BA000452B462B472B11F030E020E033A322A326
:102BB00024E4289DF001299DF00D1124E65AFC4FD4
:102BC0000197A109B10921E030E00297A105B10503
:102BD00010F030E020E035A324A3D701A058BC4F6B
:102BE000F801349684E001900D928A95E1F784E42F
:102BF000889DF001899DF00D1124E65AFC4F868DC9
:102C0000978DA0A1B1A1B7FF58C0B095A0959095A0
:102C100081959F4FAF4FBF4F82AF93AFA4AFB5AF7A
:102C2000168E178E10A211A280E06A960FB6F89445
:102C3000DEBF0FBECDBFDF91CF911F910F91FF90EF
:102C4000EF90DF90CF90BF90AF909F908F907F904C
:102C50006F905F904F903F902F900895E98DFA8D7F
:102C6000808191819C01220D331D3A8B298B80E15B
:102C7000F801DE01119601900D928A95E1F7005F4F
:102C80001F4F49895A89BE016F5F7F4FED89FE89C9
:102C900084819581A2DAEB89FC8980819181E9891F
:102CA000FA8922813381820F931FEB89FC899183FA
:102CB0008083F4E02F0E311C43CF12AE13AE14AE5E
:102CC00015AEB2CFC501B4011DDA81E0AECFCF920F
:102CD000DF92EF92FF92CF93DF931092E20324E40E
:102CE000269FF001279FF00D1124E65AFC4F15A6F0
:102CF00014A630E020E0D12CC12CDF011A96C1E0EF
:102D0000D0E0C416D506F4F024E4269FF001279FF6
:102D1000F00D1124E65AFC4F13A612A611AE10AE08
:102D2000DF01DE961D921D921D921C92139782E088
:102D300090E0938B828BDF91CF91FF90EF90DF90AB
:102D4000CF900895ED91FC911197E20FF31FE2806F
:102D5000F3801E141F0454F4E480F580F782E682A9
:102D6000F186E08613861286D183C083EFEFCE1AF8
:102D7000DE0A225F3F4FC5CF24E4269FF001279F44
:102D8000F00D1124E65AFC4F138A128A4ACB24E430
:102D9000269FF001279FF00D1124E65AFC4F8289EF
:102DA000938981309105C8F08530910518F0059719
:102DB00069F008958FEF9FEFDC01828F938FA48FCE
:102DC000B58F85E090E0938B828B08958FEF9FEF16
:102DD000DC01828F938FA48FB58F089524E4249F04
:102DE000D001259FB00D1124A65ABC4F2EE0AC0196
:102DF000249FC001259F900D11241A96ED91FC91FE
:102E0000E80FF91F81E08093E20382859385918723
:102E10008087408551852681378181E090E0421787
:102E2000530711F090E080E09183808308952F9202
:102E30003F924F925F926F927F928F929F92AF924A
:102E4000BF92CF92DF92EF92FF920F931F93CF9397
:102E5000DF93CDB7DEB7C055D1090FB6F894DEBF0A
:102E60000FBECDBF9EAF8DAF4BA75CA76DA77EA752
:102E70006801790184E4809FF001819FF00D1124A5
:102E8000E65AFC4F2285338523963FAF2EAF23971A
:102E900082899389029761F486A597A5A0A9B1A913
:102EA000892B8A2B8B2BC9F584E090E0938B828B46
:102EB00084E48C9DF0018D9DF00D1124E65AFC4FA9
:102EC000828993898230910509F037C282AD93AD32
:102ED000A4ADB5AD22242394312C181619061A0678
:102EE0001B060CF42FC2C05BDF4F0FB6F894DEBF99
:102EF0000FBECDBFDF91CF911F910F91FF90EF904B
:102F0000DF90CF90BF90AF909F908F907F906F9009
:102F10005F904F903F902F900895848995894DAD93
:102F20005EAD8417950721F606A917A918AE1FAA4A
:102F30001BAA1CAA1DAA1EAA1F01CF018E962796A6
:102F40009FAF8EAF2797DF01D2962996BFAFAEAF66
:102F50002997F8962B96FFAFEEAF2B9791012A5D3C
:102F60003F4F2D963FAF2EAF2D97A1014E5D5F4F86
:102F70002F965FAF4EAF2F970A9761969FAF8EAF98
:102F800061972796EEADFFAD279780819181A28151
:102F9000B3812BA93CA94DA95EA9281739074A0777
:102FA0005B0744F081E090E0D101D9969C938E9329
:102FB000D8977ECF2996AEADBFAD2997ED91FC9104
:102FC0002FA938ADE20FF31F428153815AAF49AFA9
:102FD00050815FAF818121968FAF21972B96AEAD47
:102FE000BFAD2B978D919C91892B21F12D96EEAD44
:102FF000FFAD2D9780809180A280B3801AAB09AB82
:103000005FA72196FFAD2197F8AB29AD3AAD369574
:1030100027953695279525963FAF2EAF25971CAE61
:103020001BAE2596AEADBFAD2597EBADFCADEA1757
:10303000FB070CF149AD5AAD6FAD21967FAD2197DD
:10304000C8010E94FC3589AD9AAD8C7F080F191F0D
:103050002BA93CA94DA95EA92F5F3F4F4F4F5F4F52
:103060002BAB3CAB4DAB5EAB4FA958AD4C5F5F4F4C
:1030700058AF4FAB86CF2F96AEADBFAD2F978D918A
:103080009C91892B71F1EFA5F8A940805180628055
:103090007380A3019201C501B4010E948E2C181601
:1030A00064F0A9A9BAA92D913D914D915C91C501FA
:1030B000B4010E94AE2E1816BCF1A3019201C50105
:1030C000B4010E948E2C87FF0CC0E9A9FAA92081C7
:1030D000318142815381C501B4010E948E2C882325
:1030E00019F16196AEADBFAD61978D919C91892B21
:1030F00009F445C0EFA5F8A9408051806280738033
:10310000A3019201C501B4010E94AE2E18161CF550
:10311000A9A9BAA92D913D914D915C91C501B40128
:103120000E948E2C18165CF184E48C9DF0018D9D1C
:10313000F00D1124E65AFC4F868D978DA0A1B1A108
:10314000892B8A2B8B2B69F183E090E0938B828B08
:1031500081E090E02CC0A3019201C501B4010E945E
:103160008E2C81110CC0E9A9FAA9208131814281FC
:103170005381C501B4010E948E2C87FDD5CF2BADA4
:103180003CAD2F5F3F4F3CAF2BAF49A95AA94C5FD5
:103190005F4F5AAB49AB8FA598A9049698AB8FA700
:1031A00040CF84E090E0938B828B86AD97AD93A760
:1031B00082A77ECEEBADFCAD80819181F401EE0F54
:1031C000FF1FEE0FFF1FE80FF91FA081B1818C9147
:1031D00081110AC0FFEF8F1A9F0AAF0ABF0A8DA2A2
:1031E0009EA2AFA2B8A68FC18330A1F30280F38163
:1031F000E02D2FA938ADE20FF31F808191819AABAA
:1032000089AB892B39F34F5F5F4F6F4F7F4F4987F2
:103210005A876B877C879E01235E3F4FAE01475DD7
:103220005F4F64E070E0C8010E9415108111D0C1A9
:103230008D819E81AF81B8850496A11DB11D8D83BE
:103240009E83AF83B8874D8D5E8DBE016B5D7F4FD2
:103250008F8D98A10E94FC358BA19CA1009761F0F5
:103260006D8D7E8DA5E2B0E0AC0FBD1F6A0F7B1F98
:1032700049A15AA10E94FC351CAA1BAA412C512C21
:103280003201E9A9FAA980819181A281B38148160E
:1032900059066A067B060CF09DCFE9A9FAA984813C
:1032A00095812BA93CA9280F391F38AB2FA7D9012D
:1032B00012966D917C919E01235E3F4FAE01475D5A
:1032C0005F4FC8010E941510811182C1EFA5F8A9B6
:1032D00082819381092E000CAA0BBB0B4D815E816C
:1032E0006F817885840F951FA61FB71F8D839E83DE
:1032F000AF83B887608171814D8D5E8D8F8D98A170
:103300000E94FC358BA19CA1009761F0AFA5B8A9E4
:103310006D917C912D8D3E8D620F731F49A15AA135
:103320000E94FC35BFEF4B1A5B0A6B0A7B0AEBA9C4
:10333000FCA93496FCABEBABA4CF312C212C049729
:1033400009F0D1CD8EE0EDADFEAD8E9F80018F9F57
:10335000100D112423962EAD3FAD2397020F131F9E
:10336000D80112964D915C9113974115510509F4BE
:10337000BACD16968D919C919AA789A780E1FE01FE
:103380003196DF011D928A95E9F7C98ADA8AEB8ABC
:10339000FC8A2114310409F458C084E48C9DF001A6
:1033A0008D9DF00D1124E65AFC4FDF01DE968D90C5
:1033B0009D90AD90BC9082AD93ADA4ADB5AD881697
:1033C0009906AA06BB0609F040C0F80184819581E0
:1033D0000084F185E02D349624E0DE0155960190BD
:1033E0000D922A95E1F72D893E89285F3F4F3E8B4C
:1033F0002D8BD80118966D917C911997260F371F48
:1034000019963C932E93189718962D913C911997E5
:10341000480F591F241B350B37FD06C0820F931F21
:1034200019969C938E93189784E48C9DF0018D9D42
:10343000F00D1124E856FC4FB1E08B1A9108A10859
:10344000B10880829182A282B3829E012B5E3F4F9F
:10345000AE01475D5F4F64E170E0C8010E94151046
:103460008111B6C08CE090E0A0E0B0E08D839E8337
:10347000AF83B8879E01235E3F4FAE01475D5F4F2C
:1034800064E070E0C8010E9415108111A1C080E1C4
:1034900090E0A0E0B0E08D839E83AF83B8874D8D30
:1034A0005E8DBE01655D7F4F8F8D98A10E94FC35BA
:1034B0008BA19CA1009761F06D8D7E8DEBE2F0E019
:1034C000EC0FFD1F6E0F7F1F49A15AA10E94FC3512
:1034D0001DA21EA21FA218A62DAD3EAD220F331FA6
:1034E00038AF2FAB24E42C9DC0012D9D900D1124ED
:1034F000865A9C4FAC014C5F5F4F5AAF49AFDC011D
:103500001896BCAFABAF8DA09EA0AFA0B8A4498564
:103510005A856B857C85E9ADFAAD80819181A28168
:10352000B38188169906AA06BB060CF443CE452B38
:10353000462B472B09F4D7CC8AE190E0A0E0B0E01D
:1035400089839A83AB83BC832DAD3EADC901330F14
:10355000AA0BBB0B8D879E87AF87B88B4D895E8981
:10356000BE016F5F7F4F8F89988D0E94FC358B8DD8
:103570009C8D009761F06D897E8941E050E04C0F91
:103580005D1F640F751F498D5A8D0E94FC3589A5FA
:103590009AA5D80117969C938E93169711961C9214
:1035A0001E92232809F49FCC84E48C9DF0018D9D0C
:1035B000F00D1124E856FC4F80819181A281B381E6
:1035C0000196A11DB11D80839183A283B3838BCC0F
:1035D000232809F088CC84E48C9DF0018D9DF00DAA
:1035E0001124E65AFC4F81E090E095A784A785E07E
:1035F00090E0938B828B77CCCF92DF92EF92FF9209
:103600000F931F9324E4269FF001279FF00D1124B0
:10361000E65AFC4F228933892115310509F452C03D
:103620006B017C0121303105B1F482A593A59C0189
:103630002F5F3F4F33A722A7092E000CAA0BBB0B0D
:10364000028D138D248D358D80179107A207B30746
:10365000C9F5C7013CDB84E48C9DF0018D9DF00D24
:103660001124E65AFC4F82899389039759F582A564
:1036700093A59C012F5F3F4F33A722A7092E000C73
:10368000AA0BBB0B468D578D60A171A184179507BE
:10369000A607B707BCF086AD97AD93A782A784E0D5
:1036A00090E0938B828B82AD93ADA4ADB5AD18162F
:1036B00019061A061B0634F4EE5BFF4F81E090E01A
:1036C000918380831F910F91FF90EF90DF90CF90B7
:1036D000089524E4269FF001279FF00D1124E65A57
:1036E000FC4F828993890497B1F482A593A5019632
:1036F00093A782A7092E000CAA0BBB0B46895789FA
:10370000608D718D84179507A607B70721F485E0B2
:1037100090E0938B828B08952F923F924F925F920D
:103720006F927F928F929F92AF92BF92CF92DF92D1
:10373000EF92FF920F931F93CF93DF93CDB7DEB736
:103740002E970FB6F894DEBF0FBECDBFDC014983C4
:103750005A836B837C83290184E4849FF001859FD5
:10376000F00D1124E65AFC4F22883388C1010497DA
:10377000029708F0D5C011961C921E9213961C92C7
:103780001E92129715861486912C812C90E080E071
:103790008F019F01205F3F4F38872F833F013CE01F
:1037A000630E711CBF01625F7F4F7A8769873A960B
:1037B000FC87EB87EF81F88520813181F30140811F
:1037C0005181E985FA85A080B180841595050CF4B6
:1037D00045C011965C934E9313963C932E9312978B
:1037E0001596BC92AE921497452BF9F4F5E02F167E
:1037F0003104D9F41092E203F801828D938DA48DE7
:10380000B58DAE014F5F5F4F64E070E08F3F9F4F1B
:10381000AF4FBF4F09F079C080E290E0D8D6698100
:103820007A818B819C81A201A7DA2E960FB6F8943B
:10383000DEBF0FBECDBFDF91CF911F910F91FF90E3
:10384000EF90DF90CF90BF90AF909F908F907F9040
:103850006F905F904F903F902F900895EB85FC857F
:1038600060817181FB01E80DF91DFE87ED876081A4
:103870007181672B89F5E084F184628173817E8395
:103880006D83668177816A01E3E0CC0CDD1CEA95EB
:10389000E1F72C0D3D1D440F551F4A0D5B1DFA012C
:1038A00091838083F301408151814F5F5F4F51834A
:1038B0004083F901F382E282ED85FE85738762879A
:1038C000E616F70670F46E197F09F90171836083BB
:1038D00015821482178216820196FEE08F0E911CCB
:1038E00069CFED85FE85C480D5804D815E814C0D0C
:1038F0005D1D4E195F09F901518340836C197D09E3
:1039000075836483D782C682E7CF8FE190E05FD66C
:10391000F80113A612A681E090E0938B828B85CFED
:103920001586148611961C921E9213961C921E9256
:1039300012977BCFEF92FF920F931F93CF93DF935A
:103940007C018B01EA0121D781111EC08091CC013D
:103950009091CD01049711F5DF91CF911F910F91B7
:10396000FF90EF90089528ED38EB45E050E060E0DF
:1039700070E0CB010E947D26AE01B801C7010E9414
:103980008B26C8010E9456268091E3039091E403A0
:10399000892BE1F68881882331F3D8CF83E090E04A
:1039A0009093CD018093CC01D7CFCF93DF9320911B
:1039B000CC013091CD012430310541F0EB010E9462
:1039C0008B26CE01DF91CF910C945626DF91CF91BB
:1039D00008950C94872A0C947C2A0C946A2A0C94DF
:1039E00066260C940E2A089570E060E090E080E076
:1039F000A7C60895AF92BF92CF92DF92EF92FF9247
:103A00000F931F93CF93DF9300D0CDB7DEB75C0148
:103A10008B0169017A0190E080E0C114D104E104D6
:103A2000F10469F40F900F90DF91CF911F910F91E6
:103A3000FF90EF90DF90CF90BF90AF9008959C2DB6
:103A40008D2DC114D10421E0E206F10410F09FEFA6
:103A50008FEF9E012F5F3F4F492F582FB801C501AF
:103A60000E94102B8F3F9807E9F229813A81C21AF0
:103A7000D30AE108F108020F131FCFCF90E080E0D6
:103A800008950895CF93DF93EC0160E08E810E944A
:103A9000EA3081E090E00E94243061E08E810E9453
:103AA000EA3081E090E00E94243060E08E810E9444
:103AB000EA3084E690E0DF91CF910C942430CF92ED
:103AC000DF92EF92FF920F931F93CF93DF936C01DE
:103AD0007C0187E0E80EF11CD0E0C0E0062F10E08A
:103AE000B8010C2E02C0759567950A94E2F76170D3
:103AF000F70181917F010E94EA302196C430D105FF
:103B000079F7C601DF91CF911F910F91FF90EF9050
:103B1000DF90CF90B7CFCF92DF92EF92FF920F93CB
:103B20001F93CF93DF936C017C0187E0E80EF11CBB
:103B3000D0E0C0E0062F10E0B8010C2E02C0759551
:103B400067950A94E2F76170F70181917F010E9405
:103B5000EA302196C830D10579F7C601DF91CF91BF
:103B60001F910F91FF90EF90DF90CF908BCF1F931D
:103B7000CF93DF93EC01162F642F8C810E94EA30E3
:103B80008D818F3F19F060E00E94EA308F85612FB0
:103B900084FF05C0CE01DF91CF911F91BCCF70E0B3
:103BA00084E0759567958A95E1F7CE0188DF612FEE
:103BB000CE01DF91CF911F9182CF40E0D8CF61E05D
:103BC000FCDF80ED97E00C942430443008F043E0B3
:103BD000FC012389421710F04FEF420FFC01E40F64
:103BE000F11D2489620F6068E8CFFC016089262FEF
:103BF0002460208B6C60E1CF0F931F93CF93DF93F2
:103C0000EC01423018F08F8588608F874B8B1C8ABF
:103C100080E48D8B6E8B605C6F8B222329F04130AA
:103C200019F48F8584608F8761E08C810E94AE30AB
:103C30008D818F3F19F061E00E94AE3061E08E818E
:103C40000E94AE308E0198012C1B3D0B8F8584FDA8
:103C50000DC084E090E00F5F1F4F281739074CF428
:103C600061E0F80186810E94AE30EDCF88E090E0FF
:103C7000F2CF80E593EC0E94243060E08C810E94BA
:103C8000EA3060E08E810E94EA308D818F3F19F02A
:103C900060E00E94EA306F8564FD2BC063E0CE01D6
:103CA0000EDF84E991E10E94243063E0CE0107DF5A
:103CB00084E991E10E94243063E0CE0100DF86E9CF
:103CC00090E00E94243062E0CE01F9DE6F856062F0
:103CD000CE0173DF84E0888BCE0187DFCE016FDFFA
:103CE00082E0898B66E0CE01DF91CF911F910F9129
:103CF00064CF6062CE0161DF84E991E10E942430EB
:103D00006F856062CE0159DF86E990E00E94243021
:103D10006F856062CE0151DFD9CFCF92EF920F93C2
:103D2000FC011382128285E892E091838083648390
:103D30008FEF8583468327830087E186C2861386BB
:103D4000148615861686178620E041E060E1CF01D3
:103D50000F91EF90CF9050CF41E009DF81E090E0EC
:103D600008950F931F93CF93DF938C01EB01FA011A
:103D700020E030E040E85FE36081718182819381DF
:103D80000E948E2C811138C085EE93E018DF40E050
:103D900060E085EE93E019DF62E772E085EE93E084
:103DA0000E94013341E060E085EE93E00EDF68E7BA
:103DB00072E085EE93E00E940133F8014081518169
:103DC0006281738122E030E085EE93E00E943C3412
:103DD0006CE772E085EE93E00E94013348815981DF
:103DE0006A817B8122E030E085EE93E0DF91CF9124
:103DF0001F910F910C943C34DF91CF911F910F9143
:103E00000895CF93DF93EA0120E030E040E85FE3DC
:103E1000688179818A819B810E948E2C8823A1F000
:103E200020E042E060E185EE93E0E6DE62E772E0EA
:103E300085EE93E00E94013380E090E0A0E8BFE3CC
:103E400088839983AA83BB83DF91CF910895CF9212
:103E5000EF920F9382E0C82E93E0E92E04E025E074
:103E60004BE06CE085EE93E058DF0F91EF90CF9040
:103E7000089540E855E260E070E090E080E000C026
:103E800026E082E394E00C94E1311F920F920FB68A
:103E90000F9211242F933F934F935F936F937F93D0
:103EA0008F939F93AF93BF93EF93FF9386E997EE22
:103EB00090938500809384000E94492BFF91EF919D
:103EC000BF91AF919F918F917F916F915F914F9132
:103ED0003F912F910F900FBE0F901F90189586E97C
:103EE00097EE9093850080938400AFE6B0E08C91CC
:103EF0008E7F8C93E0E8F0E080818C7F8083E1E826
:103F0000F0E08081877E80838081846080838081EF
:103F10008C7F80838C9181608C93089581E00895DB
:103F20008F929F92AF92BF92CF92DF92EF92FF92C9
:103F30000F931F93CF93DF935C017B018A01C1E054
:103F4000D0E0CE15DF05CCF081E0F5018083B8012B
:103F5000C7010E94B12AF5019283818390E080E03D
:103F6000DF91CF911F910F91FF90EF90DF90CF9055
:103F7000BF90AF909F908F9008956E018FEFC81AF9
:103F8000D80AFE01EE0FFF1FE00FF11F8080918025
:103F90008114910469F06DE872E0C4010E940C364E
:103FA000892B41F4CC0FDD1FC00FD11F198218825D
:103FB000E601C7CF60E972E0C4010E940C36892B8C
:103FC000B9F7EC14FD04A1F36E01E2E0CE0ED11CB2
:103FD000CC0FDD1FC00FD11F198218821B821A82DD
:103FE000E7CF8DEF93E0089580E008950F931F933E
:103FF000CF93DF938B01BA01E901198218829801EE
:10400000012E000C440B550BFC0181819281F2DCE6
:10401000019641F01983088380E0DF91CF911F91D1
:104020000F91089581E0F9CF0F931F93CF93DF9302
:1040300000D0CDB7DEB7FB018A01B9019E012F5F29
:104040003F4FAF01FC01818192810E94C52A0196F8
:1040500069F089819A81F8019183808380E00F90D3
:104060000F90DF91CF911F910F91089581E0F7CFCD
:10407000FC01808108950895089581E0FB0180830B
:1040800080E008950895109225040895FC0181812F
:1040900092810C94A92ACF93DF93CDB7DEB72A97EC
:1040A0000FB6F894DEBF0FBECDBFB0E0A0E08983AD
:1040B0009A83AB83BC83CB01770FAA0BBB0B8D8399
:1040C0009E83AF83B8879E01275F3F4FAE014F5F4E
:1040D0005F4F68E070E0809114049091150486DFD2
:1040E000811110C081E029853A852830310509F415
:1040F00080E02A960FB6F894DEBF0FBECDBFDF91E9
:10410000CF91089581E0F5CF0F931F93CF93DF9365
:1041100000D0CDB7DEB78B019E012F5F3F4FAC01C2
:10412000809114049091150461DF81110EC081E02B
:1041300029813A812017310709F480E00F900F9010
:10414000DF91CF911F910F91089581E0F7CFCF9329
:10415000DF93EC01109218041092170410922404BB
:1041600010922304AC0160E070E0CB010E94BC1609
:10417000AE0161E070E080E090E00E94BC168091AA
:10418000140490911504DF91CF917CCF4F925F92F0
:104190006F927F928F929F92AF92BF92CF92DF9257
:1041A000EF92FF920F931F93CF93DF9300D0CDB781
:1041B000DEB78C017C0197FF03C087E0E80EF11C9D
:1041C00023E0F594E7942A95E1F7C80168E070E0F0
:1041D0000E943E346C010E5F1F4F8091120490913B
:1041E000130480179107D4F4809110049091110466
:1041F000009731F00E94733510921304109212044C
:10420000C8010E94D7349093110480931004892B25
:1042100009F482C0109313040093120410E000E02C
:1042200047C1412C512C3201B12CA12C9501275EA4
:104230003B4FAE014F5F5F4F61E070E0809114042F
:1042400090911504F1DE811149C0EFEF4E1A5E0A1C
:104250006E0A7E0AF0E94F16FFE55F06F1E06F0691
:10426000710444F060912304709124048DEE90E079
:1042700012DFD7CF89819A81A80EB91E8AE0A816CD
:10428000B10409F043C049E050E070E060E089E12A
:1042900094E00E943B2B60912304709124048823B6
:1042A00091F18091210490E08617970781F4BC0179
:1042B0008EEE90E0F0DE809123049091240401962C
:1042C000992790932404809323040F5F1F4F0E15AA
:1042D0001F050CF4A6CFCD2809F07CC090E080E04B
:1042E0000F900F90DF91CF911F910F91FF90EF9062
:1042F000DF90CF90BF90AF909F908F907F906F9006
:104300005F904F9008958FEE90E0B2CFEAE0AE1646
:10431000B1040CF48BCFDBCF10E000E0D8CF0A3033
:10432000110531F549E050E070E060E089E194E08A
:104330000E943B2B60912304709124048823A9F0F0
:104340008091210490E08617970741F6BC018EEE1C
:1043500090E0A1DE80912304909124040196992796
:104360009093240480932304B9CF8FEE90E02BC068
:104370000A3011050CF0B2CF9801275E3B4FAE0119
:104380004F5F5F4F61E070E08091140490911504DD
:104390004BDE8111A3CF89819A81080F191FFFEF8E
:1043A000CF1ADF0AEF0AFF0A80E9C8168FE5D806A0
:1043B00081E0E806F1040CF4B2CF6091230470911F
:1043C00024048DEE90E067DE10E000E0C12CD12CDB
:1043D0007601D2CFC12CD12C760110E000E0CCCFF9
:1043E000412C512C3201B12CA12C480193E0880CB6
:1043F000991C9A95E1F72091100430911104C501A0
:10440000880D991D280F391FAE014F5F5F4F61E086
:1044100070E0809114049091150406DE81115ECF46
:10442000EFEF4E1A5E0A6E0A7E0A609123047091C5
:1044300024048DEE90E0F0E94F16FFE55F06F1E011
:104440006F0671040CF043C089819A81A80EB91ED1
:104450008AE0A816B10409F041C049E050E0B40177
:1044600080911004909111040E943B2B60912304D1
:1044700070912404882349F18091100490911104D3
:10448000880E991EF401808590E08617970781F4C5
:10449000BC018EEE90E0FFDD809123049091240416
:1044A0000196992790932404809323040F5F1F4F54
:1044B0000E151F050CF494CFC114D10409F081C06E
:1044C00080911004909111040BCF8FEE90E0E3DD0A
:1044D000412C512C3201B12CA12C8DCFFAE0AF161A
:1044E000B1040CF488CFE4CF8FEE90E0D4DDF12C52
:1044F000E12C812C912C54019701275E3B4FAE019A
:104500004F5F5F4F61E070E080911404909115045B
:104510008BDD8111E3CE8FEF881A980AA80AB80ABA
:1045200060912304709124048DEE90E0E0E98E16F2
:10453000EFE59E06E1E0AE06B104C4F689819A81FA
:10454000E80EF91EFAE0EF16F104A9F549E050E093
:1045500070E060E089E194E00E943B2B60912304CD
:1045600070912404882309F4BFCF8091210490E046
:104570008617970709F0A4CFBC018EEE90E08BDD83
:1045800083E0000F111F8A95E1F78091100490914C
:104590001104A60169E174E0800F911F0E94FC35AF
:1045A00080912304909124040196992790932404E8
:1045B0008093230485CF8AE0E816F1040CF49CCFA5
:1045C0007FCF812C912C5401F12CE12C95CFCF92EF
:1045D000DF92EF92FF920F931F93CF93DF931F927F
:1045E000CDB7DEB76C017B018A01452B39F0AB01F9
:1045F00070E060E0C8010E94372B8983B701C601D3
:104600004ADD81110DC00115110551F0B701C80136
:104610007BDD811105C061E070E0CE01019674DDA3
:104620000F90DF91CF911F910F91FF90EF90DF904E
:10463000CF900895CF92DF92EF92FF92CF93DF93C6
:10464000CDB7DEB728970FB6F894DEBF0FBECDBF4B
:104650006B01F12CE12CC982DA82EB82FC822D8382
:104660003E834F835887AE014F5F5F4F68E070E035
:10467000AEDF28960FB6F894DEBF0FBECDBFDF9138
:10468000CF91FF90EF90DF90CF9008958F929F92FF
:10469000AF92BF92CF92DF92EF92FF920F931F9350
:1046A000CF93DF937C01EB01CA0169016FDD0097B5
:1046B000B1F42FEF3FEFA90161E070E0C701BADF6D
:1046C000C1E08C2FDF91CF911F910F91FF90EF9060
:1046D000DF90CF90BF90AF909F908F900895FC0196
:1046E00081909190A190B190BF01FCE1EF16F1048F
:1046F00079F4A5019401CE010E942215C82FA501CD
:104700009401882369F061E070E0C70193DFD9CF9D
:1047100095018401AB01B601CE010E942513EECFB5
:1047200070E060E0C701DF91CF911F910F91FF9082
:10473000EF90DF90CF90BF90AF909F908F907ACF07
:104740000F931F93CF93DF93EC018B014ADC90937F
:104750001504809314040097A9F0A801BE01E0DBC2
:10476000EC01892B49F0809114049091150483DCAD
:104770001092150410921404CE01DF91CF911F9175
:104780000F910895CCE9D2E0EECF8091140490917E
:1047900015046ECC2F923F924F925F926F927F9250
:1047A0008F929F92AF92BF92CF92DF92EF92FF9241
:1047B0000F931F93CF93DF93CDB7DEB769970FB6F3
:1047C000F894DEBF0FBECDBF209118042223F9F06C
:1047D0005B8B4A8B6E877F87888B998B9A01AB01A5
:1047E000BC01CE0101967C010E948C1B10E048E0C8
:1047F000242E312CE88EF98E89819A81181619069B
:104800000CF451C2112319F08A899B89A0DC6996A6
:104810000FB6F894DEBF0FBECDBFDF91CF911F91D1
:104820000F91FF90EF90DF90CF90BF90AF909F904F
:104830008F907F906F905F904F903F902F90089552
:10484000EB81FC818C859D8533E0880F991F3A951B
:10485000E1F7E80FF91F8081918190930F04809315
:104860000E04248135814281538150930D0440937D
:104870000C044681578150930B0440930A04820F25
:10488000931F9C01990F440B550B2C8B3D8B4E8B2A
:104890005F8B812C912C54018C899D89AE89BF89B5
:1048A00088169906AA06BB0640F18C859D85880F5F
:1048B000991FED81FE81E80FF91F4E855F8568899C
:1048C0007989808191810E94EE16AC85BD85119613
:1048D000BD87AC8789819A81EC85FD85E817F9074A
:1048E0000CF4AECF2A893B894E855F85688979892A
:1048F000888D998D0E948C1B7FCF1F8260910E0442
:1049000070910F04CB01072E000CAA0BBB0B840186
:104910007501640134E0C30ED11CE11CF11CC81602
:10492000D906EA06FB0608F0B3C020910C043091CA
:104930000D04A4014C5F5F4F240F351FF901C080A7
:10494000D12CF12CE12C24013501F5E04F0E511C46
:10495000611C711C481659066A067B0608F0A3C044
:1049600020910C0430910D04F8013596E20FF31FED
:104970002081D22A2401350126E0420E511C611CFF
:10498000711C481659066A067B0608F097C02091EC
:104990000C0430910D04F8013696E20FF31F2081CC
:1049A000E22A2401350137E0430E511C611C711CC1
:1049B000481659066A067B0608F08BC020910C0445
:1049C00030910D04F8013796E20FF31F2081260184
:1049D0003701722A7501640148E0C40ED11CE11C44
:1049E000F11C8C159D05AE05BF0508F41DC1881688
:1049F0009906AA06BB0608F077C080910C04909136
:104A00000D04800F911F68E070E07EDBE0910E04E2
:104A1000F0910F049F010F2E000C440B550BD30196
:104A2000C2018C0D9D1DAE1DBF1D281739074A07F9
:104A30005B0708F478C0C216D306E406F50608F052
:104A40005DC080910C0490910D049801285F3F4F48
:104A5000820F931FB20158DB80910E0490910F04D6
:104A6000AC01092E000C660B770BC416D506E606C2
:104A7000F70608F04DC0085F1F4F80910C0490911D
:104A80000D04800F911FA20170E060E0F0D5A7C077
:104A900044E050E0461B570B480D591D20910A0475
:104AA00030910B0449CFE5E0F0E0E61BF70BE00F97
:104AB000F11F20910A0430910B0458CFE6E0F0E09A
:104AC000E61BF70BE00FF11F20910A0430910B0455
:104AD00064CFE7E0F0E0E61BF70BE00FF11F209159
:104AE0000A0430910B0470CF9801261B370B80917C
:104AF0000A0490910B04820F931F85CF91012E1B06
:104B00003F0B200F311F80910A0490910B04A0CF1E
:104B1000D101A81BB90BCD01080F191F80910A0400
:104B200090910B04AECFBF0168507109601B710BEF
:104B3000C216D306E406F50608F062C080910C04A4
:104B400090910D049801285F3F4F820F931FDCDA8C
:104B500080910E0490910F04B101681B790B600FD6
:104B6000711F640D751D80910A0490910B04CCDABD
:104B700080910E0490910F04AC0148505109FA0144
:104B8000E01BF10BAC01092E000C660B770BC41671
:104B9000D506E606F70608F03DC080910C0490911A
:104BA0000D049801285F3F4F820F931FAF0170E003
:104BB00060E05DD58F8320910E0430910F04F101E8
:104BC000E21BF30B9F01200F311F240D351D50E018
:104BD00040E0682F80910A0490910B0434D58F83B4
:104BE00061E070E0CE0107968FDA182F38E0430EAF
:104BF000511C611C711C840C951CA61CB71C4CCE4E
:104C000091012E1B3F0B200F311F80910A049091C0
:104C10000B049BCF9101281B390B200F311F809172
:104C20000A0490910B04C0CF88169906AA06BB0609
:104C300068F5601B710B80910C0490910D04800F3E
:104C4000911F62DA80910E0490910F04B101681BEC
:104C5000790B600F711F640D751D80910A0490918E
:104C60000B0452DA80910E0490910F04AC01092ECE
:104C7000000C660B770BC416D506E606F70608F49B
:104C8000FACE9101281B390BC90146CFC801861BFA
:104C9000970B20910A0430910B04B201685F7F4F9B
:104CA000820F931FDECF1D861C8614CECF93DF9319
:104CB000EC01AC0160E070E0CB016CDDAE0161E0C5
:104CC00070E080E090E0DF91CF9164CDCF93809150
:104CD00014049091150488D9C82F81110BC060E08D
:104CE00070E0CB010E94E51161E070E080E090E0AF
:104CF0000E94E5118C2FCF9108950F931F93890186
:104D00009A01AB01BC018091140490911504B4D9AF
:104D10001F910F9108954F925F926F927F928F92A1
:104D20009F92AF92BF92CF92DF92EF92FF920F933A
:104D30001F93CF93DF93CDB7DEB763970FB6F89489
:104D4000DEBF0FBECDBF6C018B015A0180911804EC
:104D5000882309F43DC080911804882309F442C0D7
:104D6000809117041A821982882309F4BEC0F0E9E1
:104D70004F2EFFE55F2E66246394712CF12CE12CFD
:104D8000970120503C4FAE014F5F5F4F61E070E0F4
:104D9000809114049091150447D9982E811169C00F
:104DA00089819A81E80EF91EE114F10409F461C0C9
:104DB00081E0481A51086108710859F5609123048F
:104DC000709124048DEE90E066D91A82198251C048
:104DD00068E174E080911404909115044ED9882301
:104DE00009F4B9CF63960FB6F894DEBF0FBECDBFFE
:104DF000DF91CF911F910F91FF90EF90DF90CF90B7
:104E0000BF90AF909F908F907F906F905F904F90EA
:104E10000895AAE0EA16F10409F061C049E050E003
:104E200070E060E080E094E026D46091230470910B
:104E30002404882309F450C08091080490E0861768
:104E4000970719F6BC018EEE90E025D988E0E0E0E6
:104E5000F4E0DE01199601900D928A95E1F78091B8
:104E6000230490912404019699279093240480931D
:104E7000230481E029813A81121613060CF080E0A8
:104E80009110C8C2882309F4ADCF80911704811115
:104E900004C019861A861B861C8689859A85AB856F
:104EA000BC8580319105A105B10508F09BCFFC01BF
:104EB000E45AF84D0C947334DC279B290A2AF22615
:104EC000E0281329CC27D427B027EF29DE29EB29A6
:104ED000F226F226F2269B278FEE90E075CFBAE0FD
:104EE000EB16F1040CF44CCFC4CFF12CE12CE8E02C
:104EF0006E2E712C29E030E02C0F3D1F2E0D3F1D32
:104F0000AE014F5F5F4FB3016E197F0980911404AA
:104F10009091150489D8982E29813A81811109C070
:104F2000E20EF31EE114F10421F0E8E0EE16F104C4
:104F30000CF381E0A1CFD6011696ED91FC91808112
:104F40009181A281B38189839A83AB83BC83AE01B3
:104F50004F5F5F4F64E070E085E190E038DB42CF67
:104F60008D859E8513D92FEF3FEFA90161E070E099
:104F7000009771F0FC01C080D180E280F380A8012D
:104F8000C701B6010E946716A701960170E060E0B4
:104F90008DE190E04FDB26CF4D855E859801B6010F
:104FA0008BE190E073DB1ECF4D855E852FEF3FEFE9
:104FB000B6018CE190E0F6CFD6011496ED91FC910C
:104FC00000811181F80182809380A080B18070E11E
:104FD000472E512C612C712C49825A826B827C8223
:104FE00088E090E0A0E0B0E08D839E83AF83B88737
:104FF0009E012F5E3F4FAE014F5F5F4F68E070E054
:1050000080911404909115040E94F61F8823D9F012
:1050100010E000E0C80163960FB6F894DEBF0FBE43
:10502000CDBFDF91CF911F910F91FF90EF90DF9057
:10503000CF90BF90AF909F908F907F906F905F9038
:105040004F900C94733589899A89089709F7D8018C
:10505000ED90FC90B8E0EB0EF11CEE0CFF1CEE0C9A
:10506000FF1CC7010E94D7348C01892B89F2498229
:105070005A826B827C82C7010F2C000CAA0BBB0BDF
:105080008D839E83AF83B8879E012F5E3F4FAE0115
:105090004F5F5F4F68E070E08091140490911504B9
:1050A0000E94F61F8111B6CF89899A89089709F065
:1050B000B1CFD6011296ED91FC9140815181628170
:1050C0007381D8014D935D936D937C9313974481C5
:1050D00055816681778114964D935D936D937C9392
:1050E0001797408551856285738518964D935D931A
:1050F0006D937C931B9784859585A685B785F8016C
:1051000084879587A687B787108A118A128A138A9F
:1051100084E090E0A0E0B0E0848B958BA68BB78B09
:105120008091CC019091CD01B0E0A0E0808F918F73
:10513000A28FB38FC5010B2C000CAA0BBB0B848F65
:10514000958FA68FB78FF401D801909690E080E0FC
:105150008A159B055CF19E012F5E3F4FA801B701A8
:1051600080911404909115040E94F61F811152CF72
:1051700089899A89E816F90609F04CCFA70170E0F1
:1051800060E0C80174D28B8B9E012F5E3F4FAE0151
:105190004D5E5F4F61E070E08091140490911504C2
:1051A0000E94F61F81E08093170434CF4191519102
:1051B00070E060E04D935D936D937D930196C8CF51
:1051C0008D859E85AF85B8890097A105B10521F42D
:1051D00081E08093160406CE0E94C620009781F4D9
:1051E00081E090E0A0E0B0E089839A83AB83BC8348
:1051F000AE014F5F5F4F64E070E082E190E0AECEC1
:10520000BC01C6010E943E1119821A821B821C82B7
:10521000AE014F5F5F4F64E070E082E190E0D7D96C
:105220008823B1F2DFCDD6011496ED91FC91019067
:10523000F081E02DE084F1848FEF8983E114F104A3
:1052400009F472C0D7016D907C90C280D38070E069
:1052500060E090E080E08615970594F083E190E0AF
:105260000E944B2010E000E08111BCCD061517050F
:105270005CF161E070E0CE0101960E948420B2CD25
:105280009C0143E0220F331F4A95E1F7F701A28109
:10529000B381A20FB31F1296ED91FC911397EE0FFD
:1052A000FF1FEC0DFD1D0190F081E02D16964D9134
:1052B0005C91E49F9001E59F300DF49F300D112427
:1052C000620F731F0196C7CFD7011296ED91FC9123
:1052D000C80123E0880F991F2A95E1F7E80FF91F0D
:1052E000A080B180A281B381AA0FBB1FAC0DBD1DF0
:1052F0002D913C9186819781289F4001299F900C98
:10530000389F900C1124B401C5010E948420582EAE
:10531000940150E040E06981C50195D18983511025
:1053200061CD0F5F1F4FA2CF70E060E083E190E09E
:105330000E944B2057CD50E040E070E060E081E1FA
:1053400090E045D981114ECD60E070E0CB010E9424
:105350000C138091E203882329F0A80160E070E03B
:10536000CB0118DAA80160E070E0CB010E941112B5
:1053700061E070E080E090E00E940C138091E20315
:10538000882331F0A80161E070E080E090E002DA6B
:10539000A80161E070E080E090E00E94111210929C
:1053A0001804109217041092240410922304809180
:1053B0001404909115040E94432014CD81E090E0E4
:1053C0009093E4038093E30350E040E070E060E0FA
:1053D00086E190E0C3CD81E0F501808303CD8D852A
:1053E0009E850E94C6202FEF3FEFA90161E070E08B
:1053F000009769F0DC01CD90DD90ED90FC90C70145
:10540000B6010E94C716A701960170E060E08EE128
:1054100090E0C0CDC8010E94A720E4CCCF92DF92DB
:10542000EF92FF92CF93DF93EC01C12CD12C760148
:10543000C701B6010E940C13AE01C701B601AAD97B
:10544000AE01C701B6010E94111280911004909123
:105450001104009731F00E947335109211041092DC
:105460001004CA94CD28CE28CF2879F5809117044E
:10547000F12C882351F050E040E070E060E084E1DE
:1054800090E0A5D8F82E1092170480911804882374
:1054900041F01092180481E090E09093CD01809348
:1054A000CC0180911404909115040E9446208091B3
:1054B0001404909115040E943B208F2DDF91CF9111
:1054C000FF90EF90DF90CF900895C12CD12C760102
:1054D000C394AECFCF93DF93EC01AC0160E070E0FA
:1054E000CB010E94FC1AAE0161E070E080E090E028
:1054F000DF91CF910C94FC1A60E070E0CB010E9428
:10550000691B61E070E080E090E00C94691BCF9231
:10551000DF92EF92FF920F931F93CF93DF93EC01F3
:105520006A017B0100E010E098010E94171701E07A
:1055300010E020E030E0B701A601CE010E9417176D
:10554000DF91CF911F910F91FF90EF90DF90CF905F
:10555000089568EE73E080E090E040D590E080E050
:10556000089526E040E050E16EE070E082E394E0D0
:1055700028D782E394E05BD6892B21F082E394E084
:1055800070D6F7CF90E080E00895CF92DF92EF924F
:10559000FF920F931F93CF93DF936B017A01E90181
:1055A0001982188282E394E042D6892B71F1860138
:1055B000CC24C39485E6D82E80912504811111C096
:1055C00082E394E04ED685369105B1F7C09225046A
:1055D000F801D1928F0188819981019699838883FE
:1055E000EBCF888199818E159F0578F482E394E052
:1055F00038D68F3F9807A9F3F80181938F018881EE
:105600009981019699838883ECCF90E080E0DF91C7
:10561000CF911F910F91FF90EF90DF90CF90089561
:105620000F931F93CF93DF93EA01890182E394E004
:10563000ACD7F801D183C08390E080E0DF91CF91B7
:105640001F910F910895DC01A40FB51F420F531F46
:105650009D01281B390B2417350710F0862F08955C
:10566000ED91E627F0E0EC54FF4F6491F1CF9A0101
:10567000AB016FEFE8CFCF93FC01E60FF71FE40F0C
:10568000F51FC081F4DF91E0C81390E0892FCF911E
:1056900008958091260491E0980F90932604882322
:1056A00049F021E030E030932804209327048093D0
:1056B0002604089578940E94C905F89480912604E0
:1056C0008150809326040C94EB1CFF920F931F9340
:1056D000CF93DF931F92CDB7DEB710926C05109277
:1056E0006B05BDD40E94391F0091E4011091E501C2
:1056F000F8011182108270E060E090E080E00E948A
:10570000F41C0E94E90DF8947894C80182960E94D6
:10571000F31C81E090E00E94EF1C1982AE014F5F04
:105720005F4F61E070E0F801828193810E949A1CD2
:105730008981882319F081E0F80186A30E94F91C71
:10574000F8940E946F1FF80180819181892B19F4D0
:1057500081E096A1911180E080936B057894789414
:10576000FF24F39480916B05811110C00E94420FB9
:1057700081E090E00E94F11CF89490E080E00F90AE
:10578000DF91CF911F910F91FF9008951982AE0183
:105790004F5F5F4F61E070E0F801828193810E946A
:1057A000D51C8981882311F0F801F6A2F8018081C7
:1057B0009181892B89F481E096A1911101C080E04B
:1057C00080936C0590916C0581E0911180E080934D
:1057D0006B050E948E1FC6CF81E0F2CF5058BB27C9
:1057E000AA270ED059C222D230F027D220F031F4AD
:1057F0009F3F11F41EF4F2C10EF4E095E7FBBFC128
:10580000E92F6CD280F3BA176207730784079507F4
:1058100018F071F49EF59BC20EF4E0950B2EBA2F92
:10582000A02D0B01B90190010C01CA01A0011124A6
:10583000FF27591B99F0593F50F4503E68F11A1652
:10584000F040A22F232F342F4427585FF3CF4695E3
:1058500037952795A795F0405395C9F77EF41F1605
:10586000BA0B620B730B840BBAF09150A1F0FF0FCF
:10587000BB1F661F771F881FC2F70EC0BA0F621FBB
:10588000731F841F48F4879577956795B795F795AB
:105890009E3F08F0B3CF9395880F08F09927EE0F3D
:1058A000979587950895DF93DD27B92FBF7740E857
:1058B0005FE31616170648075B0710F4D92F52D27C
:1058C0009F938F937F936F93FFD2E8E6F0E089D1A7
:1058D000E3D12F913F914F915F9157D2DD2349F052
:1058E0009058A2EA2AED3FE049EC5FE3D0785D27CB
:1058F00087DFDF91D1C114D280F09F3740F491113E
:105900000EF426C260E070E080E89FE3089526F080
:105910001B16611D711D811D38C152C10CD108F4C7
:1059200081E0089592D1E395C8C10CD0B5C185D16D
:1059300040F07CD130F021F45F3F19F020C15111CB
:1059400007C24CC1CBD198F39923C9F35523B1F3C6
:10595000951B550BBB27AA2762177307840738F0DE
:105960009F5F5F4F220F331F441FAA1FA9F333D03D
:105970000E2E3AF0E0E830D091505040E695001CF1
:10598000CAF729D0FE2F27D0660F771F881FBB1FAD
:10599000261737074807AB07B0E809F0BB0B802D87
:1059A000BF01FF2793585F4F2AF09E3F510568F0D3
:1059B000E6C0CEC15F3FECF3983EDCF38695779569
:1059C0006795B795F7959F5FC9F7880F911D9695D5
:1059D000879597F90895E1E0660F771F881FBB1F31
:1059E000621773078407BA0720F0621B730B840BDE
:1059F000BA0BEE1F88F7E0950895E89409C097FB6D
:105A00003EF490958095709561957F4F8F4F9F4F95
:105A10009923A9F0F92F96E9BB279395F6958795D9
:105A200077956795B795F111F8CFFAF4BB0F11F49C
:105A300060FF1BC06F5F7F4F8F4F9F4F16C0882343
:105A400011F096E911C0772321F09EE8872F762F79
:105A500005C0662371F096E8862F70E060E02AF0BA
:105A60009A95660F771F881FDAF7880F96958795A6
:105A700097F9089555D180F09F3740F491110EF0B9
:105A800067C160E070E080E89FEB089526F41B1684
:105A9000611D711D811D79C093C0C8D018F011F02F
:105AA000CCD038F49BC054C1E92F18D1B0F35523A2
:105AB000C9F3E7FB6217730784079507A8F199F309
:105AC000E92FFF2788232AF03197660F771F881F59
:105AD000DAF7952F5527442332F091505040220F8A
